:100000000C94C1010C94F2010C94F2010C94F201D5
:100010000C94F2010C94F2010C94F2010C94F20194
:100020000C94F2010C94CF090C94CF090C94CF09D5
:100030000C94F2010C94F2010C94F2010C94F20174
:100040000C94F2010C94F2010C94F2010C94F20164
:100050000C94F2010C94F2010C94F2010C948509B9
:100060000C94F2010C944F090C9425090C94F201A4
:100070000C94F2010C94F2010C94F2010C94F20134
:100080000C94F2010C94F2010C94F2010C94F20124
:100090000C94EF080C94C5080C94F2010C94D90947
:1000A0000C94F2010C94F2010C94F2010C94F20104
:1000B0000C94F2010C94F2010C94F2010C94F201F4
:1000C0000C94F2010C94F2010C94F2010C94F201E4
:1000D0000C94F2010C94F2010C94F2010C94F201D4
:1000E0000C94F2010C9422040C94C8070C94B605ED
:1000F0000C9486020C94E7050C94B7020C946103EF
:100100000C94F9020C940E040C9434040C9418040E
:100110000C9459020C9401040C94F5030C940404FF
:100120000C94A9020C9430040C941C050C941C042F
:100130000C940A040C94DE030C94F90A0C942A041F
:100140000C9414040C94510E0C94E3030C94FD03D2
:100150000C9495020C94F9030C94260400002200E0
:10016000250028002B002E00310034000201000081
:10017000050108010B010505050507050808080824
:10018000020202020A0A080804040404010101012F
:10019000010101010303030303030303040707072A
:1001A0000C0C0C0C0C0C0C0C0202020206060606CF
:1001B000060606060B0B0B0B0B0B0B0B010210209C
:1001C000200808102040102040800201020108048D
:1001D0000201010204081020408080402010080421
:1001E000020180040201804020100804020108047A
:1001F00002010102040810204080010204081020BE
:10020000408000000A0B02090C0D0E0807030401D0
:1002100000000000000000000000000000000000DE
:1002200000000000000000000000000000001211AB
:1002300010000000000000000000000000000000AE
:1002400000000000000000004669726D7761726571
:10025000207665722E2000466F756E642063686993
:100260007020504E35004469646E27742066696EB4
:100270006420504E35337820626F61726400556E91
:1002800061626C6520746F2061757468656E746955
:100290006361746520626C6F636B2000556E6162F0
:1002A0006C6520746F20777269746520626C6F636F
:1002B0006B2000556E61626C6520746F20777269E7
:1002C000746520626C6F636B2000556E61626C65B3
:1002D00020746F20777269746520626C6F636B2085
:1002E00000556E61626C6520746F20777269746569
:1002F00020626C6F636B2000556E61626C652074C8
:100300006F20777269746520626C6F636B20005593
:100310006E61626C6520746F20666F726D6174200F
:10032000746865206361726420666F72204E444574
:100330004600556E61626C6520746F20617574684B
:10034000656E74696361746520626C6F636B2030E5
:1003500020746F20656E61626C6520636172642039
:10036000666F726D617474696E672100556E737586
:1003700070706F72746564205461672E0000F90A12
:10038000510E11241FBECFEFD1E2DEBFCDBF00E082
:100390000CBF24E0ACEFB2E001C01D92A63CB20756
:1003A000E1F712E0A0E0B2E0ECE9FFE100E00BBF12
:1003B00002C007900D92AC3FB107D9F711E0C0EC35
:1003C000D1E000E006C021970109802FFE010E94C4
:1003D000790ECF3BD10780E00807A9F70E947E0B7A
:1003E0000C94BC0F0C9400006F927F928F929F929E
:1003F000AF92BF92CF92DF92EF92FF920F93CF9383
:10040000DF93EC017B015A0149018AE48F8F81E07F
:1004100088A319A23E012FE5620E711CD3018D91B4
:100420009C916E01BFE1CB0ED11CDC01ED91FC91E2
:100430000480F581E02D00E030E020E043E0B601EB
:100440001995811125C0F30180819181DC01ED9125
:10045000FC910680F781E02D940140E4B6011995E6
:1004600097FD16C08F8D813099F48CA1F5018083A2
:1004700080E09CA18917D8F4282F30E0FE01E20F1C
:10048000F31F95A12E0D3F1DD9019C938F5FF1CFD6
:1004900080E0DF91CF910F91FF90EF90DF90CF90B0
:1004A000BF90AF909F908F907F906F90089581E064
:1004B000F0CFAF92BF92CF92DF92EF92FF920F9365
:1004C0001F93CF93DF936C017B018B01040F151FEA
:1004D000EB015E01AE18BF08C017D10759F0699152
:1004E000D601ED91FC910190F081E02DC6011995A6
:1004F000892B79F7C501DF91CF911F910F91FF9063
:10050000EF90DF90CF90BF90AF900895FC01538D96
:10051000448D252F30E0842F90E0821B930B5417DD
:1005200010F0CF96089501970895FC01918D828D6A
:10053000981761F0A28DAE0FBF2FB11D5D968C9103
:10054000928D9F5F9F73928F90E008958FEF9FEF42
:100550000895FC01918D828D981731F0828DE80FFE
:10056000F11D858D90E008958FEF9FEF0895FC01B8
:10057000918D228D892F90E0805C9F4F821B910985
:100580008F739927089580E294E00E94B70221E0DA
:10059000892B09F420E0822F089588E793E00E94D8
:1005A000B70221E0892B09F420E0822F0895FC0195
:1005B000A48DA80FB92FB11DA35ABF4F2C91848DC4
:1005C00090E001968F739927848FA689B7892C9321
:1005D000A089B1898C91837080648C93938D848D74
:1005E000981306C00288F389E02D80818F7D808377
:1005F0000895EF92FF920F931F93CF93DF93EC0137
:1006000081E0888F9B8D8C8D98131AC0E889F989B9
:10061000808185FF15C09FB7F894EE89FF896083BC
:10062000E889F98980818370806480839FBF81E03D
:1006300090E0DF91CF911F910F91FF90EF9008957F
:10064000F62E0B8D10E00F5F1F4F0F731127E02E5A
:100650008C8D8E110CC00FB607FCFACFE889F98992
:10066000808185FFF5CFCE010E94D702F1CFEB8DBF
:10067000EC0FFD2FF11DE35AFF4FF0829FB7F89466
:100680000B8FEA89FB8980818062CFCF0F931F9304
:10069000CF93DF938C01D0E0C0E0F801EC0FFD1F99
:1006A0006491662341F088E793E00E94F902892B68
:1006B00011F02196F2CFCE01DF91CF911F910F91D2
:1006C0000895CF93DF93EC01888D8823B9F0AA8930
:1006D000BB89E889F9898C9185FD03C0808186FDFD
:1006E0000DC00FB607FCF7CF8C9185FFF2CF80814C
:1006F00085FFEDCFCE010E94D702E9CFDF91CF91E8
:10070000089580E090E0892B29F00E94CD028111AC
:100710000E94000080E090E0892B29F00E94C30233
:1007200081110E94000080E090E0892B49F080E078
:1007300090E0892B29F00E94000081110E940000A6
:1007400080E090E0892B49F080E090E0892B29F04F
:100750000E94000081110C9400000895282F30E0C1
:10076000F901EE5FFD4F9491F901E454FE4F44917D
:100770002A583E4FF9012491222309F435C09923C8
:1007800011F191509231F8F4E92FF0E08827E45309
:10079000FC4F8F4F0C94790EFD030104DE03F5032B
:1007A000F903E30304040A040E04140418041C04EB
:1007B00022042604E3032A043004340480918000D8
:1007C0008F7780938000E22FF0E0EE0FFF1FE45A56
:1007D000FE4FA591B4918FB7F894EC91611148C088
:1007E00040954E234C938FBF0895809180008F7D5C
:1007F000E8CF80918000877FE4CF84B58F7784BD78
:10080000E2CF84B58F7DFBCF8091B0008F7780934E
:10081000B000D9CF8091B0008F7DF9CF809190004A
:100820008F7780939000CFCF809190008F7DF9CF0C
:1008300080919000877FF5CF8091A0008F77809383
:10084000A000C1CF8091A0008F7DF9CF8091A00042
:10085000877FF5CF809120018F7780932001B3CFE0
:10086000809120018F7DF9CF80912001877FF5CF86
:100870004E2BB8CF3FB7F8948091740390917503D5
:10088000A0917603B091770326B5A89B05C02F3FB2
:1008900019F00196A11DB11D3FBFBA2FA92F982FA6
:1008A0008827BC01CD01620F711D811D911D42E0A1
:1008B000660F771F881F991F4A95D1F708952091D9
:1008C0002303260F3327331F21323105ECF4209107
:1008D0004703FC0190E080E0243069F082E0089555
:1008E000A09123032191AC014D5F5C4FA40FB52F64
:1008F000B11D2C930196861798F380912303680FFE
:100900006093230380E0089581E0089508958FEFB8
:100910009FEF08958FEF9FEF08958091FC0290E084
:100920009195819591090895CF93DF93CB01EA01C9
:10093000642F0E945F04CE01DF91CF910895CF9381
:10094000DF931F92CDB7DEB7698361E0CE010196D8
:100950000E945F0481E090E00F90DF91CF910895B5
:1009600090E080E008952F923F924F925F926F92B5
:100970007F928F929F92AF92BF92CF92DF92EF922F
:10098000FF920F931F93CF93DF932C011A018901DC
:100990003B01D0E0C0E06901F12CE12CC215D30588
:1009A00091F18FB7F8948090700390907103A090AC
:1009B0007203B09073038FBFD20112968D919C91F8
:1009C000DC01ED91FC910284F385E02D199597FFF0
:1009D0002EC00115110581F32FB7F8948091700393
:1009E00090917103A0917203B09173032FBF881986
:1009F0009909AA09BB098C159D05AE05BF05E0F252
:100A00008EEF209709F08C2FDF91CF911F910F91DE
:100A1000FF90EF90DF90CF90BF90AF909F908F901E
:100A20007F906F905F904F903F902F900895F301CB
:100A300081933F012196B2CFAF92BF92CF92DF92C6
:100A4000EF92FF920F931F93CF93DF9300D01F92EB
:100A50001F92CDB7DEB77C01062FB72E142F690188
:100A600043E050E0BE016F5F7F4F0E94B304181651
:100A700094F08EEF9FEF0F900F900F900F900F90CC
:100A8000DF91CF911F910F91FF90EF90DF90CF906A
:100A9000BF90AF9008958981882319F08DEF9FEF63
:100AA000EACF8A818111FACF8B818F3FB9F7960106
:100AB00042E050E0BE016C5F7F4FC7010E94B3046B
:100AC0001816BCF68C819D81980F41F782508C835B
:100AD000181708F448C0F7011481AA24A394A10EA2
:100AE000960142E050E0BE016F5F7F4FC7010E9458
:100AF000B30418160CF0BDCF8981853D79F68A8143
:100B00008A11CCCF4C8150E09601602F7B2DC7011C
:100B10000E94B3042C81082E000C990B281719068B
:100B200009F0A7CF1A52902FE02FFB2D8E2F891B93
:100B3000821718F48191180FF9CF960142E050E026
:100B4000BE016F5F7F4FC7010E94B30418160CF0FF
:100B500090CF8981180F09F0A1CF8A8181119ECF92
:100B60008C8190E088CF8CEF9FEF85CFDC011296CF
:100B7000ED91FC91A089B18982E08C93A485B58523
:100B80001C92A685B78580E18C93108EA489B589C7
:100B900086E08C93A289B3898C9180618C93A28921
:100BA000B3898C9188608C93A289B3898C91806879
:100BB0008C930288F389E02D80818F7D8083089556
:100BC000DC01ED91FC910190F081E02D1994CF931F
:100BD000DF93EC0165E570E08A819B810E94E0056E
:100BE00065E570E08A819B810E94E0058A819B8196
:100BF000DC01ED91FC910190F081E02D60E0199510
:100C00008A819B81DC01ED91FC910190F081E02DC6
:100C100060E019958A819B81DC01ED91FC91019046
:100C2000F081E02D60E019958A819B81DC01ED91D6
:100C3000FC910084F185E02D19958A819B81DC016E
:100C4000ED91FC910084F185E02D1995892B49F0F7
:100C50008A819B81DC01ED91FC910284F385E02D7A
:100C6000EBCFDF91CF910895FC0101900020E9F7CF
:100C70003197AF01481B590BBC0188E793E00C94F6
:100C800059028F929F92AF92BF920F931F93CF936F
:100C9000DF93CDB7DEB7A1970FB6F894DEBF0FBED6
:100CA000CDBF19A2423008F44AE08E010F5D1F4FFC
:100CB000842E912CB12CA12CA50194010E94570ED9
:100CC000E62FB901CA01EA30F4F4E05DD801EE93F1
:100CD0008D01232B242B252B79F790E080E01097B2
:100CE00019F0CD010E943406A1960FB6F894DEBF2C
:100CF0000FBECDBFDF91CF911F910F91BF90AF90ED
:100D00009F908F900895E95CE1CFCF93DF930E948D
:100D10003406EC0180E892E00E9434068C0F9D1F9F
:100D2000DF91CF910895CF93DF93BC01990F880B8A
:100D3000990B4AE00E944106EC0180E892E00E9493
:100D400034068C0F9D1FDF91CF910895CF92DF92D3
:100D5000EF92FF920F931F93CF93DF93EC01142F29
:100D60006C0128E0C20ED11C86E0F701D60101908B
:100D70000D928A95E1F750E0CE010E94B30F1F83D8
:100D800080E48F8F81E088A380E689A30AA3DE0137
:100D9000939686E0F60101900D928A95E1F79C2FDB
:100DA000EC2FFD2F8E2F891B811718F4819180A7BE
:100DB000F9CF6E01BFE5CB0ED11CF6018081918188
:100DC0007E01FFE1EF0EF11C4AE0410FDC01ED91E5
:100DD000FC910480F581E02D00E030E020E0B701D7
:100DE0001995811111C0F60180819181DC01ED918D
:100DF000FC910680F781E02D28EE33E040E4B70156
:100E0000199581E09F8D911180E0DF91CF911F9125
:100E10000F91FF90EF90DF90CF900895EF92FF92A7
:100E20000F93CF93DF93EC0180E48F8F81E088A351
:100E300080EA89A36AA3DE01939680E1FA0101901A
:100E40000D928A95E1F77E018FE5E80EF11CD7013E
:100E50008D919C916F96DC01ED91FC910480F58160
:100E6000E02D00E030E020E044E1BE011995811161
:100E700012C0F70180819181DC01ED91FC91068027
:100E8000F781E02D28EE33E040E4BE01199521E022
:100E9000181619060CF020E0822FDF91CF910F91E8
:100EA000FF90EF9008951F93CF93DF9385ED80938C
:100EB000BC008091FF0290910003A0910103B091CA
:100EC00002030796A11DB11D23E0B695A79597953E
:100ED00087952A95D1F72091BC0024FD03C010927C
:100EE000470352C04091FF025091000360910103FB
:100EF00070910203452B462B472B69F30097A10500
:100F0000B10541F02AE22A95F1F700C00197A10945
:100F1000B109E1CF8091FE02C1E0C093FD028823B8
:100F200099F1D091B8001091BA008091BC008A7BF1
:100F30008093BC0060E084E10E94AE0360E085E144
:100F40000E94AE0310924703C093490310924803D6
:100F500061E084E10E94AE0361E085E10E94AE039E
:100F60008091B9008E7F8093B9008091B9008D7F08
:100F70008093B90088E48093B80085E48093BC0036
:100F80001093BA00D093B800DF91CF911F910895CC
:100F90009F92AF92BF92CF92DF92EF92FF920F9308
:100FA0001F93CF93DF93CDB7DEB72C970FB6F8948E
:100FB000DEBF0FBECDBF7C016B01942EB22EA32EDF
:100FC000DC0112968D919C91DC01ED91FC910084E5
:100FD000F185E02D1995F70182819381DC01ED9176
:100FE000FC910084F185E02D1995F701A281B38170
:100FF000892B41F0ED91FC9111970284F385E02D4E
:10100000CD01E8CFF6018081F7018483ED91FC9159
:1010100011970190F081E02D60E0CD011995D70185
:1010200012968D919C91DC01ED91FC910190F081E3
:10103000E02D60E01995F70182819381DC01ED914B
:10104000FC910190F081E02D6FEF199561E0600F48
:10105000162F190DF70182819381DC01ED91FC912E
:101060000190F081E02D612F1995612F70E071954D
:1010700061957109F701828193810E94E00564ED19
:1010800070E0D70112968D919C910E94E005F701C6
:1010900082819381492D50E0DC01ED91FC91028029
:1010A000F381E02DB60119959C2DF60114ED8E2FDC
:1010B000891B891518F48191180FF9CFF7018281E6
:1010C0009381402F50E0DC01ED91FC910280F3818F
:1010D000E02D6B2D7A2D19959B2DEB2DFA2D8E2F52
:1010E000891B801718F48191180FF9CFF7018281BD
:1010F0009381612F6195DC01ED91FC910190F0816C
:10110000E02D1995F70182819381DC01ED91FC912D
:101110000190F081E02D60E0199586E0E6E0F2E0D4
:10112000DE01179601900D928A95E1F72AE030E0F2
:1011300046E050E0BE016F5F7F4FC7010E94B304DD
:1011400018160CF546E050E0BE01695F7F4FCE01F6
:1011500001960E94A60F21E0892B09F420E0822F3E
:1011600081952C960FB6F894DEBF0FBECDBFDF91F0
:10117000CF911F910F91FF90EF90DF90CF90BF9094
:10118000AF909F9008958EEFECCF1F920F920FB605
:101190000F9211240BB60F922F933F934F935F93AF
:1011A0006F937F938F939F93AF93BF93EF93FF932F
:1011B00080E294E00E94D702FF91EF91BF91AF913E
:1011C0009F918F917F916F915F914F913F912F915F
:1011D0000F900BBE0F900FBE0F901F9018951F928F
:1011E0000F920FB60F9211240BB60F922F938F937D
:1011F0009F93EF93FF93E0913004F091310480814D
:10120000E0913604F091370482FD1DC090818091F9
:1012100039048F5F8F7320913A04821741F0E09177
:101220003904F0E0E05EFB4F958F80933904FF9125
:10123000EF919F918F912F910F900BBE0F900FBE4A
:101240000F901F9018958081F2CF1F920F920FB6CA
:101250000F9211240BB60F922F933F934F935F93EE
:101260006F937F938F939F93AF93BF93EF93FF936E
:1012700088E793E00E94D702FF91EF91BF91AF9171
:101280009F918F917F916F915F914F913F912F919E
:101290000F900BBE0F900FBE0F901F9018951F92CE
:1012A0000F920FB60F9211240BB60F922F938F93BC
:1012B0009F93EF93FF93E0918803F09189038081DE
:1012C000E0918E03F0918F0382FD1DC0908180918B
:1012D00091038F5F8F7320919203821741F0E09109
:1012E0009103F0E0E858FC4F958F80939103FF91B4
:1012F000EF919F918F912F910F900BBE0F900FBE8A
:101300000F901F9018958081F2CF1F920F920FB609
:101310000F9211242F933F938F939F93AF93BF937B
:101320008091700390917103A0917203B091730347
:1013300030916F0323E0230F2D3758F50196A11D3F
:10134000B11D20936F038093700390937103A0935A
:101350007203B09373038091740390917503A0910D
:101360007603B09177030196A11DB11D809374039C
:1013700090937503A0937603B0937703BF91AF91D9
:101380009F918F913F912F910F900FBE0F901F90C3
:10139000189526E8230F0296A11DB11DD2CF1F92EA
:1013A0000F920FB60F9211240F900FBE0F901F9047
:1013B00018951F920F920FB60F9211240BB60F9231
:1013C0002F933F934F935F936F937F938F939F934D
:1013D000AF93BF93EF93FF938091B900887F8036DE
:1013E00009F44DC008F040C0883209F4A7C028F5C0
:1013F000803109F49BC0C8F4882309F4F7C0883011
:1014000009F494C0FF91EF91BF91AF919F918F919B
:101410007F916F915F914F913F912F910F900BBEF4
:101420000F900FBE0F901F901895883109F486C059
:10143000803241F78093460314C0803409F49BC086
:1014400040F48033B9F38833E9F68093460385ECA2
:10145000AEC0803509F483C0883509F494C088345F
:1014600089F60E945307CECF883909F48AC038F52F
:10147000883729F050F4883611F0803719F683E068
:10148000809347031092450355C0883809F479C00A
:10149000803919F0803809F0B5CF8091450380324A
:1014A00008F06FC0E091450381E08E0F8093450303
:1014B0008091BB00F0E0EB5DFC4F80833BC0803B44
:1014C00039F0D0F4803A09F477C0883A09F09ACF1D
:1014D00084E0809347031092240310922303F0E0EA
:1014E000E0E019958091230381110FC081E0809382
:1014F00023031092030309C0803C09F4A8CF883C61
:1015000009F4A5CF883B09F07DCFE091240381E069
:101510008E0F80932403F0E0ED5FFC4F8081809379
:10152000BB00909124038091230329C080916C0318
:101530008093BB0085EC8093BC0064CF90916B03DB
:1015400080916A03981758F5E0916B0381E08E0F44
:1015500080936B03F0E0E65BFC4F8081E9CFE09184
:101560006B0381E08E0F80936B038091BB00F0E0F2
:10157000E65BFC4F808390916B0380916A03981720
:10158000C8F285E8D8CFE0916B0381E08E0F80939D
:101590006B038091BB00F0E0E65BFC4F80838091A1
:1015A000490381115ECF81E08093480384EA8093F0
:1015B000BC001092470326CF85EC8093BC001092AC
:1015C000470380914503803230F4E0914503F0E019
:1015D000EB5DFC4F10826091450370E085E293E083
:1015E000F0E0E0E01995109245030CCF109246030D
:1015F00038CFCF93DF93E0E2F4E01382128248EE1B
:1016000053E060E070E0448355836683778386E629
:1016100092E0918380832DEC30E0358724872CEC99
:1016200030E03787268728EC30E0318B208B29EC9F
:1016300030E0338B228B2AEC30E0358B248B2EEC80
:1016400030E0378B268B118E128E138E148EA8E706
:10165000B3E013961C921E92129714964D935D93CD
:101660006D937C93179711969C938E9385EC90E0E5
:101670001D969C938E931C9784EC90E01F969C93F0
:101680008E931E9780EC90E051969C938E9350978A
:1016900081EC90E053969C938E93529782EC90E06D
:1016A00055969C938E93549786EC90E057969C9316
:1016B0008E93569759961C9259975A961C925A9700
:1016C0005B961C925B975C961C92CDEBD4E088E70E
:1016D00092E099838883FB83EA831C8281E690E011
:1016E0000E94810EFC01E15AFF4FD183C083909389
:1016F000160480931504DF91CF910895CF93DF9363
:10170000CDB7DEB7C656D1090FB6F894DEBF0FBE0F
:10171000CDBF789484B5826084BD84B5816084BD7A
:1017200085B5826085BD85B5816085BD80916E007F
:10173000816080936E0010928100809181008260B0
:1017400080938100809181008160809381008091ED
:1017500080008160809380008091B10084608093DC
:10176000B1008091B00081608093B00080919100C1
:1017700082608093910080919100816080939100BC
:10178000809190008160809390008091A1008260A0
:101790008093A1008091A10081608093A10080913D
:1017A000A00081608093A0008091210182608093DD
:1017B000210180912101816080932101809120018C
:1017C00081608093200180917A00846080937A0008
:1017D00080917A00826080937A0080917A008160A3
:1017E00080937A0080917A00806880937A001092CA
:1017F000C100E0918803F091890312E01083E09129
:101800008403F09185031082E0918603F0918703B1
:101810008FEC808310929003E0918C03F0918D0304
:1018200086E08083E0918A03F0918B038081806160
:101830008083E0918A03F0918B03808188608083AC
:10184000E0918A03F0918B03808180688083E0912E
:101850008A03F0918B0380818F7D808383E892E0FF
:101860000E948506C0901504D09016042FE5C20E84
:10187000D11CD6018D919C91DC01ED91FC910190E0
:10188000F081E02D1995F60180819181DC01ED91C7
:10189000FC910280F381E02D1995C0901504D09041
:1018A0001604F601178F5601FFE5AF0EB11CD501E6
:1018B0008D919C917601BFE1EB0EF11CDC01ED9165
:1018C000FC910480F581E02D00E030E020E041E073
:1018D000B7011995882329F086E692E00E94460315
:1018E000FFCFF50180819181DC01ED91FC910680B3
:1018F000F781E02D28EE33E040E4B701199597FD1C
:10190000EBCFF601878C90A0982489249824B12CE1
:10191000A12CBA2CA92C982C882481A1882ABA2C15
:10192000A92C982C882482A1882A81149104A104CE
:10193000B10491F287E592E00E9446036B2D772770
:101940008827992740E10E94410680E892E00E94A2
:10195000340688E492E00E9446036A2D70E090E02D
:1019600080E04AE00E9441066EE288E793E00E9430
:10197000F902692D70E090E080E04AE00E944106A3
:1019800080E892E00E943406E0911504F09116047C
:1019900094E1978F81E080A391A382A37F012FE53B
:1019A000E20EF11CD7018D919C916F01BFE1CB0E2E
:1019B000D11CDC01ED91FC910480F581E02D00E06B
:1019C00030E020E044E0B601199581110EC0F70126
:1019D00080819181DC01ED91FC910680F781E02D01
:1019E00028EE33E040E4B601199530E1232E5E0184
:1019F000B1E4AB0EB11C82E992E00E948506109220
:101A00001F0410921E0428EE33E04EE154E067E11B
:101A100074E080911504909116040E94F4018823CB
:101A200009F4EFC080911E0490911F04049709F0FF
:101A300033C1C0901504D090160486E0ECE0F2E0CB
:101A4000DE01AF59BF4F01900D928A95E1F780E119
:101A5000E2E1F2E0DE01AF5ABF4F01900D928A95AC
:101A6000E1F7F501222D11922A95E9F7E2E2F2E081
:101A7000DE01D196822D01900D928A95E1F7CE017B
:101A80008F599F4F7C0100E010E0980144E067E12E
:101A900074E0C6010E94A60681110BC082E393E0A8
:101AA0000E94460380E892E00E9434068BEE92E0AA
:101AB000A6C080E1E2E3F2E0DE01919601900D9292
:101AC0008A95E1F780E1E2E4F2E0DE0151960190CF
:101AD0000D928A95E1F780E1E2E5F2E0DE011196F0
:101AE00001900D928A95E1F7AE014F5D5F4F61E085
:101AF000C6010E940E078823C9F0AE014F5E5F4FFA
:101B000062E0C6010E940E07882381F0AE014F5F9C
:101B10005F4F63E0C6010E940E0797E0392E24E074
:101B2000422E512C612C712C811103C08FE093E067
:101B3000B7CFDE01AF59BF4F7D019301820144E071
:101B400067E174E0C6010E94A606F82E882309F416
:101B50008DC0B4E04B16510409F07BC0AE014F5A62
:101B60005F4F64E0C6010E940E07811108C088EF34
:101B700092E00E94460384E090E00E949306A50153
:101B80006EEF630DC6010E940E07811108C08AEC3A
:101B900092E00E944603C20101960E949306A501AD
:101BA0006FEF630DC6010E940E07811108C083EB21
:101BB00092E00E944603C20102960E949306AE0183
:101BC0004F5C5F4F632DC6010E940E07811108C054
:101BD0008CE992E00E944603C20103960E9493069C
:101BE000F4E04F0E511C611C711C24E0320E83E4A2
:101BF00038129FCF8AEC92E0FF2009F457CF0E9461
:101C000085060E943A046B017C0188E8482E83E136
:101C1000582E612C712C0E943A046C197D098E0992
:101C20009F09683E734081059105A8F391E0491A28
:101C3000510861087108A8EECA0EA3E0DA1EE11C83
:101C4000F11C411451046104710429F70E948103BD
:101C5000D2CEA501642DC6010E940E0781118FCF3F
:101C600081EE92E00E944603C20187CFE4E0F0E0FB
:101C7000FA83E9838EE792E00E944603C2010E9444
:101C8000930628EE33E0AE014F5F5F4F67E174E0EB
:101C9000C6010E94F401A4CF8CE693E00E944603A3
:101CA00005CF80911504909116040C941D0FA1E2AC
:101CB0001A2EAA1BBB1BFD010DC0AA1FBB1FEE1FC6
:101CC000FF1FA217B307E407F50720F0A21BB30B11
:101CD000E40BF50B661F771F881F991F1A9469F78D
:101CE00060957095809590959B01AC01BD01CF01E9
:101CF0000895EE0FFF1F881F8BBF0790F691E02D10
:101D000019940F931F93CF93DF938230910510F4B2
:101D100082E090E0E091C404F091C50430E020E05E
:101D2000B0E0A0E0309799F42115310509F44AC0DC
:101D3000281B390B24303105D8F58A819B81611528
:101D4000710589F1FB0193838283FE0111C04081FB
:101D500051810281138148175907E0F0481759074C
:101D600099F4109761F012960C93129713961C93A6
:101D70003296CF01DF91CF911F910F91089500937B
:101D8000C4041093C504F4CF2115310551F0421756
:101D9000530738F0A901DB019A01BD01DF01F80109
:101DA000C1CFEF01F9CF9093C5048093C404CDCF88
:101DB000FE01E20FF31F8193919322503109398381
:101DC0002883D7CF2091C2043091C304232B41F440
:101DD00020910202309103023093C3042093C20485
:101DE00020910002309101022115310541F42DB7F7
:101DF0003EB74091040250910502241B350BE0913F
:101E0000C204F091C304E217F307A0F42E1B3F0BAA
:101E10002817390778F0AC014E5F5F4F241735075C
:101E200048F04E0F5F1F5093C3044093C204819348
:101E300091939FCFF0E0E0E09CCFCF93DF930097AA
:101E4000E9F0FC01329713821282A091C404B09190
:101E5000C504ED0130E020E01097A1F4208131812C
:101E6000820F931F2091C2043091C30428173907B1
:101E700009F061C0F093C304E093C204DF91CF91F5
:101E80000895EA01CE17DF07E8F54A815B819E01DC
:101E900041155105B1F7E901FB83EA834991599155
:101EA000C40FD51FEC17FD0761F480819181029664
:101EB000840F951FE90199838883828193819B8395
:101EC0008A83F0E0E0E012968D919C911397009741
:101ED000B9F52D913C911197CD010296820F931F78
:101EE0002091C2043091C3042817390739F630977E
:101EF00051F51092C5041092C404B093C304A0938A
:101F0000C204BCCFD383C28340815181840F951F0B
:101F1000C817D90761F44E5F5F4F88819981480FD8
:101F2000591F518340838A819B819383828321152A
:101F3000310509F0B0CFF093C504E093C4049ECFFF
:101F4000FD01DC01C0CF13821282D7CFFB01DC017F
:101F500004C08D910190801921F441505040C8F780
:101F6000881B990B0895FB01DC0102C001900D92C2
:101F700041505040D8F7089511E0C0ECD1E000E0A6
:101F800006C0802FFE010E94790E2196011DC13CE2
:0C1F9000D10780E00807A9F7F894FFCF04
:101F9C000000C60480000000FF00FF00FFFFFFFFF1
:101FAC00FFFF0303D00000FE000000000000000053
:101FBC000000D3F7D3F7D3F77F078840FFFFFFFF6D
:101FCC00FFFF140103E103E103E103E103E103E19A
:101FDC0003E103E103E103E103E103E103E103E1D5
:101FEC0003E1A0A1A2A3A4A5787788C1FFFFFFFFFE
:101FFC00FFFF00000000F902590286026103B702DC
:10200C009502A90200000000B605E705C8071C05EB
:10201C000D0A004E44454620466F726D617474651E
:10202C0072000A506C61636520616E20756E666F7C
:10203C00726D6174746564204D69666172652043CC
:10204C006C617373696320746167206F6E207468B0
:10205C0065207265616465722E000A537563636551
:10206C0073732C2074616720666F726D6174746574
:10207C0064206173204E4445462E000A466F726DF3
:0C208C006174206661696C65642E0000C0
:00000001FF
