:100000000C945D000C9485000C9485000C94850084
:100010000C9485000C9485000C9485000C9485004C
:100020000C9485000C9485000C9485000C9485003C
:100030000C9485000C9485000C9485000C9485002C
:100040000C9493040C9485000C9461040C943B0470
:100050000C9485000C9485000C9485000C9485000C
:100060000C94DD040C9485000000000800020100DF
:100070000003040700000000000000000000000072
:10008000250028002B0000000000240027002A0083
:10009000040404040404040402020202020203032E
:1000A0000303030301020408102040800102040836
:1000B0001020010204081020FC0511241FBECFEF00
:1000C000D8E0DEBFCDBF11E0A0E0B1E0E8E5F0E1AF
:1000D00002C005900D92AE36B107D9F722E0AEE628
:1000E000B1E001C01D92AE3DB207E1F710E0CDE5F1
:1000F000D0E004C02197FE010E942408CC35D1072E
:10010000C9F70E943B060C942A080C9400008091C9
:10011000BF019091C001891B990B0895089508951E
:10012000AF92BF92CF92DF92EF92FF920F931F9305
:10013000CF93DF936C017B018B01040F151FEB0143
:100140005E01AE18BF08C017D10759F06991D601FA
:10015000ED91FC910190F081E02DC6010995892B6C
:1001600079F7C501DF91CF911F910F91FF90EF902B
:10017000DF90CF90BF90AF900895FC01538D448DD8
:10018000252F30E0842F90E0821B930B541710F042
:10019000CF96089501970895FC01918D828D98174F
:1001A00061F0A28DAE0FBF2FB11D5D968C91928D27
:1001B0009F5F9F73928F90E008958FEF9FEF089558
:1001C000FC01918D828D981731F0828DE80FF11D21
:1001D000858D90E008958FEF9FEF0895FC01918D3C
:1001E000228D892F90E0805C9F4F821B91098F7335
:1001F0009927089583E392E00E94EE0021E0892B85
:1002000009F420E0822F089580E090E0892B29F006
:100210000E94FA0081110C9400000895FC01A48D45
:10022000A80FB92FB11DA35ABF4F2C91848D90E018
:1002300001968F739927848FA689B7892C93A089FB
:10024000B1898C91837080648C93938D848D981385
:1002500006C00288F389E02D80818F7D8083089518
:10026000EF92FF920F931F93CF93DF93EC0181E006
:10027000888F9B8D8C8D98131AC0E889F9898081AD
:1002800085FF15C09FB7F894EE89FF896083E889E0
:10029000F98980818370806480839FBF81E090E0D2
:1002A000DF91CF911F910F91FF90EF900895F62E5F
:1002B0000B8D10E00F5F1F4F0F731127E02E8C8DF9
:1002C0008E110CC00FB607FCFACFE889F98980813E
:1002D00085FFF5CFCE010E940E01F1CFEB8DEC0F23
:1002E000FD2FF11DE35AFF4FF0829FB7F8940B8F5B
:1002F000EA89FB8980818062CFCFCF93DF93EC01C5
:10030000888D8823B9F0AA89BB89E889F9898C91FD
:1003100085FD03C0808186FD0DC00FB607FCF7CFB9
:100320008C9185FFF2CF808185FFEDCFCE010E94B9
:100330000E01E9CFDF91CF91089590E0FC01E859DB
:10034000FF4F2491FC01EC55FF4F3491FC01E05725
:10035000FF4FE491EE23C9F0222339F0233001F15D
:10036000A8F4213019F1223029F1F0E0EE0FFF1F3F
:10037000E458FF4FA591B4918FB7F894EC916111B7
:1003800026C030953E233C938FBF08952730A9F0B7
:100390002830C9F0243049F7809180008F7D03C058
:1003A000809180008F7780938000DFCF84B58F7736
:1003B00084BDDBCF84B58F7DFBCF8091B0008F777C
:1003C0008093B000D2CF8091B0008F7DF9CF3E2BCB
:1003D000DACF3FB7F8948091B7019091B801A0911E
:1003E000B901B091BA0126B5A89B05C02F3F19F0FD
:1003F0000196A11DB11D3FBFBA2FA92F982F8827A5
:10040000BC01CD01620F711D811D911D42E0660F7F
:10041000771F881F991F4A95D1F7089520918F0162
:10042000260F3327331F21323105ECF420910902C6
:10043000FC0190E080E0243069F082E00895A09112
:100440008F012191AC0141595E4FA40FB52FB11D11
:100450002C930196861798F380918F01680F609313
:100460008F0180E0089581E008951092090281E0F3
:10047000809308021092E30161E082E10E949D01F5
:1004800061E083E10E949D01E9EBF0E080818E7FD5
:10049000808380818D7F808388E48093B80085E4A9
:1004A0008093BC000895CF93DF9391E090936E0109
:1004B0008823B9F0C091B800D091BA008091BC00F7
:1004C0008A7B8093BC0060E082E10E949D0160E035
:1004D00083E10E949D010E943502D093BA00C0932F
:1004E000B800DF91CF9108958F929F92AF92BF9203
:1004F000CF92DF92EF92FF920F931F93CF93DF93F0
:10050000D0913202D13208F0D7C0182FC0913102F9
:100510000E94E9016B017C018091090281116BC08D
:1005200082E080930902109308028FEF8093070204
:1005300010920602D0930502A1E1B2E0E5EEF1E0EF
:1005400080E0D81391C01092E4018091E401CC0FB7
:10055000C82BC093E4018091E301813009F088C089
:100560001092E3010E94E9016B017C018091E4019A
:100570008093BB0080910B0290910C02A0910D0220
:10058000B0910E02892B8A2B8B2BA1F00E94E901DE
:1005900000910B0210910C0220910D0230910E027D
:1005A0006C197D098E099F09061717072807390757
:1005B00008F442C08091BC0083FDD8CF85EC8093C5
:1005C000BC000E94E9016B017C018091090282302C
:1005D00009F450C0809107028F3F09F46FC08091E9
:1005E0000702803209F46CC080910702803309F45D
:1005F00069C084E026C080910B0290910C02A0910A
:100600000D02B0910E02892B8A2B8B2B09F484CF1B
:100610000E94E90180900B0290900C02A0900D02C4
:10062000B0900E026C197D098E099F0986169706F7
:10063000A806B90608F070CF80910A020E94530202
:1006400085E0109210021092320210920F02DF9198
:10065000CF911F910F91FF90EF90DF90CF90BF90BF
:10066000AF909F908F9008959D9191938F5F69CFE8
:1006700085EEA5CF80910B0290910C02A0910D0206
:10068000B0910E02892B8A2B8B2B09F49ECF0E94EE
:10069000E90100910B0210910C0220910D023091A2
:1006A0000E026C197D098E099F0906171707280786
:1006B000390708F08ACFC0CF81E0C3CF80E0C1CF37
:1006C00082E0BFCF83E0BDCF0895E091C00180916B
:1006D000BF01E81730F4F0E0EF53FE4F808190E067
:1006E00008958FEF9FEF08959091C0018091BF0111
:1006F0002FEF3FEF981748F4E92FF0E0EF53FE4F4C
:10070000208130E09F5F9093C001C9010895CF928E
:10071000DF92EF92FF920F931F93CF93DF937C01B1
:10072000CB018A0120910F02222389F0EB016B019A
:10073000C40ED51ECC15DD0569F06991D701ED9188
:10074000FC910190F081E02DC7010995F3CF642F52
:100750000E940E02C801DF91CF911F910F91FF906F
:10076000EF90DF90CF900895CF93DF931F92CDB796
:10077000DEB7698320910F022223F9F02091320223
:10078000203258F021E030E0FC013383228390E0F6
:1007900080E00F90DF91CF91089580911002E82FB3
:1007A000F0E0EF5EFD4F998190838F5F80931002A0
:1007B0008093320281E090E0ECCF61E0CE010196BF
:1007C0000E940E02F7CF90E080E00895CF93DF9370
:1007D000FC0101900020E9F73197AF01481B590B4C
:1007E000BC0183E392E00E949000EC0142E050E003
:1007F00064E271E083E392E00E9490008C0F9D1F01
:10080000DF91CF91089585ED8093BC0080910B021C
:1008100090910C02A0910D02B0910E020796A11DBD
:10082000B11D23E0B695A795979587952A95D1F7A1
:100830002091BC0024FD03C010920902089540914C
:100840000B0250910C0260910D0270910E02452B2B
:10085000462B472B69F30097A105B10541F02AE229
:100860002A95F1F700C00197A109B109E1CF809164
:100870000A020C9453021F920F920FB60F9211248A
:100880002F933F934F935F936F937F938F939F9398
:10089000AF93BF93EF93FF9383E392E00E940E0127
:1008A000FF91EF91BF91AF919F918F917F916F9148
:1008B0005F914F913F912F910F900FBE0F901F901E
:1008C00018951F920F920FB60F9211242F938F93AA
:1008D0009F93EF93FF93E0914302F0914402808154
:1008E000E0914902F0914A0282FD1BC09081809103
:1008F0004C028F5F8F7320914D02821741F0E0917F
:100900004C02F0E0ED5CFD4F958F80934C02FF911F
:10091000EF919F918F912F910F900FBE0F901F908D
:1009200018958081F4CF1F920F920FB60F92112469
:100930002F933F938F939F93AF93BF938091B30176
:100940009091B401A091B501B091B6013091B2017E
:1009500023E0230F2D3758F50196A11DB11D2093DB
:10096000B2018093B3019093B401A093B501B09309
:10097000B6018091B7019091B801A091B901B091F1
:10098000BA010196A11DB11D8093B7019093B801E2
:10099000A093B901B093BA01BF91AF919F918F918C
:1009A0003F912F910F900FBE0F901F90189526E842
:1009B000230F0296A11DB11DD2CF1F920F920FB629
:1009C0000F9211242F933F934F935F936F937F93D5
:1009D0008F939F93AF93BF93EF93FF938091B90051
:1009E000887F803609F44AC0F0F5883209F4A7C040
:1009F00018F5803109F49BC0B8F4882309F4F9C0D4
:100A0000883009F494C0FF91EF91BF91AF919F910D
:100A10008F917F916F915F914F913F912F910F90A7
:100A20000FBE0F901F901895883109F488C080324E
:100A300051F78093070214C0803409F49DC040F43C
:100A40008033B9F38833F9F68093070285ECB0C0A0
:100A5000803509F485C0883509F496C0883499F644
:100A60000E940304D0CF883909F48CC038F5883748
:100A700029F050F4883611F0803729F683E080930E
:100A800009021092B10157C0883809F47BC080393F
:100A900019F0803809F0B7CF8091B101803208F0A9
:100AA00071C0E091B10181E08E0F8093B10180911E
:100AB000BB00F0E0EF56FE4F80833DC0803B39F035
:100AC000E0F4803A09F479C0883A09F09CCF84E0D8
:100AD000809309021092900110928F01E091BD0164
:100AE000F091BE01099580918F0181110FC081E0C5
:100AF00080938F0110926F0109C0803C09F4A6CF4A
:100B0000883C09F4A3CF883B09F07DCFE0919001A8
:100B100081E08E0F80939001F0E0E159FE4F8081DB
:100B20008093BB009091900180918F0129C08091AA
:100B3000E4018093BB0085EC8093BC0064CF90916E
:100B4000060280910502981758F5E091060281E0AF
:100B50008E0F80930602F0E0EB51FE4F8081E9CFCB
:100B6000E091060281E08E0F809306028091BB0027
:100B7000F0E0EB51FE4F80839091060280910502D8
:100B80009817C8F285E8D8CFE091060281E08E0F71
:100B9000809306028091BB00F0E0EB51FE4F808312
:100BA0008091080281115CCF81E08093E30184EAA7
:100BB0008093BC001092090226CF85EC8093BC0084
:100BC000109209028091B101803230F4E091B101BC
:100BD000F0E0EF56FE4F10826091B10170E0E091BD
:100BE000BB01F091BC0181E991E009951092B1013E
:100BF0000ACF1092070234CFE3E3F2E013821282AD
:100C000088EE93E0A0E0B0E084839583A683B78369
:100C100024E031E03183208325EC30E035872487E0
:100C200024EC30E03787268720EC30E0318B208BB6
:100C300021EC30E0338B228B22EC30E0358B248B9F
:100C400026EC30E0378B268B118E128E138E148E8D
:100C5000E0EDF2E01382128284839583A683B7834A
:100C600086E191E09183808383E590E09093DD02BB
:100C70008093DC020895789484B5826084BD84B545
:100C8000816084BD85B5826085BD85B5816085BD87
:100C900080916E00816080936E001092810080913F
:100CA00081008260809381008091810081608093C7
:100CB0008100809180008160809380008091B100EC
:100CC00084608093B1008091B00081608093B00017
:100CD00080917A00846080937A0080917A008260AB
:100CE00080937A0080917A00816080937A0080916D
:100CF0007A00806880937A001092C100E0914302EC
:100D0000F091440282E08083E0913F02F091400242
:100D10001082E0914102F09142028FEC80831092A8
:100D20004B02E0914702F091480286E08083E09117
:100D30004502F0914602808180618083E091450206
:100D4000F0914602808188608083E0914502F091B5
:100D50004602808180688083E0914502F0914602DE
:100D600080818F7D8083E1EBF0E02491EDE9F0E07C
:100D70008491882399F090E0880F991FFC01EA572D
:100D8000FF4FA591B491FC01E458FF4F85919491D8
:100D90008FB7F894EC91E22BEC938FBF1092C001C7
:100DA0001092BF010E9435028EE890E09093BE0140
:100DB0008093BD018FE890E09093BC018093BB01CC
:100DC000D1E095EE792E25EC622E00E010E08091C6
:100DD000DC02D0930F028093310210921002109225
:100DE00032026FE180ED92E00E94B4036FEF80ED7C
:100DF00092E00E94B40381E00E947402C091DC0280
:100E0000D0930F02C093310210921002109232025E
:100E10000E94E9016B017C0180910902811162C08D
:100E2000D0930902D09308028FEF809307021092AB
:100E3000060210920502D093E4018091E401CC0FE8
:100E4000C82BC093E4018091E301813009F0CFC049
:100E50001092E3010E94E9016B017C018091E401A1
:100E60008093BB0080910B0290910C02A0910D0227
:100E7000B0910E02892B8A2B8B2BA1F00E94E901E5
:100E800080900B0290900C02A0900D02B0900E0288
:100E90006C197D098E099F0986169706A806B90662
:100EA00008F441C08091BC0083FDD8CF6092BC00A3
:100EB0000E94E9016B017C0180910902813009F4F3
:100EC00099C0809106028111B7C080910602A5EEFB
:100ED000B1E0E1ECF1E090E0981751F12D91219310
:100EE0009F5FFACF80910B0290910C02A0910D02AE
:100EF000B0910E02892B8A2B8B2B09F48DCF0E9487
:100F0000E90180900B0290900C02A0900D02B0902D
:100F10000E026C197D098E099F0986169706A80690
:100F2000B90608F079CF80910A020E94530280E04E
:100F30001092C0018093BF01CFE7882329F080ED94
:100F400092E00E947403C82F81E00E94740281E045
:100F5000CF3F09F080E08093E2019091E101891791
:100F6000A9F087E291E00E94E6038091E2018823E4
:100F700009F464C086E491E00E94E60361E08DE03C
:100F80000E949D018091E2018093E1010E94E901AC
:100F90004B015C0188E8C82E83E1D82EE12CF12CAE
:100FA0000E94E901681979098A099B09683E734022
:100FB00081059105A8F321E0C21AD108E108F108E2
:100FC00088EE880E83E0981EA11CB11CC114D104C8
:100FD000E104F10429F70115110509F4F8CE0E9486
:100FE000FA00882309F4F3CE0E940000F0CE70923C
:100FF000BC005ECF80910B0290910C02A0910D027B
:10100000B0910E02892B8A2B8B2B09F455CF0E94AD
:10101000E90180900B0290900C02A0900D02B0901C
:101020000E026C197D098E099F0986169706A8067F
:10103000B90608F041CF77CF81E049CF89E591E04B
:101040000E94E60360E09BCFEE0FFF1F0590F49136
:08105000E02D0994F894FFCF94
:101058000000000030019000BD007D01EE00CC00D2
:10106800E00000000000B4038703E3036403870083
:10107800740365030D0A006765742072656D6F74EB
:1010880065204E464320636F6E74726F6C207369DF
:10109800676E616C21006C65642077696C6C206CEC
:1010A8006967687420757021006C65642077696CC5
:0E10B8006C207475726E206461726B210000F2
:00000001FF
