:020000040000FA
:100000000C94A0010C94D1010C94D1010C94D10159
:100010000C94D1010C94D1010C94D1010C94D10118
:100020000C94D1010C94E80B0C94E80B0C94E80BA5
:100030000C94D1010C94D1010C94D1010C94D101F8
:100040000C94D1010C94D1010C94D1010C94D101E8
:100050000C94D1010C94D1010C94D1010C949E0B01
:100060000C94D1010C94680B0C943E0B0C94D101B0
:100070000C94D1010C94D1010C94D1010C94D101B8
:100080000C94D1010C94D1010C94D1010C94D101A8
:100090000C94080B0C94DE0A0C94D1010C94F20B16
:1000A0000C94D1010C94D1010C94D1010C94D10188
:1000B0000C94D1010C94D1010C94D1010C94D10178
:1000C0000C94D1010C94D1010C94D1010C94D10168
:1000D0000C94D1010C94D1010C94D1010C94D10158
:1000E0000C94D1010C94DB020C94A0030C94AE038D
:1000F0000C94A4030C9496030C9473030C940F02B9
:100100000C9458030C9473020C948E030C94D3013A
:100110000C9492030C9477030C946F030C94120DBF
:100120000C947B030C949C030C9431020C9473127A
:100130000C9461050C9400020C9488030C949604B2
:100140000C944A080C945D030C9423020C947E03D7
:100150000C9430050C94AA030C9484035741524E1E
:10016000494E473A20546F6F206D616E7920726559
:10017000636F7264732E20496E63726561736520CC
:100180004D41585F4E4445465F5245434F5244539C
:100190002E0000002200250028002B002E00310038
:1001A000340002010000050108010B0105050505E9
:1001B000070508080808020202020A0A08080404DF
:1001C000040401010101010101010303030303030D
:1001D0000303040707070C0C0C0C0C0C0C0C02029C
:1001E000020206060606060606060B0B0B0B0B0B99
:1001F0000B0B010210202008081020401020408026
:1002000002010201080402010102040810204080DA
:100210008040201008040201800402018040201068
:1002200008040201080402010102040810204080B1
:10023000010204081020408000000A0B02090C0D86
:100240000E08070304010000000000000000000089
:10025000000000000000000000000000000000009E
:10026000000000001211100000000000000000005B
:1002700000000000000000000000000000004669CF
:10028000726D77617265207665722E2000466F75FB
:100290006E64206368697020504E35004469646E56
:1002A00027742066696E6420504E35337820626F63
:1002B000617264004572726F722E204661696C65CE
:1002C0006420726561642070616765200057415247
:1002D0004E494E473A20546167206973206E6F740F
:1002E00020666F726D61747465642E005772697454
:1002F00065206661696C656420004572726F722EBC
:1003000020426C6F636B2041757468656E7469631D
:100310006174696F6E206661696C656420666F72D6
:1003200020004E6F2064726976657220666F7220BD
:10033000636172642074797065200000120D73127D
:1003400011241FBECFEFD1E2DEBFCDBF00E00CBF56
:1003500024E0A0EEB2E001C01D92AA3AB207E1F794
:1003600012E0A0E0B2E0ECEDF9E200E00BBF02C069
:1003700007900D92A03EB107D9F711E0CFE9D1E087
:1003800000E006C021970109802FFE010E949B1208
:10039000CE39D10780E00807A9F70E94970D0C9489
:1003A000DC140C940000AF92BF92CF92DF92EF92D8
:1003B000FF920F931F93CF93DF936C017B018B010F
:1003C000040F151FEB015E01AE18BF08C017D1075F
:1003D00059F06991D601ED91FC910190F081E02DE9
:1003E000C6011995892B79F7C501DF91CF911F912E
:1003F0000F91FF90EF90DF90CF90BF90AF90089556
:10040000FC01538D448D252F30E0842F90E0821B1A
:10041000930B541710F0CF96089501970895FC019F
:10042000918D828D981761F0A28DAE0FBF2FB11DF7
:100430005D968C91928D9F5F9F73928F90E008954F
:100440008FEF9FEF0895FC01918D828D981731F009
:10045000828DE80FF11D858D90E008958FEF9FEF5D
:100460000895FC01918D228D892F90E0805C9F4F33
:10047000821B91098F739927089584E094E00E946C
:10048000310221E0892B09F420E0822F08958CE5C8
:1004900093E00E94310221E0892B09F420E0822FB1
:1004A0000895FC01A48DA80FB92FB11DA35ABF4F09
:1004B0002C91848D90E001968F739927848FA68963
:1004C000B7892C93A089B1898C91837080648C93B7
:1004D000938D848D981306C00288F389E02D808166
:1004E0008F7D80830895EF92FF920F931F93CF9398
:1004F000DF93EC0181E0888F9B8D8C8D98131AC05F
:10050000E889F989808185FF15C09FB7F894EE8945
:10051000FF896083E889F9898081837080648083A2
:100520009FBF81E090E0DF91CF911F910F91FF90ED
:10053000EF900895F62E0B8D10E00F5F1F4F0F7395
:100540001127E02E8C8D8E110CC00FB607FCFACF50
:10055000E889F989808185FFF5CFCE010E9451029B
:10056000F1CFEB8DEC0FFD2FF11DE35AFF4FF08221
:100570009FB7F8940B8FEA89FB8980818062CFCF87
:100580000F931F93CF93DF938C01D0E0C0E0F8016D
:10059000EC0FFD1F6491662341F08CE593E00E940F
:1005A0007302892B11F02196F2CFCE01DF91CF910A
:1005B0001F910F910895CF93DF93EC01888D8823CD
:1005C000B9F0AA89BB89E889F9898C9185FD03C0B6
:1005D000808186FD0DC00FB607FCF7CF8C9185FF9B
:1005E000F2CF808185FFEDCFCE010E945102E9CF8D
:1005F000DF91CF91089580E090E0892B29F00E944F
:10060000470281110E94000080E090E0892B29F0D0
:100610000E943D0281110E94000080E090E0892B41
:1006200049F080E090E0892B29F00E9400008111C0
:100630000E94000080E090E0892B49F080E090E08B
:10064000892B29F00E94000081110C94000008956C
:10065000282F30E0F901E85CFD4F9491F901EE504C
:10066000FE4F449124553E4FF9012491222309F471
:1006700035C0992311F191509231F8F4E92FF0E04F
:100680008827EA5BFC4F8F4F0C949B1277037B0308
:1006900058036F0373035D037E03840388038E0393
:1006A000920396039C03A0035D03A403AA03AE0375
:1006B000809180008F7780938000E22FF0E0EE0F32
:1006C000FF1FEE56FE4FA591B4918FB7F894EC91B1
:1006D000611148C040954E234C938FBF089580917F
:1006E00080008F7DE8CF80918000877FE4CF84B544
:1006F0008F7784BDE2CF84B58F7DFBCF8091B00032
:100700008F778093B000D9CF8091B0008F7DF9CFE3
:10071000809190008F7780939000CFCF8091900050
:100720008F7DF9CF80919000877FF5CF8091A000D9
:100730008F778093A000C1CF8091A0008F7DF9CFEB
:100740008091A000877FF5CF809120018F778093E3
:100750002001B3CF809120018F7DF9CF80912001BE
:10076000877FF5CF4E2BB8CF3FB7F89480915803D1
:1007700090915903A0915A03B0915B0326B5A89BB1
:1007800005C02F3F19F00196A11DB11D3FBFBA2F23
:10079000A92F982F8827BC01CD01620F711D811DE3
:1007A000911D42E0660F771F881F991F4A95D1F768
:1007B000089520910703260F3327331F2132310577
:1007C000ECF420912B03FC0190E080E0243069F0F0
:1007D00082E00895A09107032191AC0149515D4F3A
:1007E000A40FB52FB11D2C930196861798F3809115
:1007F0000703680F6093070380E0089581E0089580
:1008000008958FEF9FEF08958FEF9FEF08958091E8
:10081000E00290E09195819591090895CF93DF933F
:10082000CB01EA01642F0E94D903CE01DF91CF9161
:100830000895CF93DF931F92CDB7DEB7698361E050
:10084000CE0101960E94D90381E090E00F90DF91E4
:10085000CF91089590E080E008952F923F924F92BB
:100860005F926F927F928F929F92AF92BF92CF9240
:10087000DF92EF92FF920F931F93CF93DF932C01A0
:100880001A0189013B01D0E0C0E06901F12CE12CA3
:10089000C215D30591F18FB7F894809054039090CE
:1008A0005503A0905603B09057038FBFD201129604
:1008B0008D919C91DC01ED91FC910284F385E02DFA
:1008C000199597FF2EC00115110581F32FB7F894E4
:1008D0008091540390915503A0915603B091570312
:1008E0002FBF88199909AA09BB098C159D05AE056A
:1008F000BF05E0F28EEF209709F08C2FDF91CF91AA
:100900001F910F91FF90EF90DF90CF90BF90AF902D
:100910009F908F907F906F905F904F903F902F901F
:100920000895F30181933F012196B2CFAF92BF9218
:10093000CF92DF92EF92FF920F931F93CF93DF93AB
:1009400000D01F921F92CDB7DEB77C01062FB72EC5
:10095000142F690143E050E0BE016F5F7F4F0E949A
:100960002D04181694F08EEF9FEF0F900F900F90BC
:100970000F900F90DF91CF911F910F91FF90EF900B
:10098000DF90CF90BF90AF9008958981882319F0B0
:100990008DEF9FEFEACF8A818111FACF8B818F3F54
:1009A000B9F7960142E050E0BE016C5F7F4FC7018E
:1009B0000E942D041816BCF68C819D81980F41F77A
:1009C00082508C83181708F448C0F7011481AA24B8
:1009D000A394A10E960142E050E0BE016F5F7F4FED
:1009E000C7010E942D0418160CF0BDCF8981853DEA
:1009F00079F68A818A11CCCF4C8150E09601602F24
:100A00007B2DC7010E942D042C81082E000C990B10
:100A10002817190609F0A7CF1A52902FE02FFB2DA7
:100A20008E2F891B821718F48191180FF9CF960128
:100A300042E050E0BE016F5F7F4FC7010E942D046E
:100A400018160CF090CF8981180F09F0A1CF8A8178
:100A500081119ECF8C8190E088CF8CEF9FEF85CF66
:100A6000DC011296ED91FC91A089B18982E08C9312
:100A7000A485B5851C92A685B78580E18C93108EE0
:100A8000A489B58986E08C93A289B3898C91806111
:100A90008C93A289B3898C9188608C93A289B38945
:100AA0008C9180688C930288F389E02D80818F7D02
:100AB00080830895DC01ED91FC910190F081E02D9F
:100AC0001994CF93DF93EC0165E570E08A819B81F7
:100AD0000E945A0565E570E08A819B810E945A0553
:100AE0008A819B81DC01ED91FC910190F081E02DE8
:100AF00060E019958A819B81DC01ED91FC91019068
:100B0000F081E02D60E019958A819B81DC01ED91F7
:100B1000FC910190F081E02D60E019958A819B8124
:100B2000DC01ED91FC910084F185E02D19958A811D
:100B30009B81DC01ED91FC910084F185E02D1995FC
:100B4000892B49F08A819B81DC01ED91FC91028423
:100B5000F385E02DEBCFDF91CF9108950F931F9395
:100B6000CF93DF93FC01A4A9B5A9D0E0C0E090E049
:100B700080E0AC17BD07F1F06381748143E050E081
:100B80006F3F710519F014F046E050E02581368181
:100B90002115310511F04F5F5F4F01811281200F48
:100BA000311F260F371F240F351F820F931F2196E9
:100BB0003D96DFCFDF91CF911F910F910895FC01FA
:100BC00001900020E9F73197AF01481B590BBC0198
:100BD0008CE593E00C94D3018F929F92AF92BF92D9
:100BE0000F931F93CF93DF93CDB7DEB7A1970FB6C7
:100BF000F894DEBF0FBECDBF19A2423008F44AE020
:100C00008E010F5D1F4F842E912CB12CA12CA501BC
:100C100094010E947912E62FB901CA01EA30F4F476
:100C2000E05DD801EE938D01232B242B252B79F742
:100C300090E080E0109719F0CD010E94DF05A196A9
:100C40000FB6F894DEBF0FBECDBFDF91CF911F91DD
:100C50000F91BF90AF909F908F900895E95CE1CF86
:100C6000CF93DF930E94DF05EC0180E392E00E94C6
:100C7000DF058C0F9D1FDF91CF910895CF92DF92FA
:100C8000EF92FF92CF93DF936C01990FEE08FF086C
:100C9000F7FE1FC06DE28CE593E00E947302EC0149
:100CA00066277727CB016C197D098E099F094AE0D9
:100CB0000E94EC05C80FD91F80E392E00E94DF0577
:100CC0008C0F9D1FDF91CF91FF90EF90DF90CF9021
:100CD00008954AE0C701B6010E94EC05EC01ECCF93
:100CE000AF92BF92CF92DF92EF92FF920F93CF938A
:100CF000DF93EC016A0180E48F8F81E088A380E3B9
:100D000089A36AA35E012FE5A20EB11CD5018D91C6
:100D10009C917E01BFE1EB0EF11CDC01ED91FC9199
:100D20000480F581E02D00E030E020E044E0B701F0
:100D30001995882359F080E0DF91CF910F91FF90B2
:100D4000EF90DF90CF90BF90AF900895F501808134
:100D50009181DC01ED91FC910680F781E02D28EE78
:100D600033E040E4B70119958F8D8111E4CFFE0186
:100D7000B09684E0D60101900D928A95E1F781E06A
:100D8000DBCFAF92BF92CF92DF92EF92FF920F93A1
:100D90001F93CF93DF936C018B01EC0130E020E0D7
:100DA000F60144A955A92417350708F078C0790140
:100DB000FFEFEF1AFF0A8881232B09F480684E1594
:100DC0005F0509F480642B813C812F3F310509F0D8
:100DD0000CF4806190E02D813E81232B09F0886026
:100DE000F8018083898181838B819C818F3F91056C
:100DF00011F00CF049C082835801F3E0AF0EB11C32
:100E00008D819E81009719F0F50181935F016F81BB
:100E1000788549815A81C5010E94B61489819A81D9
:100E2000A80EB91E4D815E814115510549F06B85B3
:100E30007C85C5010E94B6148D819E81A80EB91EC5
:100E400069857A854B815C81C5010E94B6144B810E
:100E50005C8123E030E04F3F510519F014F026E0AB
:100E600030E08D819E81009711F02F5F3F4F6981A7
:100E70007A81860F971F840F951F820F931F080F8B
:100E8000191F2D9697018CCF128213828C81848337
:100E90008B8185835801F6E0AF0EB11CB1CFDF9195
:100EA000CF911F910F91FF90EF90DF90CF90BF9067
:100EB000AF900895FC0180819181009711F00C940E
:100EC0003F130895CF93DF93EC0189819A81892B99
:100ED00021F08F8198850E943F138B819C81892B03
:100EE00021F089859A850E943F138D819E81892BEF
:100EF00031F08B859C85DF91CF910C943F13DF916E
:100F0000CF9108950F931F93CF93DF93EC018881C6
:100F10009981009759F02A813B812617370730F0D5
:100F200081E0DF91CF911F910F9108958B016F5F49
:100F30007F4F0E94C813009759F0998388831B83C1
:100F40000A832C813D81232B59F7FC011082E8CFC5
:100F500080E0E7CFEF92FF920F931F93CF93DF9341
:100F6000EC017B018A01BA010E9482072881398144
:100F7000811114C02115310519F0C9010E943F13D8
:100F8000198218821D821C821B821A82CE01DF9177
:100F9000CF911F910F91FF90EF9008951D830C83C7
:100FA000B701C9010E94C614F1CF1F93CF93DF93FD
:100FB00085ED8093BC008091E3029091E402A091C2
:100FC000E502B091E6020796A11DB11D23E0B6959A
:100FD000A795979587952A95D1F72091BC0024FD78
:100FE00003C010922B0352C04091E3025091E402DF
:100FF0006091E5027091E602452B462B472B69F381
:101000000097A105B10541F02AE22A95F1F700C049
:101010000197A109B109E1CF8091E202C1E0C0933B
:10102000E102882399F1D091B8001091BA00809123
:10103000BC008A7B8093BC0060E084E10E942803AE
:1010400060E085E10E94280310922B03C0932D03DA
:1010500010922C0361E084E10E94280361E085E1A5
:101060000E9428038091B9008E7F8093B9008091FF
:10107000B9008D7F8093B90088E48093B80085E43F
:101080008093BC001093BA00D093B800DF91CF9149
:101090001F9108959F92AF92BF92CF92DF92EF92ED
:1010A000FF920F931F93CF93DF93CDB7DEB72C97AB
:1010B0000FB6F894DEBF0FBECDBF7C016B01942E3E
:1010C000B22EA32EDC0112968D919C91DC01ED9144
:1010D000FC910084F185E02D1995F70182819381BF
:1010E000DC01ED91FC910084F185E02D1995F7016B
:1010F000A281B381892B41F0ED91FC91119702847B
:10110000F385E02DCD01E8CFF6018081F7018483DE
:10111000ED91FC9111970190F081E02D60E0CD01FF
:101120001995D70112968D919C91DC01ED91FC915E
:101130000190F081E02D60E01995F70182819381A3
:10114000DC01ED91FC910190F081E02D6FEF19959C
:1011500061E0600F162F190DF70182819381DC0188
:10116000ED91FC910190F081E02D612F1995612F97
:1011700070E0719561957109F701828193810E94F8
:101180005A0564ED70E0D70112968D919C910E94F2
:101190005A05F70182819381492D50E0DC01ED91E0
:1011A000FC910280F381E02DB60119959C2DF6018A
:1011B00014ED8E2F891B891518F48191180FF9CF22
:1011C000F70182819381402F50E0DC01ED91FC9189
:1011D0000280F381E02D6B2D7A2D19959B2DEB2D3F
:1011E000FA2D8E2F891B801718F48191180FF9CFD3
:1011F000F70182819381612F6195DC01ED91FC9172
:101200000190F081E02D1995F70182819381DC0135
:10121000ED91FC910190F081E02D60E0199586E060
:10122000E6E0F2E0DE01179601900D928A95E1F773
:101230002AE030E046E050E0BE016F5F7F4FC7011B
:101240000E942D0418160CF546E050E0BE01695FBF
:101250007F4FCE0101960E94A91421E0892B09F449
:1012600020E0822F81952C960FB6F894DEBF0FBE3A
:10127000CDBFDF91CF911F910F91FF90EF90DF9045
:10128000CF90BF90AF909F9008958EEFECCF2F92AC
:101290003F924F925F926F927F928F929F92AF9206
:1012A000BF92CF92DF92EF92FF920F931F93CF9353
:1012B000DF93CDB7DEB72C970FB6F894DEBF0FBE25
:1012C000CDBF7C016B012DB63EB68DE090E00E9453
:1012D000A3128C01FC0114821382168215821286DD
:1012E00011861486138681E0808381E090E00E945D
:1012F000A312F8019087878325E5FC01208381E014
:1013000090E0F801928381831A8219821C821B82E9
:101310001E821D8241E050E063E372E0CE0101963F
:101320000E94AA07F601A080B180A114B10409F4BB
:101330002FC1C480D580C114D104B9F08D819E81A4
:10134000C80ED91EB601CE0101960E9482078823DD
:1013500009F41EC129813A818D819E81B501820FD8
:10136000931F0E94C614DE82CD8218861F821A86C1
:1013700019861C861B8669817A816115710531F099
:101380004D815E81CE0107960E94AA07CE0101968B
:101390000E945A07CB84DC84C60101962DB73EB764
:1013A000281B390B0FB6F8943EBF0FBE2DBF8DB76B
:1013B0009EB701965C01C60101978E3F9F4F50F486
:1013C0006F817885A601C5010E94CD14F501EC0D51
:1013D000FD1D1082F5011082F80183819481892B13
:1013E00021F0818592850E943F13C6010E94A312BD
:1013F000F80192878187A601B5010E94B614F80111
:10140000D482C382F701C4A8D5A8F4E0CF16D104D2
:1014100008F0CBC08DE08C9DF0018D9DF00D112466
:10142000EE0DFF1D0E171F0709F481C08181928107
:10143000892B21F0878190850E943F138DE08C9D40
:10144000F0018D9DF00D1124EE0DFF1D838194811F
:10145000892B21F0818592850E943F138DE08C9D20
:10146000F0018D9DF00D1124EE0DFF1D85819681FB
:10147000892B21F0838594850E943F138DE08C9DFC
:1014800020018D9D500C11244E0C5F1CF8018081B1
:10149000F2018083F80161807280F20172826182C0
:1014A000F80183809480F20194828382F801A58000
:1014B000B680F201B682A5826114710461F0C301A5
:1014C0000E94A312F20190878783F80167817085DB
:1014D000A3010E94B6148114910499F0C4010E94E2
:1014E000A3122DE02C9DF0012D9DF00D1124EE0D89
:1014F000FF1D92878187F80161857285A4010E9492
:10150000B614A114B10499F0C5010E94A3122DE0F4
:101510002C9DF0012D9DF00D1124EE0DFF1D9487E3
:101520008387F80163857485A5010E94B614F701CD
:1015300084A995A9019695AB84AB0115110531F0ED
:10154000C8010E946207C8010E943F13CE0107969E
:101550000E945A070FB6F8943EBE0FBE2DBE2C96C1
:101560000FB6F894DEBF0FBECDBFDF91CF911F91B4
:101570000F91FF90EF90DF90CF90BF90AF909F9032
:101580008F907F906F905F904F903F902F90089535
:1015900089819A81009711F00E943F131A82198263
:1015A0001E821D821C821B82E0CE8CE591E00E948F
:1015B000C00280E392E00E94DF05BFCF1F920F922E
:1015C0000FB60F9211240BB60F922F933F934F93A8
:1015D0005F936F937F938F939F93AF93BF93EF939B
:1015E000FF9384E094E00E945102FF91EF91BF913C
:1015F000AF919F918F917F916F915F914F913F91AB
:101600002F910F900BBE0F900FBE0F901F9018954B
:101610001F920F920FB60F9211240BB60F922F93B9
:101620008F939F93EF93FF93E0911404F09115042F
:101630008081E0911A04F0911B0482FD1DC090810D
:1016400080911D048F5F8F7320911E04821741F0DB
:10165000E0911D04F0E0EC5FFB4F958F80931D043B
:10166000FF91EF919F918F912F910F900BBE0F9053
:101670000FBE0F901F9018958081F2CF1F920F928E
:101680000FB60F9211240BB60F922F933F934F93E7
:101690005F936F937F938F939F93AF93BF93EF93DA
:1016A000FF938CE593E00E945102FF91EF91BF916F
:1016B000AF919F918F917F916F915F914F913F91EA
:1016C0002F910F900BBE0F900FBE0F901F9018958B
:1016D0001F920F920FB60F9211240BB60F922F93F9
:1016E0008F939F93EF93FF93E0916C03F0916D03C1
:1016F0008081E0917203F091730382FD1DC090819F
:10170000809175038F5F8F7320917603821741F06C
:10171000E0917503F0E0E45AFC4F958F80937503D8
:10172000FF91EF919F918F912F910F900BBE0F9092
:101730000FBE0F901F9018958081F2CF1F920F92CD
:101740000FB60F9211242F933F938F939F93AF93D4
:10175000BF938091540390915503A0915603B0918B
:1017600057033091530323E0230F2D3758F501968B
:10177000A11DB11D209353038093540390935503EF
:10178000A0935603B0935703809158039091590347
:10179000A0915A03B0915B030196A11DB11D8093E6
:1017A000580390935903A0935A03B0935B03BF91DE
:1017B000AF919F918F913F912F910F900FBE0F90FE
:1017C0001F90189526E8230F0296A11DB11DD2CFB8
:1017D0001F920F920FB60F9211240F900FBE0F9011
:1017E0001F9018951F920F920FB60F9211240BB6EF
:1017F0000F922F933F934F935F936F937F938F93AA
:101800009F93AF93BF93EF93FF938091B900887F2D
:10181000803609F44DC008F040C0883209F4A7C0F2
:1018200028F5803109F49BC0C8F4882309F4F7C077
:10183000883009F494C0FF91EF91BF91AF919F91CF
:101840008F917F916F915F914F913F912F910F9069
:101850000BBE0F900FBE0F901F901895883109F4A2
:1018600086C0803241F780932A0314C0803409F483
:101870009BC040F48033B9F38833E9F680932A03A0
:1018800085ECAEC0803509F483C0883509F494C076
:10189000883489F60E94D507CECF883909F48AC0EA
:1018A00038F5883729F050F4883611F0803719F66A
:1018B00083E080932B031092290355C0883809F4E4
:1018C00079C0803919F0803809F0B5CF80912903AB
:1018D000803208F06FC0E091290381E08E0F809381
:1018E00029038091BB00F0E0E75FFC4F80833BC0A1
:1018F000803B39F0D0F4803A09F477C0883A09F097
:101900009ACF84E080932B03109208031092070370
:10191000F0E0E0E019958091070381110FC081E0AC
:10192000809307031092E70209C0803C09F4A8CF16
:10193000883C09F4A5CF883B09F07DCFE0910803EE
:1019400081E08E0F80930803F0E0E951FD4F808124
:101950008093BB00909108038091070329C0809178
:1019600050038093BB0085EC8093BC0064CF9091C2
:101970004F0380914E03981758F5E0914F0381E093
:101980008E0F80934F03F0E0E25DFC4F8081E9CF42
:10199000E0914F0381E08E0F80934F038091BB0055
:1019A000F0E0E25DFC4F808390914F0380914E0305
:1019B0009817C8F285E8D8CFE0914F0381E08E0FE9
:1019C00080934F038091BB00F0E0E25DFC4F808389
:1019D00080912D0381115ECF81E080932C0384EAF6
:1019E0008093BC0010922B0326CF85EC8093BC0023
:1019F00010922B0380912903803230F4E091290367
:101A0000F0E0E75FFC4F10826091290370E089E00D
:101A100093E0F0E0E0E01995109229030CCF1092CA
:101A20002A0338CFCF93DF93E4E0F4E013821282ED
:101A300048EE53E060E070E044835583668377832B
:101A400086E192E0918380832DEC30E03587248716
:101A50002CEC30E03787268728EC30E0318B208B68
:101A600029EC30E0338B228B2AEC30E0358B248B51
:101A70002EEC30E0378B268B118E128E138E148E47
:101A8000ACE5B3E013961C921E92129714964D93F8
:101A90005D936D937C93179711969C938E9385EC31
:101AA00090E01D969C938E931C9784EC90E01F967B
:101AB0009C938E931E9780EC90E051969C938E930E
:101AC000509781EC90E053969C938E93529782ECC2
:101AD00090E055969C938E93549786EC90E05796A1
:101AE0009C938E93569759961C9259975A961C928E
:101AF0005A975B961C925B975C961C92C1EAD4E065
:101B000088E292E099838883FB83EA831C8281E6E2
:101B100090E00E94A312FC01E15AFF4FD183C083E1
:101B20009093FA038093F903DF91CF910895CF93B7
:101B3000DF93CDB7DEB7CA54D1090FB6F894DEBF34
:101B40000FBECDBF789484B5826084BD84B58160BA
:101B500084BD85B5826085BD85B5816085BD809178
:101B60006E00816080936E001092810080918100F0
:101B700082608093810080918100816080938100E8
:101B8000809180008160809380008091B1008460AA
:101B90008093B1008091B00081608093B00080910B
:101BA0009100826080939100809191008160809388
:101BB0009100809190008160809390008091A100BD
:101BC00082608093A1008091A10081608093A10038
:101BD0008091A00081608093A000809121018260AB
:101BE0008093210180912101816080932101809166
:101BF000200181608093200180917A00846080932D
:101C00007A0080917A00826080937A0080917A00D5
:101C1000816080937A0080917A00806880937A0056
:101C20001092C100E0916C03F0916D0372E0F72E09
:101C3000F082E0916803F09169031082E0916A03F9
:101C4000F0916B038FEC808310927403E09170032A
:101C5000F091710386E08083E0916E03F0916F0351
:101C6000808180618083E0916E03F0916F038081B9
:101C700088608083E0916E03F0916F0380818068BB
:101C80008083E0916E03F0916F0380818F7D80836C
:101C900085E392E00E9430060091F9031091FA0367
:101CA000015A1F4FD8018D919C91DC01ED91FC915F
:101CB0000190F081E02D1995F80180819181DC017E
:101CC000ED91FC910280F381E02D1995A090F9032C
:101CD000B090FA03F501F78E6501FFE5CF0ED11C38
:101CE000D6018D919C917501BFE1EB0EF11CDC01D9
:101CF000ED91FC910480F581E02D00E030E020E0E2
:101D000041E0B7011995882329F08CE992E00E94FF
:101D1000C002FFCFF60180819181DC01ED91FC9141
:101D20000680F781E02D28EE33E040E4B7011995F5
:101D300097FDEBCFF501C78CD0A0DC24CD24DC24AB
:101D4000F12CE12CFE2CED2CDC2CCC2481A1C82A1A
:101D5000FE2CED2CDC2CCC2482A1C82AC114D10489
:101D6000E104F10491F28DE892E00E94C0026F2D2F
:101D700077278827992740E10E94EC0580E392E0CD
:101D80000E94DF058EE792E00E94C0026E2D70E097
:101D900090E080E04AE00E94EC056EE28CE593E082
:101DA0000E9473026D2D70E090E080E04AE00E9496
:101DB000EC0580E392E00E94DF05E091F903F091E9
:101DC000FA0394E1978F81E080A391A382A36F012E
:101DD0002FE5C20ED11CD6018D919C917F01BFE1F0
:101DE000EB0EF11CDC01ED91FC910480F581E02DFE
:101DF00000E030E020E044E0B701199581110EC009
:101E0000F60180819181DC01ED91FC910680F781E2
:101E1000E02D28EE33E040E4B7011995FE01F59678
:101E2000FEAFEDAF81E492E00E9430061092030411
:101E300010920204E090F903F090FA03EAE4D7016B
:101E40005F96EC935F97F1E09096FC939097919654
:101E50001C9257012FE5A20EB11CD5018D919C91CA
:101E60006701BFE1CB0ED11CDC01ED91FC91048038
:101E7000F581E02D00E030E020E043E0B601199567
:101E8000811110C2F50180819181DC01ED91FC91FD
:101E90000680F781E02D28EE33E040E4B601199585
:101EA00097FD00C2F701878D813009F0FBC184A145
:101EB0008093020480E0D70194969C91891760F486
:101EC000282F30E0F701E20FF31F95A125503C4F7A
:101ED000F90190838F5FEFCFFE0131962F011082C1
:101EE0001282118214821382168215821086178242
:101EF00012861186148613863D962DAD3EAD2E17A3
:101F00003F0769F71EAA1DAA18AE1FAA1AAE19AE7E
:101F10001CAE1BAE4AE150E068E872E0CE01C79605
:101F20000E94AA07BE01695C7F4FC2010E94470957
:101F3000CE01C7960E945A07809102049091030433
:101F400026969FAF8EAF26972090F9033090FA0324
:101F5000049709F0CFC1ADB7BEB72496BFAFAEAFFF
:101F60002497C2010E94AE058C017C01B1E0EB1AFE
:101F7000F108EDB7FEB7E81BF90B0FB6F894FEBFFA
:101F80000FBEEDBF2DB73EB72F5F3F4F6901B901BF
:101F9000C2010E94C10648010F3F11050CF0A9C003
:101FA00033E0830E911CC4018F709927892B51F067
:101FB00097FE03C09FE0890E911CA0EF8A22F401D6
:101FC00070964F012DB73EB7281939090FB6F8940E
:101FD0003EBF0FBE2DBF8DB79EB701965C01A40119
:101FE00070E060E00E94BF1481E08E0DEA0CFB1CE3
:101FF00093E0D5019C930F3F110508F07EC0119628
:102000008C93A801B601C50102960E94B6148EEF0A
:10201000F701838386E0ECE0F2E0DE01D7960190E1
:102020000D928A95E1F734E0E32EF12C712C612CAE
:102030002101F3E24F0E511C9101285F3F4F28967A
:102040003FAF2EAF289710E42B962FAE2B97C101F0
:10205000815A9F4F22969FAF8EAF229761019FE1D9
:10206000C90ED11C6814790408F0FFC081E0970103
:10207000A0E8EA16F1040CF053C023703327232B99
:1020800009F080E0EFAE882309F489C086E0FE0104
:10209000F7962896AEADBFAD289701900D928A9520
:1020A000E1F744E050E06BEF73E0C1010E94B61429
:1020B00025962FAD2597F1012783178F31E030A3A7
:1020C00080E681A3E2A286E02896EEADFFAD2897D8
:1020D000D20101900D928A95E1F7F1018E2F2B9696
:1020E0009FAD2B97891BA4E08A17E8F4819180A704
:1020F000F5CF85E0880E911C56CF9FEF11969C93EB
:10210000119712961C93129713968C93A801B601FF
:10211000C50104960E94B6148EEFF70185837ACF2D
:102120002F703327ACCF2296EEADFFAD2297808182
:102130009181DC01ED91FC910480F581E02D00E0BE
:1021400030E020E04EE0B6011995882399F08AEF3F
:1021500092E00E94C002C7010E943E062496EEADA6
:10216000FFAD24970FB6F894FEBF0FBEEDBF82ED12
:1021700092E086C02296AEADBFAD22978D919C9124
:10218000DC01ED91FC910680F781E02D28EE33E033
:1021900040E4B6011995F101878D8111D8CFD101A5
:1021A0005F961C935F97E1E09096EC939097F0EA2E
:1021B0009196FC9391972FAD92962C9380E1F50127
:1021C000E60DF71DD20101900D928A95E1F7229656
:1021D000AEADBFAD22978D919C91DC01ED91FC914C
:1021E0000480F581E02D00E030E020E044E1B6011C
:1021F0001995882319F08CEE92E0ABCF2296AEAD04
:10220000BFAD22978D919C91DC01ED91FC910680F0
:10221000F781E02D28EE33E040E4B6011995181659
:1022200019064CF7B0E16B0E711C97012F5F3F4F01
:10223000C901032E000CAA0BBB0B0196A11DB11DF9
:10224000203831056CF483709927AA27BB27892B86
:102250008A2B8B2B19F497012E5F3F4F790102CF08
:102260008F709927AA27BB27F2CF2496EEADFFAD3A
:1022700024970FB6F894FEBF0FBEEDBF83EA92E03D
:102280000E943006CE0188960E946207CE014B96CE
:102290000E946207CE010E960E946207CE0101964F
:1022A0000E9462070E94B4036B017C0188E8882EBB
:1022B00083E1982EA12CB12C0E94B4036C197D09E6
:1022C0008E099F09683E734081059105A8F3E1E0FE
:1022D0008E1A9108A108B108F8EECF0EF3E0DF1EC8
:1022E000E11CF11C81149104A104B10429F70E949E
:1022F000FB0298CD6DB67EB6AE01495C5F4F64E0DF
:10230000C1010E9470068823A9F08FA98F3F09F5AB
:1023100088AD8F3FF1F489AD8F3FD9F48AAD8F3FFF
:10232000C1F48DEC92E00E94C00280E392E00E9432
:10233000DF051DCF84EB92E00E94C0024AE064E01A
:1023400070E080E090E00E94EC0580E392E00E9463
:10235000DF05AE01495C5F4F63E0C1010E9470067A
:10236000882349F089AD98E0899F900111242A962D
:102370003FAF2EAF2A97C2010E94AE058C0122E02A
:10238000822E912C8F3F910518F094E0892E912C8C
:102390005801A80CB91C7501AFEFEA1AFA0A9701A7
:1023A00023703327232B29F0BCEFEB22E4E0EE0E61
:1023B000F11C2A962EAD3FAD2A972E153F0508F445
:1023C0006BC0ADB7BEB7AE19BF090FB6F894BEBFAC
:1023D0000FBEADBFEDB7FEB731966F0193E011961A
:1023E0009C930F3F110508F05DC08183B601680D15
:1023F000791DC2010E94C106A70148195909401B55
:10240000510BAC0CBD1C70E060E0C5010E94BF1414
:102410008EEFD5018C9314E0B12CA12CF101B39671
:102420002296FFAFEEAF22972101FFE54F0E511C20
:1024300041012FE1820E911CF601EA0DFB1DAE1445
:10244000BF0408F04AC020E4D1015F962C935F9747
:1024500031E090963C93909782EA91968C93919775
:1024600092961C9384E02296AEADBFAD2297019068
:102470000D928A95E1F7D2018D919C91DC01ED914D
:10248000FC910480F581E02D00E030E020E048E0A0
:10249000B4011995882359F00FB6F8947EBE0FBE8B
:1024A0006DBE65CE9FEF9183128383839FCFF20130
:1024B00080819181DC01ED91FC910680F781E02D16
:1024C00028EE33E040E4B40119951816190624F7F4
:1024D0001F5FB4E0AB0EB11CAFCF0FB6F8947EBE59
:1024E0000FBE6DBECBCE8091F9039091FA030C9490
:1024F0003F13A1E21A2EAA1BBB1BFD010DC0AA1F90
:10250000BB1FEE1FFF1FA217B307E407F50720F05C
:10251000A21BB30BE40BF50B661F771F881F991FD7
:102520001A9469F760957095809590959B01AC0120
:10253000BD01CF010895EE0FFF1F881F8BBF0790CD
:10254000F691E02D19940F931F93CF93DF93823070
:10255000910510F482E090E0E091A804F091A904C4
:1025600030E020E0B0E0A0E0309799F4211531058B
:1025700009F44AC0281B390B24303105D8F58A816B
:102580009B816115710589F1FB0193838283FE01B3
:1025900011C0408151810281138148175907E0F031
:1025A0004817590799F4109761F012960C931297F7
:1025B00013961C933296CF01DF91CF911F910F910B
:1025C00008950093A8041093A904F4CF21153105B0
:1025D00051F04217530738F0A901DB019A01BD0100
:1025E000DF01F801C1CFEF01F9CF9093A9048093E7
:1025F000A804CDCFFE01E20FF31F819391932250E7
:10260000310939832883D7CF2091A6043091A704BC
:10261000232B41F420910202309103023093A7044E
:102620002093A6042091000230910102211531056A
:1026300041F42DB73EB74091040250910502241B8E
:10264000350BE091A604F091A704E217F307A0F47C
:102650002E1B3F0B2817390778F0AC014E5F5F4FF8
:102660002417350748F04E0F5F1F5093A70440937F
:10267000A604819391939FCFF0E0E0E09CCFCF93AD
:10268000DF930097E9F0FC01329713821282A09148
:10269000A804B091A904ED0130E020E01097A1F466
:1026A00020813181820F931F2091A6043091A704CD
:1026B0002817390709F061C0F093A704E093A60436
:1026C000DF91CF910895EA01CE17DF07E8F54A813F
:1026D0005B819E0141155105B1F7E901FB83EA8356
:1026E00049915991C40FD51FEC17FD0761F4808102
:1026F00091810296840F951FE901998388838281D5
:1027000093819B838A83F0E0E0E012968D919C9107
:1027100013970097B9F52D913C911197CD01029631
:10272000820F931F2091A6043091A7042817390720
:1027300039F6309751F51092A9041092A804B0937D
:10274000A704A093A604BCCFD383C2834081518148
:10275000840F951FC817D90761F44E5F5F4F8881BA
:102760009981480F591F518340838A819B819383AC
:1027700082832115310509F0B0CFF093A904E093CD
:10278000A8049ECFFD01DC01C0CF13821282D7CFF7
:102790004F925F926F927F928F929F92AF92BF9271
:1027A000CF92DF92EF92FF920F931F93CF93DF931D
:1027B0008C01009799F4CB01DF91CF911F910F917C
:1027C000FF90EF90DF90CF90BF90AF909F908F9051
:1027D0007F906F905F904F900C94A312FC01E60FD6
:1027E000F71F9C0122503109E217F30708F4AEC02D
:1027F000D901CD91DC911197C617D70720F1C530CB
:10280000D10578F0CE0104978617970750F0C61BC4
:10281000D70B2297C193D1936D937C93CF010E94E4
:102820003F13C801DF91CF911F910F91FF90EF905F
:10283000DF90CF90BF90AF909F908F907F906F90E0
:102840005F904F9008955B01AC1ABD0A4C018C0E4D
:102850009D1EA091A804B091A904512C412CF12CEB
:10286000E12C109731F58091A6049091A70488156A
:10287000990509F05CC04616570608F058C08091CB
:10288000000290910102009741F48DB79EB74091EC
:10289000040250910502841B950BE817F90708F014
:1028A00055C0F093A704E093A604F90171836083F7
:1028B000B8CF8D919C91119712966C9012971396A8
:1028C0007C901397A815B90559F56C0142E0C40E28
:1028D000D11CCA14DB0420F1AC014A195B09DA01EE
:1028E0001296159780F06282738251834083D901DA
:1028F0006D937C93E114F10471F0D7011396FC936E
:10290000EE9312978ECF22968C0F9D1FF901918323
:102910008083F301EFCFF093A904E093A80481CF63
:102920004816590608F42C017D01D3019ACFCB013A
:102930000E94A3127C01009749F0AE01B8010E94E9
:10294000B614C8010E943F1387016BCF10E000E06E
:1029500068CFFB01DC0104C08D910190801921F446
:1029600041505040C8F7881B990B0895FB01DC01CA
:1029700002C001900D9241505040D8F70895DC01FB
:1029800001C06D9341505040E0F70895FB01DC0118
:1029900001900D920020E1F70895FB01DC01415008
:1029A000504048F001900D920020C9F701C01D92DF
:1029B00041505040E0F7089511E0CFE9D1E000E048
:1029C00006C0802FFE010E949B122196011DC03A75
:1029D000D10780E00807A9F7F894FFCF0000AA0408
:1029E00080000000FF00FF00D3F7D3F7D3F700000B
:1029F00000007302D3010002DB0231020F02230246
:102A000000000000300561054A0896040D0A0058D0
:102A1000004E44454620577269746572000A506C36
:102A2000616365206120666F726D617474656420F6
:102A30004D696661726520436C6173736963206FD1
:102A40007220556C7472616C69676874204E4643DD
:102A500020746167206F6E20746865207265616400
:102A600065722E0068747470733A2F2F4156455862
:102A70003832322E6769746875622E696F2F005381
:102A80007563636573732E20547279207265616477
:102A9000696E672074686973207461672077697450
:102AA0006820796F75722070686F6E652E0057729E
:0C2AB000697465206661696C65642E0025
:020000040003F7
:10E000000D9489F10D94B2F10D94B2F10D94B2F129
:10E010000D94B2F10D94B2F10D94B2F10D94B2F1F0
:10E020000D94B2F10D94B2F10D94B2F10D94B2F1E0
:10E030000D94B2F10D94B2F10D94B2F10D94B2F1D0
:10E040000D94B2F10D94B2F10D94B2F10D94B2F1C0
:10E050000D94B2F10D94B2F10D94B2F10D94B2F1B0
:10E060000D94B2F10D94B2F10D94B2F10D94B2F1A0
:10E070000D94B2F10D94B2F10D94B2F10D94B2F190
:10E080000D94B2F10D94B2F10D94B2F10D94B2F180
:10E090000D94B2F10D94B2F10D94B2F10D94B2F170
:10E0A0000D94B2F10D94B2F10D94B2F10D94B2F160
:10E0B0000D94B2F10D94B2F10D94B2F10D94B2F150
:10E0C0000D94B2F10D94B2F10D94B2F10D94B2F140
:10E0D0000D94B2F10D94B2F10D94B2F10D94B2F130
:10E0E0000D94B2F141546D656761323536300041AF
:10E0F000726475696E6F206578706C6F72657220DE
:10E1000073746B3530305632206279204D4C530099
:10E11000426F6F746C6F616465723E004875683F52
:10E1200000436F6D70696C6564206F6E203D200048
:10E130004350552054797065202020203D20005FF9
:10E140005F4156525F415243485F5F3D2000415658
:10E1500052204C696243205665723D20004743437C
:10E160002056657273696F6E203D20004350552024
:10E1700049442020202020203D20004C6F7720663D
:10E18000757365202020203D20004869676820665F
:10E190007573652020203D200045787420667573D6
:10E1A00065202020203D20004C6F636B2066757336
:10E1B000652020203D20004D617220203720323024
:10E1C000313300312E362E3800342E332E350056A2
:10E1D00023202020414444522020206F7020636F70
:10E1E00064652020202020696E73747275637469E1
:10E1F0006F6E2061646472202020496E74657272B3
:10E20000757074006E6F20766563746F7200726A49
:10E210006D702020006A6D70200057686174207056
:10E220006F72743A00506F7274206E6F7420737541
:10E2300070706F72746564004D7573742062652030
:10E2400061206C6574746572002000577269747483
:10E25000696E672045450052656164696E672045B7
:10E26000450045452065727220636E743D00504F35
:10E27000525400303D5A65726F2061646472003FF1
:10E280003D43505520737461747300403D454550C3
:10E29000524F4D207465737400423D426C696E6B41
:10E2A000204C454400453D44756D70204545505215
:10E2B0004F4D00463D44756D7020464C415348001B
:10E2C000483D48656C70004C3D4C69737420492F83
:10E2D0004F20506F72747300513D51756974005234
:10E2E0003D44756D702052414D00563D73686F7707
:10E2F00020696E7465727275707420566563746FF0
:10E30000727300593D506F727420626C696E6B00BD
:10E310002A0011241FBECFEFD1E2DEBFCDBF01E046
:10E320000CBF12E0A0E0B2E0EEE1FDEF03E00BBFB6
:10E3300002C007900D92A030B107D9F712E0A0E01B
:10E34000B2E001C01D92AE30B107E1F70F9460F367
:10E350000D948DFE01E20EBF0FEF0DBF11241FBE05
:10E360000D9460F30D9400F020E030E040ED57E0B4
:10E3700005C0FA013197F1F72F5F3F4F2817390792
:10E38000C0F308959C01260F311DC901A0E0B0E043
:10E390002F5F3F4FABBFFC018791882361F08093D3
:10E3A000C6008091C00086FFFCCF8091C0008064D1
:10E3B0008093C000EACF08958DE08093C6008091DD
:10E3C000C00086FFFCCF8091C00080648093C000B5
:10E3D0008AE08093C6008091C00086FFFCCF8091C8
:10E3E000C00080648093C00008950F94C2F10F9420
:10E3F000DCF10895FC019081992359F09093C600B7
:10E400008091C00086FFFCCF8091C0008064809323
:10E41000C0003196992379F70895282F982F929567
:10E420009F70892F805D8A3308F0895F8093C600D2
:10E430008091C00086FFFCCF8091C00080648093F3
:10E44000C000822F8F70982F905D9A3308F0995FEB
:10E450009093C6008091C00086FFFCCF8091C000E1
:10E4600080648093C00008959C01FB01853691056E
:10E470001CF46330710594F0C90164E670E00F94F8
:10E480002EFE605D7F4F6093C6008091C00086FFC6
:10E49000FCCF8091C00080648093C0002B30310598
:10E4A00014F43297B4F0C90164E670E00F942EFEC4
:10E4B0006AE070E00F942EFE605D7F4F6093C600AF
:10E4C0008091C00086FFFCCF8091C0008064809363
:10E4D000C000C9016AE070E00F942EFEC0968093E0
:10E4E000C6008091C00086FFFCCF8091C000806490
:10E4F0008093C00008951F93182F8EE692EE60E07F
:10E500000F94C2F11093C6008091C00086FFFCCF2B
:10E510008091C00080648093C0000F94DCF11F9153
:10E5200008952F923F924F925F926F927F928F92B7
:10E530009F92AF92BF92CF92DF92EF92FF920F9392
:10E540001F93DF93CF93CDB7DEB762970FB6F894E2
:10E55000DEBF0FBECDBF382E622ECA01DB015C01CB
:10E560006D01772420E2222E2E010894411C511CBB
:10E570008BC081E0A81680E0B80681E0C80680E084
:10E58000D80628F0C601AA27BB270F940DF2BB2797
:10E59000AD2D9C2D8B2D0F940DF28A2D0F940DF225
:10E5A0002092C6008091C00086FFFCCF8091C00001
:10E5B00080648093C0009DE29093C6008091C0006B
:10E5C00086FFFCCF8091C00080648093C0002092C1
:10E5D000C6008091C00086FFFCCF8091C00080649F
:10E5E0008093C00019828601750188249924A1E0D6
:10E5F0003A1651F03A1620F0B2E03B1661F409C029
:10E600000BBFF701779007C0C7010F9477FE782EF4
:10E6100002C0F7017080872D0F940DF22092C60082
:10E620008091C00086FFFCCF8091C0008064809301
:10E63000C000872D8052F401EF70F0708F3520F408
:10E64000E40DF51D708204C0E40DF51D8EE280839B
:10E650000894E11CF11C011D111D0894811C911CE2
:10E6600090E18916910409F0C2CF80E190E0A0E02A
:10E67000B0E0A80EB91ECA1EDB1E198AC2010F9493
:10E68000FAF10F94DCF16A94662009F072CF629679
:10E690000FB6F894DEBF0FBECDBFCF91DF911F91B3
:10E6A0000F91FF90EF90DF90CF90BF90AF909F9031
:10E6B0008F907F906F905F904F903F902F90089534
:10E6C0002F923F924F925F926F927F928F929F9282
:10E6D000AF92BF92CF92DF92EF92FF920F931F9370
:10E6E000DF93CF93CDB7DEB7CD53D1400FB6F894BB
:10E6F000DEBF0FBECDBF01E20EBF0FEF0DBF94B75F
:10E70000F894A89514BE80916000886180936000A1
:10E7100010926000789493FF05C0E0910002F091A0
:10E7200001021995279A2F9A8091C00082608093E8
:10E73000C00080E18093C40088E18093C1000000A4
:10E74000EE24FF24870144E0A42EB12CCC24DD2448
:10E7500024C0C5010197F1F70894E11CF11C011DCB
:10E76000111D21E2E2162EE4F20620E0020720E06D
:10E77000120718F031E0C32ED12CC801B70127ECE5
:10E780003BE140E050E00F9441FE611571058105C9
:10E79000910519F485B1805885B98091C00087FD35
:10E7A00003C0C114D104A9F2A6014F5F5F4FC25E3E
:10E7B000DE4F59834883CE51D140C25EDE4F8881FF
:10E7C0009981CE51D140019711F00D9410FEC05D9A
:10E7D000DE4F19821882C053D14060E0C15DDE4F28
:10E7E0001882CF52D14088249924C35DDE4F19820C
:10E7F0001882CD52D140C05EDE4F188219821A8233
:10E800001B82C052D140CE5CDE4F188219821A8220
:10E810001B82C253D140EE24FF2487010BBFF701B6
:10E8200007911691C45CDE4F19830883CC53D14005
:10E830000D940BFEC25EDE4F28813981CE51D1404E
:10E840002130310509F52091C600C25EDE4F1982E4
:10E850001882CE51D14022C02F5F3F4F4F4F5F4FA4
:10E86000213082E138078AE7480780E0580780F0C6
:10E87000C45CDE4FE881F981CC53D140EF5FFF4F9C
:10E8800019F0EE27FF27099420E030E040E050E047
:10E890008091C00087FFE0CF2091C600C35DDE4FAE
:10E8A00048815981CD52D1404F5F5F4FC35DDE4FEC
:10E8B00059834883CD52D140213209F063C64A3092
:10E8C000510508F05FC60894811C911C53E0851621
:10E8D000910409F059C600E010E018C081E280936D
:10E8E000C6008091C00086FFFCCF8091C00080648C
:10E8F0008093C0002F5F3F4F2931310579F70F9486
:10E90000DCF10F5F1F4F0530110519F020E030E0FA
:10E91000E5CF10920A0210920B0210920C02109294
:10E920000D02109206021092070210920802109235
:10E930000902109202021092030210920402109235
:10E9400005028FEE90EE60E00F94F5F180E191EE1C
:10E9500060E00F94C2F18091C00087FFFCCF9091DE
:10E96000C600903608F09F759032B8F09093C600BC
:10E970008091C00086FFFCCF8091C00080648093AE
:10E98000C000A0E2A093C6008091C00086FFFCCF2B
:10E990008091C00080648093C000983409F4D7C18E
:10E9A0009934B8F4923409F459C1933458F490333B
:10E9B00019F1903308F4E3C59F33A1F1903409F0C5
:10E9C000DEC5BDC0953409F470C1963409F0D7C5D1
:10E9D00098C1923509F42BC2933538F49C3409F46C
:10E9E000F5C1913509F0CBC518C2963509F445C279
:10E9F000993509F0C4C567C483E792EE62E00F94CD
:10EA0000F5F110920602109207021092080210927D
:10EA1000090210920A0210920B0210920C0210923C
:10EA20000D0213C18FE792EE62E00F94F5F18FEEC5
:10EA300090EE60E00F94F5F181E291EE60E00F94CA
:10EA4000C2F187EB91EE60E00F94F5F180E391EE77
:10EA500060E00F94C2F184EE90EE60E00F94F5F167
:10EA60008FE391EE60E00F94C2F186E090E061E008
:10EA700070E00F9434F20F94DCF18DE591EE60E0DC
:10EA80000F94C2F189EC91EE60E00F94F5F18EE401
:10EA900091EE60E00F94C2F183EC91EE60E00F9490
:10EAA000F5F18CE691EE60E00F94C2F18EE10F94E7
:10EAB0000DF288E90F940DF281E00F940DF20F949E
:10EAC000DCF18BE791EE60E00F94C2F119E0E0E039
:10EAD000F0E010935700E4918E2F0F940DF20F94F5
:10EAE000DCF18AE891EE60E00F94C2F1E3E0F0E03F
:10EAF00010935700E4918E2F0F940DF20F94DCF1D8
:10EB000089E991EE60E00F94C2F1E2E0F0E0109349
:10EB10005700E4918E2F0F940DF20F94DCF188EAE8
:10EB200091EE60E00F94C2F1E1E0F0E01093570045
:10EB30001491812F0F940DF20F94DCF107CF8BE825
:10EB400092EE62E00F94F5F18BE492EE60E00F94A8
:10EB5000F5F10F94DCF100E010E019C0C8016F2D51
:10EB60000F947FFEFF2031F489E492EE60E00F9471
:10EB7000C2F10BC0F092C6008091C00086FFFCCFAE
:10EB80008091C00080648093C0000F5F1F4FC80158
:10EB900081519F41A0E0B0E0ABBFFC01F790BAE229
:10EBA000FB1621F0E2E000301E07C1F60F94DCF105
:10EBB0000F94DCF187E592EE60E00F94F5F10F948D
:10EBC000DCF1CC24DD2400E010E01EC0C8010F946D
:10EBD00077FEF82E882331F489E492EE60E00F94FA
:10EBE000C2F10BC08093C6008091C00086FFFCCFAD
:10EBF0008091C00080648093C000FE1419F00894D6
:10EC0000C11CD11C0F5F1F4FC80181519F41A0E063
:10EC1000B0E0ABBFFC01E790FAE2EF1621F022E092
:10EC20000030120799F60F94DCF10F94DCF182E6C4
:10EC300092EE60E00F94C2F1C60161E070E00F94C3
:10EC400034F20F94DCF10F94DCF110920202109276
:10EC50000302109204021092050278CE89E992EE26
:10EC600062E00F94F5F1279A2F9A16C02F9880E052
:10EC700090E0E0EDF7E03197F1F7019684369105E9
:10EC8000C1F72F9A80E090E0E0EDF7E03197F1F7DF
:10EC9000019684369105C1F78091C00087FFE6CFC9
:10ECA0008091C00087FFFCCF64C485EA92EE62E0E9
:10ECB0000F94F5F140910202509103026091040219
:10ECC0007091050281E020E10F9491F2809102029F
:10ECD00090910302A0910402B091050280509F4FD1
:10ECE000AF4FBF4F8093020290930302A0930402A0
:10ECF000B093050280509041A040B04008F426CE69
:10ED0000A4CF83EB92EE62E00F94F5F140910602FE
:10ED100050910702609108027091090280E020E1A1
:10ED20000F9491F28091060290910702A09108023F
:10ED3000B091090280509F4FAF4FBF4F80930602A2
:10ED400090930702A0930802B0930902FFCD80ECD4
:10ED500092EE62E00F94F5F183E792EE60E00F949B
:10ED6000F5F18FE792EE60E00F94F5F18BE892EE0B
:10ED700060E00F94F5F189E992EE60E00F94F5F10F
:10ED800085EA92EE60E00F94F5F183EB92EE60E09D
:10ED90000F94F5F180EC92EE60E00F94F5F187ECC2
:10EDA00092EE60E00F94F5F188ED92EE60E00F9442
:10EDB000F5F18FED92EE60E00F94F5F18AEE92EEB0
:10EDC00060E00F94F5F183E093EEBDCD87EC92EE19
:10EDD00062E00F94F5F181E40F947BF282E40F94EA
:10EDE0007BF283E40F947BF284E40F947BF285E45E
:10EDF0000F947BF286E40F947BF287E40F947BF20E
:10EE000088E40F947BF28AE40F947BF28BE40F94F6
:10EE10007BF28CE40F947BF299CD88ED92EE62E068
:10EE20000F94F5F1772473948824992409C48FED05
:10EE300092EE62E00F94F5F140910A0250910B02BC
:10EE400060910C0270910D0282E020E10F9491F22A
:10EE500080910A0290910B02A0910C02B0910D02D8
:10EE600080509F4FAF4FBF4F80930A0290930B0289
:10EE7000A0930C02B0930D0269CD8AEE92EE62E08F
:10EE80000F94F5F184EE90EE60E00F94F5F18FECC5
:10EE900091EE60E00F94F5F1662477244301CC5D98
:10EEA000DE4F19821882C452D140D401C301B695F5
:10EEB000A79597958795CA5DDE4F88839983AA8326
:10EEC000BB83C652D140CC5DDE4FA881B981C4520C
:10EED000D1401196CC5DDE4FB983A883C452D14096
:10EEE000CD0162E070E00F9434F2B0E2B093C6005E
:10EEF0008091C00086FFFCCF8091C0008064809329
:10EF0000C000EDE2E093C6008091C00086FFFCCF18
:10EF10008091C00080648093C000F0E2F093C6004E
:10EF20008091C00086FFFCCF8091C00080648093F8
:10EF3000C000CA5DDE4FE880F9800A811B81C6529D
:10EF4000D140BB27A12F902F8F2D0F940DF2CA5DBA
:10EF5000DE4F8881C652D1400F940DF2B0E2FB2EF5
:10EF6000F092C6008091C00086FFFCCF8091C00067
:10EF700080648093C0000DE30093C6008091C000C0
:10EF800086FFFCCF8091C00080648093C00010E2B7
:10EF90001093C6008091C00086FFFCCF8091C00016
:10EFA00080648093C0008BBEF3012791C65DDE4F65
:10EFB0002883CA52D140A22EBB24CC24DD2408943D
:10EFC000611C711C811C911C8BBEF3018791282E42
:10EFD0003324442455240894611C711C811C911C09
:10EFE0008BBEF3013791C55DDE4F3883CB52D140E4
:10EFF0000894611C711C811C911C8BBEF30147910C
:10F00000C45DDE4F4883CC52D140ADEFEA2EAFEF66
:10F01000FA2EAFEF0A2FAFEF1A2F6E0C7F1C801E57
:10F02000911E142D032DF22CEE24EA0CFB1C0C1D5A
:10F030001D1D0F940DF220E22093C6008091C000A8
:10F0400086FFFCCF8091C00080648093C000C65DC5
:10F05000DE4F8881CA52D1400F940DF230E23093D6
:10F06000C6008091C00086FFFCCF8091C000806404
:10F070008093C000C45DDE4F8881CC52D1400F9494
:10F080000DF240E24093C6008091C00086FFFCCFA5
:10F090008091C00080648093C000C55DDE4F888190
:10F0A000CB52D1400F940DF250E25093C6008091A4
:10F0B000C00086FFFCCF8091C00080648093C000B8
:10F0C0008FEFE8168FEFF80680E0080780E018075A
:10F0D00031F484E092EE60E00F94C2F1DFC0D80119
:10F0E000C7018070907CA070B0708050904CA040A0
:10F0F000B040D1F52FEF3FE340E050E0E222F322B1
:10F1000004231523CA5DDE4FA880B980CA80DB8046
:10F11000C652D140AE0CBF1CC01ED11EAA0CBB1CD7
:10F12000CC1CDD1C8EE092EE60E00F94C2F1BB2798
:10F13000A12F902F8F2D0F940DF28E2D0F940DF285
:10F1400030E23093C6008091C00086FFFCCF8091F2
:10F15000C00080648093C0004EE34093C60080915D
:10F16000C00086FFFCCF87C08EE09EEFA0E0B0E03D
:10F17000E822F9220A231B239CE0E91694E9F90608
:10F1800090E0090790E0190709F088C0C45DDE4FE0
:10F19000A881CC52D140EA2EFF2400E010E0102FCD
:10F1A0000F2DFE2CEE24C55DDE4FB881CB52D14031
:10F1B000EB0EF11C011D111DD601C501817090706F
:10F1C000A070B070DC0199278827E80EF91E0A1F8D
:10F1D0001B1F20EF30E040E050E0A222B322C42207
:10F1E000D52241E1AA0CBB1CCC1CDD1C4A95D1F7F1
:10F1F000EA0CFB1C0C1D1D1D81E090E0A0E0B0E0BE
:10F20000282239224A225B2235E1220C331C441C7D
:10F21000551C3A95D1F7E20CF31C041D151D57013E
:10F220006801AA0CBB1CCC1CDD1C85E192EE60E0E1
:10F230000F94C2F1C801AA27BB270F940DF2BB2778
:10F24000A12F902F8F2D0F940DF28E2D0F940DF274
:10F2500090E29093C6008091C00086FFFCCF809121
:10F26000C00080648093C000AEE3A093C60080918C
:10F27000C00086FFFCCF8091C00080648093C000F6
:10F28000C601AA27BB270F940DF2BB27AD2D9C2DDD
:10F290008B2D0F940DF28A2D0F940DF20F94DCF14B
:10F2A000CC5DDE4FE881F981C452D140F99709F471
:10F2B0004DCBF4E0EF2EF12C012D112D6E0C7F1CA7
:10F2C000801E911EF2CD83E093EE62E00F94F5F183
:10F2D0008AE192EE60E00F94C2F18091C00087FF56
:10F2E000FCCF1091C6001F751093C6008091C0001E
:10F2F00086FFFCCF8091C00080648093C0000F9493
:10F30000DCF1812F81548A3108F036C1163409F4BA
:10F3100095C0173490F4133409F44EC0143430F40B
:10F320001134F1F0123409F01DC130C0143409F465
:10F3300059C0153409F016C16BC01A3409F4C4C0A1
:10F340001B3438F4173409F48FC0183409F00AC19B
:10F35000A1C01B3409F4D2C01C3409F003C1E8C0B9
:10F360008FEF81B90DC082B1809582B980E090E0C5
:10F37000E0EDF7E03197F1F70196883C9105C1F790
:10F380008091C00087FFEFCF12B8EFC08FEF84B934
:10F390000DC085B1809585B980E090E0E0EDF7E0A3
:10F3A0003197F1F70196883C9105C1F78091C00033
:10F3B00087FFEFCF15B8D9C08FEF87B90DC088B1DF
:10F3C000809588B980E090E0E0EDF7E03197F1F7C3
:10F3D0000196883C9105C1F78091C00087FFEFCF6F
:10F3E00018B8C3C08FEF8AB90DC08BB180958BB9A7
:10F3F00080E090E0E0EDF7E03197F1F70196883C8E
:10F400009105C1F78091C00087FFEFCF1BB8ADC059
:10F410008FEF8DB90DC08EB180958EB980E090E0F0
:10F42000E0EDF7E03197F1F70196883C9105C1F7DF
:10F430008091C00087FFEFCF1EB897C08FEF80BBD1
:10F440000DC081B3809581BB80E090E0E0EDF7E0F6
:10F450003197F1F70196883C9105C1F78091C00082
:10F4600087FFEFCF11BA81C08FEF83BB0DC084B38C
:10F47000809584BB80E090E0E0EDF7E03197F1F714
:10F480000196883C9105C1F78091C00087FFEFCFBE
:10F4900014BA6BC08FEF809301010FC080910201FD
:10F4A00080958093020180E090E0E0EDF7E03197F5
:10F4B000F1F70196883C9105C1F78091C00087FF64
:10F4C000EDCF1092020151C08FEF809304010FC065
:10F4D0008091050180958093050180E090E0E0ED4A
:10F4E000F7E03197F1F70196883C9105C1F78091DB
:10F4F000C00087FFEDCF1092050137C08FEF8093DA
:10F5000007010FC08091080180958093080180E079
:10F5100090E0E0EDF7E03197F1F70196883C910536
:10F52000C1F78091C00087FFEDCF109208011DC088
:10F530008FEF80930A010FC080910B01809580931B
:10F540000B0180E090E0E0EDF7E03197F1F70196F4
:10F55000883C9105C1F78091C00087FFEDCF1092E4
:10F560000B0103C085E292EEEEC98091C00087FFD7
:10F57000FCCF8091C600EAC988E392EEE4C98CE131
:10F5800091EEE1C988249924933011F1943028F444
:10F59000913089F09230B8F408C0953061F195301F
:10F5A000F0F0963009F048C043C02B3109F042C951
:10F5B00091E06BE13FC96227C15DDE4F2883CF52E6
:10F5C000D14092E037C9B22FA0E0622793E032C960
:10F5D000822F90E0A82BB92B622794E02BC92E3004
:10F5E00009F039C3622795E0C05DDE4F19821882A9
:10F5F000C053D1401FC9E1E0F0E0EC0FFD1FC05D3A
:10F60000DE4F08811981C053D140E00FF11F2083E4
:10F610000F5F1F4FC05DDE4F19830883C053D14079
:10F6200062270A171B0709F005C9D80196E002C92D
:10F63000261709F010C303C0973009F0FBC87724E0
:10F640009981933109F412C19431C8F4963009F4C8
:10F65000D8C0973050F4923009F406C1933009F4C1
:10F660006DC0913009F059C253C0913109F477C08F
:10F67000923108F0BBC0903109F04FC2F5C098310B
:10F6800009F487C0993150F4953109F4EFC09531F0
:10F6900008F4C6C1963109F040C2C2C19A3109F4DA
:10F6A0006CC09A3108F491C09B3109F45BC09D3164
:10F6B00009F033C29D81903359F48F81882311F46E
:10F6C0009EE11CC0813011F091E018C098E916C08D
:10F6D000892F807591F0903539F4E0E0F0E089E011
:10F6E0008093570094910AC0983539F4E3E0F0E034
:10F6F00089E080935700949101C090E01A821B82A8
:10F700008D818C831D829E831F8227E030E009C299
:10F710001A8288E08B8381E48C8386E58D8382E581
:10F720008E8389E48F8383E5888780E589878FE5E9
:10F730008A8782E38B872BE030E0F3C18A818139AD
:10F7400041F0823941F0803911F48FE005C080E04A
:10F7500003C082E001C08AE01A828B8344C0772410
:10F76000739482C08D81882311F48EE12CC0813086
:10F7700011F081E028C088E926C01A82E1E0F0E0BB
:10F7800089E08093570084918B831C8224E030E0D1
:10F79000C8C18B81803589F48C81883039F4E2E0EE
:10F7A000F0E089E08093570084910DC0E0E0F0E044
:10F7B00089E080935700849106C0E3E0F0E089E09F
:10F7C0008093570084911A82DFCF8D81836C99E0FA
:10F7D000E1E0F0E0082E90935700E89507B600FCB2
:10F7E000FDCF1A821B8223E030E09BC180EC8A832C
:10F7F000CE5CDE4F188219821A821B82C253D1401E
:10F800008EC18A8190E0A0E0B0E0582F44273327D2
:10F8100022278B8190E0A0E0B0E0DC0199278827C7
:10F82000282B392B4A2B5B2B8D8190E0A0E0B0E098
:10F83000282B392B4A2B5B2B8C8190E0A0E0B0E089
:10F84000BA2FA92F982F8827282B392B4A2B5B2BCF
:10F85000220F331F441F551FC05EDE4F288339839C
:10F860004A835B83C052D1401A8259C13A81C95C34
:10F87000DE4F3883C753D140CA5CDE4F1882C6536F
:10F88000D1408B81C82EDD24CA5CDE4F488159816E
:10F89000C653D140C42AD52A933109F082C0CE5C28
:10F8A000DE4F88819981AA81BB81C253D1408050AB
:10F8B000904CA340B04030F583E0CE5CDE4FE88052
:10F8C000F9800A811B81C253D140F70100935B008C
:10F8D00080935700E89507B600FCFDCFCE5CDE4F65
:10F8E000088119812A813B81C253D14000501F4FAA
:10F8F0002F4F3F4FCE5CDE4F088319832A833B8313
:10F90000C253D140C05EDE4F488159816A817B81FC
:10F91000C052D140DE011B9631E08C9111962C91A2
:10F9200011971296C75CDE4F2883C953D140C85C3B
:10F93000DE4F1882C853D14090E0C85CDE4FE881AA
:10F94000F981C853D1408E2B9F2B0C01FA01609393
:10F950005B0030935700E89511244E5F5F4F6F4F67
:10F960007F4F0EEFE02E0FEFF02ECE0CDF1CC114F8
:10F97000D10499F685E0C05EDE4F088119812A81A5
:10F980003B81C052D140F80120935B008093570027
:10F99000E89507B600FCFDCF81E180935700E8951C
:10F9A00035C0C05EDE4F88819981AA81BB81C0527B
:10F9B000D140B695A795979587957C018601ABE0D8
:10F9C000AA2EB12CAC0EBD1E0BC0D5016D915D01F0
:10F9D000C7010F947FFE0894E11CF11C01501040F8
:10F9E0000115110591F7A60160E070E0440F551F65
:10F9F000661F771FC05EDE4FE880F9800A811B8199
:10FA0000C052D1404E0D5F1D601F711F1A82C05E33
:10FA1000DE4F488359836A837B83C052D1407FC0C5
:10FA2000FA80C55CDE4FF882CB53D140C65CDE4F16
:10FA30001882CA53D1408B81C82EDD24C65CDE4FAC
:10FA400008811981CA53D140C02AD12A1A828981DA
:10FA5000BE016D5F7F4F843121F59601C05EDE4FA0
:10FA6000E880F9800A811B81C052D1400BBFF701A9
:10FA700087919691DB018C9311969C936E5F7F4FDB
:10FA8000D801C7010296A11DB11DC05EDE4F88835B
:10FA90009983AA83BB83C052D14022503040F1F6F3
:10FAA00036C0C05EDE4F288139814A815B81C052F9
:10FAB000D1400894C108D108760100E010E0089414
:10FAC000C11CD11C0894E11CF11C011D111DE20E8A
:10FAD000F31E041F151F21BDBB27A52F942F832FB5
:10FAE00082BD2F5F3F4F4F4F5F4FF89A80B5DB01CC
:10FAF0008D93BD012E153F054007510761F7C05E8C
:10FB0000DE4F288339834A835B83C052D1409601FC
:10FB10002D5F3F4FFB01108204C080EC8A8322E0FE
:10FB200030E08BE18093C6008091C00086FFFCCF5F
:10FB30008091C00080648093C000C15DDE4FF88179
:10FB4000CF52D140F093C6008091C00086FFFCCF19
:10FB50008091C00080648093C000432F3093C60022
:10FB60008091C00086FFFCCF8091C00080648093AC
:10FB7000C000922F2093C6008091C00086FFFCCF6A
:10FB80008091C00080648093C0008EE08093C600A6
:10FB90008091C00086FFFCCF8091C000806480937C
:10FBA000C00065E1C15DDE4FE880CF52D1406E25D7
:10FBB00069276427FE01319610C090819093C6009A
:10FBC0008091C00086FFFCCF31968091C000806498
:10FBD0008093C0006927215030402115310569F715
:10FBE0006093C6008091C00086FFFCCF8091C0006A
:10FBF00080648093C00085B1805885B9772081F4F6
:10FC0000C15DDE4F0881CF52D1400F5FC15DDE4F35
:10FC10000883CF52D14090E0A0E0B0E00D941AF4F8
:10FC200027982F9880E090E020ED37E0F901319798
:10FC3000F1F7019684369105C9F700008091C00064
:10FC40008D7F8093C00081E180935700E895EE2777
:10FC5000FF270994FFCF90E00D941AF497FB092E2B
:10FC600007260AD077FD04D02ED006D000201AF443
:10FC7000709561957F4F0895F6F7909581959F4F08
:10FC80000895A1E21A2EAA1BBB1BFD010DC0AA1FDD
:10FC9000BB1FEE1FFF1FA217B307E407F50720F0F5
:10FCA000A21BB30BE40BF50B661F771F881F991F70
:10FCB0001A9469F760957095809590959B01AC01B9
:10FCC000BD01CF010895AA1BBB1B51E107C0AA1FAC
:10FCD000BB1FA617B70710F0A61BB70B881F991FED
:10FCE0005A95A9F780959095BC01CD010895F99991
:10FCF000FECF92BD81BDF89A992780B50895262F31
:10FD0000F999FECF1FBA92BD81BD20BD0FB6F89400
:0EFD1000FA9AF99A0FBE01960895F894FFCF63
:00000001FF
