:100000000C9423010C9454010C9454010C9454014D
:100010000C9454010C9454010C9454010C9454010C
:100020000C9454010C943C080C943C080C943C082F
:100030000C9454010C9454010C9454010C945401EC
:100040000C9454010C9454010C9454010C945401DC
:100050000C9454010C9454010C9454010C94F20728
:100060000C9454010C94BC070C9492070C9454010A
:100070000C9454010C9454010C9454010C945401AC
:100080000C9454010C9454010C9454010C9454019C
:100090000C945C070C9432070C9454010C944608A1
:1000A0000C9454010C9454010C9454010C9454017C
:1000B0000C9454010C9454010C9454010C9454016C
:1000C0000C9454010C9454010C9454010C9454015C
:1000D0000C9454010C9454010C9454010C9454014C
:1000E0000C9454010C943E030C941C030C941203C6
:1000F0000C9422030C9405040C947D010C94F102E1
:100100000C94DB010C9430030C940F030C94380313
:100110000C9403030C946F020C9418030C94EC02DF
:100120000C949F040C94AB040C94AA010C9434031B
:100130000C940B030C9442030C94CD010C943506E3
:100140000C9466090C94B9010C942A030C941D02BA
:100150000C9426030C9407030000220025002800BD
:100160002B002E00310034000201000005010801BF
:100170000B0105050505070508080808020202022B
:100180000A0A080804040404010101010101010133
:100190000303030303030303040707070C0C0C0CFE
:1001A0000C0C0C0C020202020606060606060606E7
:1001B0000B0B0B0B0B0B0B0B010210202008081074
:1001C00020401020408002010201080402010102C7
:1001D00004081020408080402010080402018004A0
:1001E00002018040201008040201080402010102FB
:1001F0000408102040800102040810204080000004
:100200000A0B02090C0D0E08070304010000000090
:1002100000000000000000000000000000000000DE
:10022000000000000000000000001211100000009B
:1002300000000000000000000000000000000000BE
:1002400000000000660911241FBECFEFD1E2DEBF1F
:10025000CDBF00E00CBF26E0A0E0B4E001C01D92DD
:10026000AC31B207E1F714E0A0E0B2E0E0ECF9E174
:1002700000E00BBF02C007900D92A030B107D9F784
:1002800011E0C3E2D1E000E006C021970109802F10
:10029000FE010E94C00CC232D10780E00807A9F716
:1002A0000E94E3090C94DE0C0C940000FC01A08970
:1002B000B18982E08C93A485B5851C92A685B7850B
:1002C00080E18C93108EA489B58986E08C93A289F5
:1002D000B3898C9180618C93A289B3898C91886059
:1002E0008C93A289B3898C9180688C930288F3895E
:1002F000E02D80818F7D80830895AF92BF92CF9251
:10030000DF92EF92FF920F931F93CF93DF936C01D5
:100310007B018B01040F151FEB015E01AE18BF08B6
:10032000C017D10759F06991D601ED91FC91019068
:10033000F081E02DC6011995892B79F7C501DF9170
:10034000CF911F910F91FF90EF90DF90CF90BF90D2
:10035000AF900895FC01538D448D252F30E0842FFC
:1003600090E0821B930B541710F0CF9608950197DD
:100370000895FC01918D828D981761F0A28DAE0FCA
:10038000BF2FB11D5D968C91928D9F5F9F73928F51
:1003900090E008958FEF9FEF0895FC01918D828D7D
:1003A000981731F0828DE80FF11D858D90E008954A
:1003B0008FEF9FEF0895FC01918D228D892F90E0A2
:1003C000805C9F4F821B91098F73992708958AE75C
:1003D00095E00E94DB0121E0892B09F420E0822FC7
:1003E00008958CE794E00E94DB0121E0892B09F459
:1003F00020E0822F0895FC01A48DA80FB92FB11D14
:10040000A35ABF4F2C91848D90E001968F7399274A
:10041000848FA689B7892C93A089B1898C91837028
:1004200080648C93938D848D981306C00288F38921
:10043000E02D80818F7D80830895EF92FF920F934E
:100440001F93CF93DF93EC0181E0888F9B8D8C8D80
:1004500098131AC0E889F989808185FF15C09FB774
:10046000F894EE89FF896083E889F9898081837037
:10047000806480839FBF81E090E0DF91CF911F91E6
:100480000F91FF90EF900895F62E0B8D10E00F5F07
:100490001F4F0F731127E02E8C8D8E110CC00FB6DD
:1004A00007FCFACFE889F989808185FFF5CFCE0175
:1004B0000E94FB01F1CFEB8DEC0FFD2FF11DE35AF4
:1004C000FF4FF0829FB7F8940B8FEA89FB898081F8
:1004D0008062CFCF682F8CE794E00C941D02CF93FD
:1004E000DF93EC01888D8823B9F0AA89BB89E8895C
:1004F000F9898C9185FD03C0808186FD0DC00FB602
:1005000007FCF7CF8C9185FFF2CF808185FFEDCF7F
:10051000CE010E94FB01E9CFDF91CF91089580E0E9
:1005200090E0892B29F00E94F10181110E940000C6
:1005300080E090E0892B29F00E94E70181110E9460
:10054000000080E090E0892B49F080E090E0892B6A
:1005500029F00E94000081110E94000080E090E0DC
:10056000892B49F080E090E0892B29F00E9400005F
:1005700081110C9400000895282F30E0F901E25019
:10058000FE4F9491F901E854FE4F44912E583E4F8E
:10059000F9012491222309F435C0992311F19150D6
:1005A0009231F8F4E92FF0E08827E652FD4F8F4FA3
:1005B0000C94C00C0B030F03EC0203030703F102BE
:1005C000120318031C03220326032A0330033403F7
:1005D000F10238033E034203809180008F778093BD
:1005E0008000E22FF0E0EE0FFF1FE85AFE4FA591CA
:1005F000B4918FB7F894EC91611148C040954E23A7
:100600004C938FBF0895809180008F7DE8CF8091BB
:100610008000877FE4CF84B58F7784BDE2CF84B537
:100620008F7DFBCF8091B0008F778093B000D9CFC2
:100630008091B0008F7DF9CF809190008F7780936B
:100640009000CFCF809190008F7DF9CF8091900066
:10065000877FF5CF8091A0008F778093A000C1CFD6
:100660008091A0008F7DF9CF8091A000877FF5CF8A
:10067000809120018F7780932001B3CF809120015A
:100680008F7DF9CF80912001877FF5CF4E2BB8CF9A
:1006900020912704260F3327331F21323105ECF434
:1006A00020914B04FC0190E080E0243069F082E06E
:1006B0000895A09127042191AC01495F5B4FA40FDD
:1006C000B52FB11D2C930196861798F380912704BE
:1006D000680F6093270480E0089581E008950895ED
:1006E0008FEF9FEF08958FEF9FEF089580910004A3
:1006F00090E09195819591090895CF93DF93CB0177
:10070000EA01642F0E944803CE01DF91CF91089542
:10071000CF93DF931F92CDB7DEB7698361E0CE013F
:1007200001960E94480381E090E00F90DF91CF9105
:10073000089590E080E008952F923F924F925F924B
:100740006F927F928F929F92AF92BF92CF92DF92E1
:10075000EF92FF920F931F93CF93DF932C011A0117
:1007600089013B01D0E0C0E06901F12CE12CC21508
:10077000D30591F18FB7F894809078049090790424
:10078000A0907A04B0907B048FBFD20112968D9115
:100790009C91DC01ED91FC910284F385E02D19958B
:1007A00097FF2EC00115110581F32FB7F8948091A2
:1007B000780490917904A0917A04B0917B042FBFC2
:1007C00088199909AA09BB098C159D05AE05BF05B5
:1007D000E0F28EEF209709F08C2FDF91CF911F91DF
:1007E0000F91FF90EF90DF90CF90BF90AF909F90D0
:1007F0008F907F906F905F904F903F902F900895D3
:10080000F30181933F012196B2CFAF92BF92CF9275
:10081000DF92EF92FF920F931F93CF93DF9300D05D
:100820001F921F92CDB7DEB77C01062FB72E142F73
:10083000690143E050E0BE016F5F7F4F0E949C035F
:10084000181694F08EEF9FEF0F900F900F900F906F
:100850000F90DF91CF911F910F91FF90EF90DF905C
:10086000CF90BF90AF9008958981882319F08DEFC4
:100870009FEFEACF8A818111FACF8B818F3FB9F741
:10088000960142E050E0BE016C5F7F4FC7010E94BD
:100890009C031816BCF68C819D81980F41F78250FD
:1008A0008C83181708F448C0F7011481AA24A39474
:1008B000A10E960142E050E0BE016F5F7F4FC7017D
:1008C0000E949C0318160CF0BDCF8981853D79F6F6
:1008D0008A818A11CCCF4C8150E09601602F7B2D0C
:1008E000C7010E949C032C81082E000C990B28172D
:1008F000190609F0A7CF1A52902FE02FFB2D8E2F4B
:10090000891B821718F48191180FF9CF960142E0E4
:1009100050E0BE016F5F7F4FC7010E949C03181615
:100920000CF090CF8981180F09F0A1CF8A81811135
:100930009ECF8C8190E088CF8CEF9FEF85CFFC011C
:10094000828193810C945601DC01ED91FC91019020
:10095000F081E02D1994CF93DF93EC0165E570E011
:100960008A819B810E94A40465E570E08A819B8155
:100970000E94A4048A819B81DC01ED91FC9101908D
:10098000F081E02D60E019958A819B81DC01ED9179
:10099000FC910190F081E02D60E019958A819B81A6
:1009A000DC01ED91FC910190F081E02D60E0199562
:1009B0008A819B81DC01ED91FC910084F185E02D21
:1009C00019958A819B81DC01ED91FC910084F18570
:1009D000E02D1995892B49F08A819B81DC01ED91ED
:1009E000FC910284F385E02DEBCFDF91CF91089548
:1009F000FC0101900020E9F73197AF01481B590B2A
:100A0000BC018CE794E00C947D018F929F92AF9291
:100A1000BF920F931F93CF93DF93CDB7DEB7A1970C
:100A20000FB6F894DEBF0FBECDBF19A2423008F456
:100A30004AE08E010F5D1F4F842E912CB12CA12C0A
:100A4000A50194010E949E0CE62FB901CA01EA306B
:100A5000F4F4E05DD801EE938D01232B242B252B9C
:100A600079F790E080E0109719F0CD010E94F8042A
:100A7000A1960FB6F894DEBF0FBECDBFDF91CF9128
:100A80001F910F91BF90AF909F908F900895E95C58
:100A9000E1CFCF93DF930E94F804EC018AE292E069
:100AA0000E94F8048C0F9D1FDF91CF9108950C9444
:100AB000F804EF92FF920F931F93CF93DF937C0183
:100AC000C62FD22F96E0F801A1E2B5E001900D9279
:100AD0009A95E1F7462F50E0B70189E195E00E9431
:100AE000D50CC093200580E48093380581E0809385
:100AF000390581E680933A05D0933B0586E0E1E233
:100B0000F5E0ACE3B5E001900D928A95E1F7E9E1FB
:100B1000F5E080E0C81721F0919190A78F5FFACFA0
:100B200080917805909179054AE04C0FDC01ED91B8
:100B3000FC910480F581E02D00E030E020E068E3E6
:100B400075E01995811114C080917805909179050F
:100B5000DC01ED91FC910680F781E02D28EE33E079
:100B600040E468E375E0199581E0909138059111B2
:100B700080E0DF91CF911F910F91FF90EF9008954A
:100B80001F93CF93DF9385ED8093BC008091030486
:100B900090910404A0910504B09106040796A11D4C
:100BA000B11D23E0B695A795979587952A95D1F71E
:100BB0002091BC0024FD03C010924B0452C0409110
:100BC0000304509104046091050470910604452BC0
:100BD000462B472B69F30097A105B10541F02AE2A6
:100BE0002A95F1F700C00197A109B109E1CF8091E1
:100BF0000204C1E0C0930104882399F1D091B800A8
:100C00001091BA008091BC008A7B8093BC0060E0A8
:100C100084E10E94BC0260E085E10E94BC02109267
:100C20004B04C0934D0410924C0461E084E10E9497
:100C3000BC0261E085E10E94BC028091B9008E7F18
:100C40008093B9008091B9008D7F8093B90088E4CA
:100C50008093B80085E48093BC001093BA00D093D1
:100C6000B800DF91CF911F9108959F92AF92BF92EC
:100C7000CF92DF92EF92FF920F931F93CF93DF9368
:100C8000CDB7DEB72C970FB6F894DEBF0FBECDBF41
:100C90007C016B01942EB22EA32EDC0112968D9155
:100CA0009C91DC01ED91FC910084F185E02D19957A
:100CB000F70182819381DC01ED91FC910084F18543
:100CC000E02D1995F701A281B381892B41F0ED91B7
:100CD000FC9111970284F385E02DCD01E8CFF60158
:100CE0008081F7018483ED91FC9111970190F0814F
:100CF000E02D60E0CD011995D70112968D919C9160
:100D0000DC01ED91FC910190F081E02D60E01995FE
:100D1000F70182819381DC01ED91FC910190F081DA
:100D2000E02D6FEF199561E0600F162F190DF70197
:100D300082819381DC01ED91FC910190F081E02DA5
:100D4000612F1995612F70E0719561957109F70117
:100D5000828193810E94A40464ED70E0D701129611
:100D60008D919C910E94A404F70182819381492D69
:100D700050E0DC01ED91FC910280F381E02DB601A1
:100D800019959C2DF60114ED8E2F891B891518F4E9
:100D90008191180FF9CFF70182819381402F50E0A4
:100DA000DC01ED91FC910280F381E02D6B2D7A2D19
:100DB00019959B2DEB2DFA2D8E2F891B801718F47A
:100DC0008191180FF9CFF70182819381612F61958D
:100DD000DC01ED91FC910190F081E02D1995F70176
:100DE00082819381DC01ED91FC910190F081E02DF5
:100DF00060E0199586E0E0E0F2E0DE0117960190F0
:100E00000D928A95E1F72AE030E046E050E0BE011D
:100E10006F5F7F4FC7010E949C0318160CF546E0D8
:100E200050E0BE01695F7F4FCE0101960E94C80C61
:100E300021E0892B09F420E0822F81952C960FB6B2
:100E4000F894DEBF0FBECDBFDF91CF911F910F9100
:100E5000FF90EF90DF90CF90BF90AF909F9008955C
:100E60008EEFECCF1F920F920FB60F9211240BB69C
:100E70000F922F933F934F935F936F937F938F9333
:100E80009F93AF93BF93EF93FF938AE795E00E9400
:100E9000FB01FF91EF91BF91AF919F918F917F9156
:100EA0006F915F914F913F912F910F900BBE0F90DB
:100EB0000FBE0F901F9018951F920F920FB60F92B2
:100EC00011240BB60F922F938F939F93EF93FF9361
:100ED000E0918A05F0918B058081E0919005F09179
:100EE000910582FD1DC09081809193058F5F8F7366
:100EF00020919405821741F0E0919305F0E0E658C7
:100F0000FA4F958F80939305FF91EF919F918F9169
:100F10002F910F900BBE0F900FBE0F901F90189542
:100F20008081F2CF1F920F920FB60F9211240BB651
:100F30000F922F933F934F935F936F937F938F9372
:100F40009F93AF93BF93EF93FF938CE794E00E943E
:100F5000FB01FF91EF91BF91AF919F918F917F9195
:100F60006F915F914F913F912F910F900BBE0F901A
:100F70000FBE0F901F9018951F920F920FB60F92F1
:100F800011240BB60F922F938F939F93EF93FF93A0
:100F9000E0918C04F0918D048081E0919204F091B5
:100FA000930482FD1DC09081809195048F5F8F73A3
:100FB00020919604821741F0E0919504F0E0E45806
:100FC000FB4F958F80939504FF91EF919F918F91A7
:100FD0002F910F900BBE0F900FBE0F901F90189582
:100FE0008081F2CF1F920F920FB60F9211242F9390
:100FF0003F938F939F93AF93BF9380917804909189
:101000007904A0917A04B0917B043091770423E0B5
:10101000230F2D3758F50196A11DB11D209377049C
:101020008093780490937904A0937A04B0937B041E
:101030008091730490917404A0917504B09176042A
:101040000196A11DB11D8093730490937404A09325
:101050007504B0937604BF91AF919F918F913F91AA
:101060002F910F900FBE0F901F90189526E8230F19
:101070000296A11DB11DD2CF1F920F920FB60F92F3
:1010800011240F900FBE0F901F9018951F920F9272
:101090000FB60F9211240BB60F922F933F934F93DD
:1010A0005F936F937F938F939F93AF93BF93EF93D0
:1010B000FF938091B900887F803609F44DC008F015
:1010C00040C0883209F4A7C028F5803109F49BC0DC
:1010D000C8F4882309F4F7C0883009F494C0FF915C
:1010E000EF91BF91AF919F918F917F916F915F91A0
:1010F0004F913F912F910F900BBE0F900FBE0F900D
:101100001F901895883109F486C0803241F780938A
:101110004A0414C0803409F49BC040F48033B9F30E
:101120008833E9F680934A0485ECAEC0803509F433
:1011300083C0883509F494C0883489F60E94C005BC
:10114000CECF883909F48AC038F5883729F050F4B1
:10115000883611F0803719F683E080934B041092A3
:10116000490455C0883809F479C0803919F08038AD
:1011700009F0B5CF80914904803208F06FC0E0914A
:10118000490481E08E0F809349048091BB00F0E018
:10119000E75DFB4F80833BC0803B39F0D0F4803A61
:1011A00009F477C0883A09F09ACF84E080934B0421
:1011B0001092280410922704F0E0E0E01995809145
:1011C000270481110FC081E0809327041092070447
:1011D00009C0803C09F4A8CF883C09F4A5CF883B1E
:1011E00009F07DCFE091280481E08E0F80932804E0
:1011F000F0E0E95FFB4F80818093BB009091280471
:101200008091270429C0809170048093BB0085ECF5
:101210008093BC0064CF90916F0480916E04981706
:1012200058F5E0916F0481E08E0F80936F04F0E039
:10123000E25BFB4F8081E9CFE0916F0481E08E0F8C
:1012400080936F048091BB00F0E0E25BFB4F8083F2
:1012500090916F0480916E049817C8F285E8D8CFFA
:10126000E0916F0481E08E0F80936F048091BB004A
:10127000F0E0E25BFB4F808380914D0481115ECFF3
:1012800081E080934C0484EA8093BC0010924B046C
:1012900026CF85EC8093BC0010924B0480914904CA
:1012A000803230F4E0914904F0E0E75DFB4F1082BA
:1012B0006091490470E089E294E0F0E0E0E0199583
:1012C000109249040CCF10924A0438CFEAE7F5E0B7
:1012D0001382128248EE53E060E070E0448355834D
:1012E0006683778380E192E0918380832DEC30E008
:1012F000358724872CEC30E03787268728EC30E0D0
:10130000318B208B29EC30E0338B228B2AEC30E0C0
:10131000358B248B2EEC30E0378B268B118E128E82
:10132000138E148EACE7B4E013961C921E921297A3
:1013300014964D935D936D937C93179711969C93A0
:101340008E9385EC90E01D969C938E931C9784EC75
:1013500090E01F969C938E931E9780EC90E05196A0
:101360009C938E93509781EC90E053969C938E9330
:10137000529782EC90E055969C938E93549786EC0E
:1013800090E057969C938E93569759961C92599736
:101390005A961C925A975B961C925B975C961C928D
:1013A000A7E1B6E082E292E011969C938E931396A9
:1013B000FC93EE93129714961C921497B0937905B0
:1013C000A09378050895CF93DF93CDB7DEB76D97DF
:1013D0000FB6F894DEBF0FBECDBF789484B582609F
:1013E00084BD84B5816084BD85B5826085BD85B5C9
:1013F000816085BD80916E00816080936E00109247
:1014000081008091810082608093810080918100C1
:101410008160809381008091800081608093800052
:101420008091B10084608093B1008091B0008160B0
:101430008093B000809191008260809391008091B0
:1014400091008160809391008091900081608093F1
:1014500090008091A10082608093A1008091A10002
:1014600081608093A1008091A00081608093A000A2
:10147000809121018260809321018091210181600E
:1014800080932101809120018160809320018091CF
:101490007A00846080937A0080917A0082608093E1
:1014A0007A0080917A00816080937A0080917A003E
:1014B000806880937A001092C1008CE794E00E94CB
:1014C00056018DE292E00E94490580917805909145
:1014D0007905DC01ED91FC910190F081E02D1995E9
:1014E0008091780590917905DC01ED91FC91028065
:1014F000F381E02D199582E080933805809178057D
:1015000090917905DC01ED91FC910480F581E02D4D
:1015100000E030E020E041E068E375E019958823C1
:1015200029F082E492E00E945705FFCF8091780570
:1015300090917905DC01ED91FC910680F781E02D19
:1015400028EE33E040E468E375E0199597FDE9CFB4
:10155000C0903805D0903905DC24CD24DC24F12C52
:10156000E12CFE2CED2CDC2CCC2480913A05C82AF1
:10157000FE2CED2CDC2CCC2480913B05C82AC11418
:10158000D104E104F10469F28AE592E00E94570572
:101590006F2D77278827992740E10E9405058AE269
:1015A00092E00E94F80489E692E00E9457056E2DB1
:1015B00070E090E080E04AE00E9405058EE20E9423
:1015C0006A026D2D70E090E080E04AE00E9405051F
:1015D0008AE292E00E94F80494E19093380581E059
:1015E0008093390590933A0580933B058091780567
:1015F00090917905DC01ED91FC910480F581E02D5D
:1016000000E030E020E044E068E375E019958111E6
:1016100010C08091780590917905DC01ED91FC91E5
:101620000680F781E02D28EE33E040E468E375E0C2
:10163000199588E792E00E9449057E01B1E1EB0E21
:10164000F11C2AE4322E772473946E2C30E3532E4F
:10165000F70187E011928A95E9F786E0E6E0F2E08B
:10166000DE01589601900D928A95E1F73092380587
:101670007092390510923A0580917805909179051C
:10168000DC01ED91FC910480F581E02D00E030E07B
:1016900020E043E068E375E019958111A2C08091D4
:1016A000780590917905DC01ED91FC910680F78138
:1016B000E02D28EE33E040E468E375E0199597FDEE
:1016C00090C080913805813009F08BC0D0903D05E5
:1016D000AEE3B5E08701F7018E2F8E198D1518F452
:1016E0008D918193F9CF8AE992E00E94490582EBBE
:1016F00092E00E9457056D2D70E090E080E04AE096
:101700000E94050581EC92E00E94490588EC92E078
:101710000E945705802F86198D1568F4F801619194
:101720008F0170E090E080E040E10E94050580E2DA
:101730000E946A02EFCF8CE292E00E944905F4E039
:10174000DF12F0C086ED92E00E944905812C912CB9
:10175000540180E090E4492ED82C982D937011F01C
:10176000811159C085E093E00E9457056D2D669563
:10177000669570E090E080E04AE00E94050585E211
:1017800093E00E9449058E01085E1F4F20E030E083
:10179000A901DD2011F0A501940164E0C7010E94B8
:1017A0005905811138C08FE393E00E94490584E513
:1017B00093E00E9457054AE0C501B4010E94050567
:1017C0008BE593E00E94490580E0FFEF8F1A9F0AA6
:1017D000AF0ABF0A90E489169104A104B10409F08C
:1017E000BBCF8FEC93E00E9449058CE794E00E9408
:1017F0006F028CE794E00E94DB01892BD1F38CE728
:1018000094E00E94DB01892B09F491C08CE794E0FD
:101810000E94B901F4CF4092380570923905509278
:101820003A05D0923B058091780590917905DC01CD
:10183000ED91FC910480F581E02D00E030E020E0A6
:1018400044E068E375E01995811160C080917805E6
:1018500090917905DC01ED91FC910680F781E02DF6
:1018600028EE33E040E468E375E01995809138058F
:1018700081114CC080E1E9E3F5E0DE0111960190B1
:101880000D928A95E1F784E593E00E9457054AE0BE
:10189000C501B4010E940505B9E089E793E0BD15D3
:1018A00010F088E793E00E945705FE0131966F0122
:1018B0008F01D8012D908D01BFE0B21518F183E79B
:1018C00093E00E945705622D70E090E080E040E1D7
:1018D0000E9405050E151F0561F786E793E00E943B
:1018E0005705F60181916F0180320CF48EE20E945F
:1018F0006A020C151D05A9F78CE292E00E944905C9
:1019000081E063CF80E20E946A02DDCF84E593E04C
:101910000E9457054AE0C501B4010E9405058BE706
:1019200093E0ECCF86E993E00E9449055ACF8CE71B
:1019300094E00E946F020E948F028ACEA1E21A2ECA
:10194000AA1BBB1BFD010DC0AA1FBB1FEE1FFF1F63
:10195000A217B307E407F50720F0A21BB30BE40BB3
:10196000F50B661F771F881F991F1A9469F76095FA
:101970007095809590959B01AC01BD01CF010895B4
:10198000EE0FFF1F881F8BBF0790F691E02D199473
:10199000FB01DC0104C08D910190801921F44150BC
:1019A0005040C8F7881B990B0895FB01DC0102C069
:1019B00001900D9241505040D8F70895F894FFCF10
:1019C0000000FF00FF00FFFFFFFFFFFF000000001F
:1019D0001D027D01AA016F02DB01B901CD010000EA
:1019E00000009F04AB04350605040D0A004C6F6F20
:1019F0006B696E6720666F7220504E3533322E2E23
:101A00002E004469646E27742066696E6420504E0F
:101A100035337820626F61726400466F756E6420A2
:101A20006368697020504E35004669726D77617247
:101A300065207665722E200057616974696E672093
:101A4000666F7220616E2049534F31343434334114
:101A50002043617264202E2E2E00466F756E642026
:101A6000616E2049534F3134343433412063617205
:101A700064002020554944204C656E6774683A2004
:101A80000020627974657300202055494420566116
:101A90006C75653A20005365656D7320746F206224
:101AA000652061204D696661726520436C617373C6
:101AB0006963206361726420283420627974652030
:101AC00055494429002D2D2D2D2D2D2D2D2D2D2D1C
:101AD0002D2D2D2D2D2D2D2D2D2D2D2D2D536563A2
:101AE000746F7220002D2D2D2D2D2D2D2D2D2D2D92
:101AF0002D2D2D2D2D2D2D2D2D2D2D2D2D2D00412F
:101B0000757468656E7469636174696F6E2065725F
:101B1000726F7200426C6F636B200020756E6162A1
:101B20006C6520746F2061757468656E746963619B
:101B3000746500203000202020200020756E616236
:101B40006C6520746F20726561642074686973200D
:101B5000626C6F636B004F6F6F7073202E2E2E20A0
:101B60007468697320646F65736E2774207365658C
:101B70006D20746F2062652061204D696661726519
:101B800020436C6173736963206361726421000A8E
:101B90000A53656E642061206368617261637465D5
:101BA0007220746F2072756E20746865206D656D8B
:101BB0002064756D70657220616761696E21000037
:00000001FF
