:100000000C9423010C9454010C9454010C9454014D
:100010000C9454010C9454010C9454010C9454010C
:100020000C9454010C9483080C9483080C9483085A
:100030000C9454010C9454010C9454010C945401EC
:100040000C9454010C9454010C9454010C945401DC
:100050000C9454010C9454010C9454010C943908E0
:100060000C9454010C9403080C94D9070C9454017B
:100070000C9454010C9454010C9454010C945401AC
:100080000C9454010C9454010C9454010C9454019C
:100090000C94A3070C9479070C9454010C948D08CC
:1000A0000C9454010C9454010C9454010C9454017C
:1000B0000C9454010C9454010C9454010C9454016C
:1000C0000C9454010C9454010C9454010C9454015C
:1000D0000C9454010C9454010C9454010C9454014C
:1000E0000C9454010C943E030C941C030C940605D0
:1000F0000C9412030C9422030C947D010C94FA04CA
:100100000C94F1020C94DB010C9430030C940F035B
:100110000C9460040C9438030C9403030C946F0249
:100120000C9418030C94EC020C94AA010C94340364
:100130000C940B030C9442030C94CD010C94AD0968
:100140000C94B9010C942A030C941D020C94260300
:100150000C947C060C940703000022002500280064
:100160002B002E00310034000201000005010801BF
:100170000B0105050505070508080808020202022B
:100180000A0A080804040404010101010101010133
:100190000303030303030303040707070C0C0C0CFE
:1001A0000C0C0C0C020202020606060606060606E7
:1001B0000B0B0B0B0B0B0B0B010210202008081074
:1001C00020401020408002010201080402010102C7
:1001D00004081020408080402010080402018004A0
:1001E00002018040201008040201080402010102FB
:1001F0000408102040800102040810204080000004
:100200000A0B02090C0D0E08070304010000000090
:1002100000000000000000000000000000000000DE
:10022000000000000000000000001211100000009B
:1002300000000000000000000000000000000000BE
:1002400000000000AD0911241FBECFEFD1E2DEBFD8
:10025000CDBF00E00CBF26E0A6E5B4E001C01D92D2
:10026000A237B207E1F714E0A0E0B2E0E8E7FAE174
:1002700000E00BBF02C007900D92A635B107D9F779
:1002800011E0C3E2D1E000E006C021970109802F10
:10029000FE010E94250DC232D10780E00807A9F7B0
:1002A0000E942A0A0C943A0D0C940000FC01A089CB
:1002B000B18982E08C93A485B5851C92A685B7850B
:1002C00080E18C93108EA489B58986E08C93A289F5
:1002D000B3898C9180618C93A289B3898C91886059
:1002E0008C93A289B3898C9180688C930288F3895E
:1002F000E02D80818F7D80830895AF92BF92CF9251
:10030000DF92EF92FF920F931F93CF93DF936C01D5
:100310007B018B01040F151FEB015E01AE18BF08B6
:10032000C017D10759F06991D601ED91FC91019068
:10033000F081E02DC6011995892B79F7C501DF9170
:10034000CF911F910F91FF90EF90DF90CF90BF90D2
:10035000AF900895FC01538D448D252F30E0842FFC
:1003600090E0821B930B541710F0CF9608950197DD
:100370000895FC01918D828D981761F0A28DAE0FCA
:10038000BF2FB11D5D968C91928D9F5F9F73928F51
:1003900090E008958FEF9FEF0895FC01918D828D7D
:1003A000981731F0828DE80FF11D858D90E008954A
:1003B0008FEF9FEF0895FC01918D228D892F90E0A2
:1003C000805C9F4F821B91098F739927089580ED60
:1003D00095E00E94DB0121E0892B09F420E0822FC7
:1003E000089582ED94E00E94DB0121E0892B09F45D
:1003F00020E0822F0895FC01A48DA80FB92FB11D14
:10040000A35ABF4F2C91848D90E001968F7399274A
:10041000848FA689B7892C93A089B1898C91837028
:1004200080648C93938D848D981306C00288F38921
:10043000E02D80818F7D80830895EF92FF920F934E
:100440001F93CF93DF93EC0181E0888F9B8D8C8D80
:1004500098131AC0E889F989808185FF15C09FB774
:10046000F894EE89FF896083E889F9898081837037
:10047000806480839FBF81E090E0DF91CF911F91E6
:100480000F91FF90EF900895F62E0B8D10E00F5F07
:100490001F4F0F731127E02E8C8D8E110CC00FB6DD
:1004A00007FCFACFE889F989808185FFF5CFCE0175
:1004B0000E94FB01F1CFEB8DEC0FFD2FF11DE35AF4
:1004C000FF4FF0829FB7F8940B8FEA89FB898081F8
:1004D0008062CFCF682F82ED94E00C941D02CF9301
:1004E000DF93EC01888D8823B9F0AA89BB89E8895C
:1004F000F9898C9185FD03C0808186FD0DC00FB602
:1005000007FCF7CF8C9185FFF2CF808185FFEDCF7F
:10051000CE010E94FB01E9CFDF91CF91089580E0E9
:1005200090E0892B29F00E94F10181110E940000C6
:1005300080E090E0892B29F00E94E70181110E9460
:10054000000080E090E0892B49F080E090E0892B6A
:1005500029F00E94000081110E94000080E090E0DC
:10056000892B49F080E090E0892B29F00E9400005F
:1005700081110C9400000895282F30E0F901E25019
:10058000FE4F9491F901E854FE4F44912E583E4F8E
:10059000F9012491222309F435C0992311F19150D6
:1005A0009231F8F4E92FF0E08827E652FD4F8F4FA3
:1005B0000C94250D0B030F03EC0203030703F10258
:1005C000120318031C03220326032A0330033403F7
:1005D000F10238033E034203809180008F778093BD
:1005E0008000E22FF0E0EE0FFF1FE85AFE4FA591CA
:1005F000B4918FB7F894EC91611148C040954E23A7
:100600004C938FBF0895809180008F7DE8CF8091BB
:100610008000877FE4CF84B58F7784BDE2CF84B537
:100620008F7DFBCF8091B0008F778093B000D9CFC2
:100630008091B0008F7DF9CF809190008F7780936B
:100640009000CFCF809190008F7DF9CF8091900066
:10065000877FF5CF8091A0008F778093A000C1CFD6
:100660008091A0008F7DF9CF8091A000877FF5CF8A
:10067000809120018F7780932001B3CF809120015A
:100680008F7DF9CF80912001877FF5CF4E2BB8CF9A
:100690003FB7F8948091CE049091CF04A091D004FC
:1006A000B091D10426B5A89B05C02F3F19F0019643
:1006B000A11DB11D3FBFBA2FA92F982F8827BC01BC
:1006C000CD01620F711D811D911D42E0660F771FE4
:1006D000881F991F4A95D1F708958F929F92AF92E4
:1006E000BF92CF92DF92EF92FF920E9448034B019C
:1006F0005C0188EEC82E83E0D82EE12CF12C0E94FC
:100700004803681979098A099B09683E7340810585
:100710009105A8F321E0C21AD108E108F10888EE9A
:10072000880E83E0981EA11CB11CC114D104E10401
:10073000F10429F7FF90EF90DF90CF90BF90AF903A
:100740009F908F90089520917D04260F3327331FAB
:1007500021323105ECF42091A104FC0190E080E00D
:10076000243069F082E00895A0917D042191AC01CC
:10077000435A5B4FA40FB52FB11D2C9301968617DA
:1007800098F380917D04680F60937D0480E0089564
:1007900081E0089508958FEF9FEF08958FEF9FEF09
:1007A00008958091560490E091958195910908955E
:1007B000CF93DF93CB01EA01642F0E94A303CE0104
:1007C000DF91CF910895CF93DF931F92CDB7DEB71E
:1007D000698361E0CE0101960E94A30381E090E06D
:1007E0000F90DF91CF91089590E080E008952F92CF
:1007F0003F924F925F926F927F928F929F92AF92B1
:10080000BF92CF92DF92EF92FF920F931F93CF93FD
:10081000DF932C011A0189013B01D0E0C0E069019E
:10082000F12CE12CC215D30591F18FB7F89480908B
:10083000CA049090CB04A090CC04B090CD048FBF9C
:10084000D20112968D919C91DC01ED91FC91028474
:10085000F385E02D199597FF2EC00115110581F341
:100860002FB7F8948091CA049091CB04A091CC0446
:10087000B091CD042FBF88199909AA09BB098C151D
:100880009D05AE05BF05E0F28EEF209709F08C2F95
:10089000DF91CF911F910F91FF90EF90DF90CF905C
:1008A000BF90AF909F908F907F906F905F904F9090
:1008B0003F902F900895F30181933F012196B2CF8D
:1008C000AF92BF92CF92DF92EF92FF920F931F935E
:1008D000CF93DF9300D01F921F92CDB7DEB77C017C
:1008E000062FB72E142F690143E050E0BE016F5F61
:1008F0007F4F0E94F703181694F08EEF9FEF0F9032
:100900000F900F900F900F90DF91CF911F910F914B
:10091000FF90EF90DF90CF90BF90AF9008958981C6
:10092000882319F08DEF9FEFEACF8A818111FACFEA
:100930008B818F3FB9F7960142E050E0BE016C5FBA
:100940007F4FC7010E94F7031816BCF68C819D816A
:10095000980F41F782508C83181708F448C0F701AC
:100960001481AA24A394A10E960142E050E0BE0196
:100970006F5F7F4FC7010E94F70318160CF0BDCFC1
:100980008981853D79F68A818A11CCCF4C8150E0EE
:100990009601602F7B2DC7010E94F7032C81082E42
:1009A000000C990B2817190609F0A7CF1A52902F9F
:1009B000E02FFB2D8E2F891B821718F48191180FC1
:1009C000F9CF960142E050E0BE016F5F7F4FC70153
:1009D0000E94F70318160CF090CF8981180F09F0C8
:1009E000A1CF8A8181119ECF8C8190E088CF8CEF3E
:1009F0009FEF85CFFC01828193810C945601DC012D
:100A0000ED91FC910190F081E02D1994CF93DF934B
:100A1000EC0165E570E08A819B810E94FF0465E539
:100A200070E08A819B810E94FF048A819B81DC01A6
:100A3000ED91FC910190F081E02D60E019958A81A3
:100A40009B81DC01ED91FC910190F081E02D60E053
:100A500019958A819B81DC01ED91FC910190F081D7
:100A6000E02D60E019958A819B81DC01ED91FC917C
:100A70000084F185E02D19958A819B81DC01ED913F
:100A8000FC910084F185E02D1995892B49F08A812C
:100A90009B81DC01ED91FC910284F385E02DEBCF8D
:100AA000DF91CF910895FC0101900020E9F7319783
:100AB000AF01481B590BBC0182ED94E00C947D0101
:100AC0008F929F92AF92BF920F931F93CF93DF931A
:100AD000CDB7DEB7A1970FB6F894DEBF0FBECDBF7E
:100AE00019A2423008F44AE08E010F5D1F4F842E98
:100AF000912CB12CA12CA50194010E94030DE62F8D
:100B0000B901CA01EA30F4F4E05DD801EE938D0139
:100B1000232B242B252B79F790E080E0109719F0F8
:100B2000CD010E945305A1960FB6F894DEBF0FBE0B
:100B3000CDBFDF91CF911F910F91BF90AF909F904C
:100B40008F900895E95CE1CFCF93DF930E94530526
:100B5000EC018AE292E00E9453058C0F9D1FDF9109
:100B6000CF910895AF92BF92CF92DF92EF92FF9212
:100B70000F931F93CF938C016A017B01C0E08C2FF0
:100B800090E0B0E0A0E08C159D05AE05BF05C8F46F
:100B90005801AC0EB11CF5018081803170F48DE2FA
:100BA00092E00E945305F501608170E090E080E0E2
:100BB00040E10E946005CF5FE2CF80E20E946A02BE
:100BC000F2CF80E392E00E945305C0E08C2F90E0CA
:100BD000B0E0A0E08C159D05AE05BF0558F4F80106
:100BE000EC0FF11D808180320CF48EE20E946A02CB
:100BF000CF5FECCF8CE292E0CF911F910F91FF90ED
:100C0000EF90DF90CF90BF90AF900C94A4051F930E
:100C1000CF93DF9385ED8093BC0080915904909130
:100C20005A04A0915B04B0915C040796A11DB11D0C
:100C300023E0B695A795979587952A95D1F72091AA
:100C4000BC0024FD03C01092A10452C0409159047D
:100C500050915A0460915B0470915C04452B462BC3
:100C6000472B69F30097A105B10541F02AE22A95C7
:100C7000F1F700C00197A109B109E1CF80915804B3
:100C8000C1E0C0935704882399F1D091B800109126
:100C9000BA008091BC008A7B8093BC0060E084E154
:100CA0000E94BC0260E085E10E94BC021092A10497
:100CB000C093A3041092A20461E084E10E94BC02EC
:100CC00061E085E10E94BC028091B9008E7F809333
:100CD000B9008091B9008D7F8093B90088E480933A
:100CE000B80085E48093BC001093BA00D093B8009C
:100CF000DF91CF911F9108959F92AF92BF92CF92B3
:100D0000DF92EF92FF920F931F93CF93DF93CDB7B4
:100D1000DEB72C970FB6F894DEBF0FBECDBF7C01B7
:100D20006B01942EB22EA32EDC0112968D919C9114
:100D3000DC01ED91FC910084F185E02D1995F7011E
:100D400082819381DC01ED91FC910084F185E02D9D
:100D50001995F701A281B381892B41F0ED91FC91A6
:100D600011970284F385E02DCD01E8CFF601808153
:100D7000F7018483ED91FC9111970190F081E02DB2
:100D800060E0CD011995D70112968D919C91DC01FF
:100D9000ED91FC910190F081E02D60E01995F70153
:100DA00082819381DC01ED91FC910190F081E02D35
:100DB0006FEF199561E0600F162F190DF701828111
:100DC0009381DC01ED91FC910190F081E02D612F88
:100DD0001995612F70E0719561957109F701828114
:100DE00093810E94FF0464ED70E0D70112968D910B
:100DF0009C910E94FF04F70182819381492D50E06C
:100E0000DC01ED91FC910280F381E02DB601199592
:100E10009C2DF60114ED8E2F891B891518F48191F4
:100E2000180FF9CFF70182819381402F50E0DC0148
:100E3000ED91FC910280F381E02D6B2D7A2D1995B7
:100E40009B2DEB2DFA2D8E2F891B801718F4819185
:100E5000180FF9CFF70182819381612F6195DC0131
:100E6000ED91FC910190F081E02D1995F7018281BF
:100E70009381DC01ED91FC910190F081E02D60E027
:100E8000199586E0E0E0F2E0DE01179601900D9200
:100E90008A95E1F72AE030E046E050E0BE016F5F5E
:100EA0007F4FC7010E94F70318160CF546E050E08B
:100EB000BE01695F7F4FCE0101960E942D0D21E09A
:100EC000892B09F420E0822F81952C960FB6F89497
:100ED000DEBF0FBECDBFDF91CF911F910F91FF906D
:100EE000EF90DF90CF90BF90AF909F9008958EEFDE
:100EF000ECCF1F920F920FB60F9211240BB60F92E8
:100F00002F933F934F935F936F937F938F939F9311
:100F1000AF93BF93EF93FF9380ED95E00E94FB01A9
:100F2000FF91EF91BF91AF919F918F917F916F91C1
:100F30005F914F913F912F910F900BBE0F900FBE7D
:100F40000F901F9018951F920F920FB60F921124B9
:100F50000BB60F922F938F939F93EF93FF93E09194
:100F6000E005F091E1058081E091E605F091E7056B
:100F700082FD1DC090818091E9058F5F8F73209164
:100F8000EA05821741F0E091E905F0E0E053FA4FFD
:100F9000958F8093E905FF91EF919F918F912F910C
:100FA0000F900BBE0F900FBE0F901F901895808171
:100FB000F2CF1F920F920FB60F9211240BB60F9221
:100FC0002F933F934F935F936F937F938F939F9351
:100FD000AF93BF93EF93FF9382ED94E00E94FB01E8
:100FE000FF91EF91BF91AF919F918F917F916F9101
:100FF0005F914F913F912F910F900BBE0F900FBEBD
:101000000F901F9018951F920F920FB60F921124F8
:101010000BB60F922F938F939F93EF93FF93E091D3
:10102000E204F091E3048081E091E804F091E904A6
:1010300082FD1DC090818091EB048F5F8F732091A2
:10104000EC04821741F0E091EB04F0E0EE52FB4F2C
:10105000958F8093EB04FF91EF919F918F912F914A
:101060000F900BBE0F900FBE0F901F9018958081B0
:10107000F2CF1F920F920FB60F9211242F933F932E
:101080008F939F93AF93BF938091CA049091CB04A9
:10109000A091CC04B091CD043091C90423E0230F7A
:1010A0002D3758F50196A11DB11D2093C9048093D9
:1010B000CA049093CB04A093CC04B093CD04809148
:1010C000CE049091CF04A091D004B091D1040196A8
:1010D000A11DB11D8093CE049093CF04A093D004A2
:1010E000B093D104BF91AF919F918F913F912F9178
:1010F0000F900FBE0F901F90189526E8230F0296B1
:10110000A11DB11DD2CF1F920F920FB60F921124C5
:101110000F900FBE0F901F9018951F920F920FB651
:101120000F9211240BB60F922F933F934F935F931F
:101130006F937F938F939F93AF93BF93EF93FF939F
:101140008091B900887F803609F44DC008F040C016
:10115000883209F4A7C028F5803109F49BC0C8F48F
:10116000882309F4F7C0883009F494C0FF91EF9107
:10117000BF91AF919F918F917F916F915F914F91AF
:101180003F912F910F900BBE0F900FBE0F901F90AD
:101190001895883109F486C0803241F78093A00405
:1011A00014C0803409F49BC040F48033B9F3883311
:1011B000E9F68093A00485ECAEC0803509F483C0C5
:1011C000883509F494C0883489F60E940706CECF8A
:1011D000883909F48AC038F5883729F050F4883600
:1011E00011F0803719F683E08093A10410929F04D8
:1011F00055C0883809F479C0803919F0803809F071
:10120000B5CF80919F04803208F06FC0E0919F04B9
:1012100081E08E0F80939F048091BB00F0E0E15845
:10122000FB4F80833BC0803B39F0D0F4803A09F417
:1012300077C0883A09F09ACF84E08093A104109295
:101240007E0410927D04F0E0E0E0199580917D0429
:1012500081110FC081E080937D0410925D0409C06C
:10126000803C09F4A8CF883C09F4A5CF883B09F05D
:101270007DCFE0917E0481E08E0F80937E04F0E0CC
:10128000E35AFB4F80818093BB0090917E04809154
:101290007D0429C08091C6048093BB0085EC8093B7
:1012A000BC0064CF9091C5048091C404981758F590
:1012B000E091C50481E08E0F8093C504F0E0EC5509
:1012C000FB4F8081E9CFE091C50481E08E0F8093D0
:1012D000C5048091BB00F0E0EC55FB4F80839091FA
:1012E000C5048091C4049817C8F285E8D8CFE0916E
:1012F000C50481E08E0F8093C5048091BB00F0E0AF
:10130000EC55FB4F80838091A30481115ECF81E077
:101310008093A20484EA8093BC001092A10426CF9B
:1013200085EC8093BC001092A10480919F048032D0
:1013300030F4E0919F04F0E0E158FB4F108260919F
:101340009F0470E08FE794E0F0E0E0E019951092E0
:101350009F040CCF1092A00438CFE0EDF5E013828B
:10136000128248EE53E060E070E044835583668368
:10137000778380E192E0918380832DEC30E03587A4
:1013800024872CEC30E03787268728EC30E0318B3F
:10139000208B29EC30E0338B228B2AEC30E0358B2C
:1013A000248B2EEC30E0378B268B118E128E138E11
:1013B000148EA2EDB4E013961C921E92129714960E
:1013C0004D935D936D937C93179711969C938E9399
:1013D00085EC90E01D969C938E931C9784EC90E096
:1013E0001F969C938E931E9780EC90E051969C9351
:1013F0008E93509781EC90E053969C938E935297E6
:1014000082EC90E055969C938E93549786EC90E0F6
:1014100057969C938E93569759961C9259975A9625
:101420001C925A975B961C925B975C961C92ADE659
:10143000B6E082E292E011969C938E931396FC9311
:10144000EE93129714961C921497B093CF05A09325
:10145000CE050895CF93DF93CDB7DEB7AD970FB626
:10146000F894DEBF0FBECDBF789484B5826084BD92
:1014700084B5816084BD85B5826085BD85B5816098
:1014800085BD80916E00816080936E001092810016
:1014900080918100826080938100809181008160D1
:1014A0008093810080918000816080938000809192
:1014B000B10084608093B1008091B000816080931E
:1014C000B0008091910082608093910080919100A2
:1014D0008160809391008091900081608093900062
:1014E0008091A10082608093A1008091A100816021
:1014F0008093A1008091A00081608093A0008091E2
:10150000210182608093210180912101816080937B
:1015100021018091200181608093200180917A00D7
:10152000846080937A0080917A00826080937A0050
:1015300080917A00816080937A0080917A0080683F
:1015400080937A001092C10082ED94E00E945601CF
:1015500085E392E00E94A4058091CE059091CF058D
:10156000DC01ED91FC910190F081E02D19958091C5
:10157000CE059091CF05DC01ED91FC910280F381C5
:10158000E02D199582E080938E058091CE05909193
:10159000CF05DC01ED91FC910480F581E02D00E0A8
:1015A00030E020E041E06EE875E01995882329F0ED
:1015B0008CE392E00E945305FFCF8091CE0590917D
:1015C000CF05DC01ED91FC910680F781E02D28EE3E
:1015D00033E040E46EE875E0199597FDE9CFC090DF
:1015E0008E05D0908F05DC24CD24DC24F12CE12C59
:1015F000FE2CED2CDC2CCC2480919005C82AFE2CEE
:10160000ED2CDC2CCC2480919105C82AC114D10486
:10161000E104F10469F284E592E00E9453056F2D24
:1016200077278827992740E10E9460058AE292E0A7
:101630000E94530583E692E00E9453056E2D70E0F0
:1016400090E080E04AE00E9460058EE20E946A021B
:101650006D2D70E090E080E04AE00E9460058AE233
:1016600092E00E94530594E190938E0581E080936F
:101670008F0590939005809391058091CE05909170
:10168000CF05DC01ED91FC910480F581E02D00E0B7
:1016900030E020E044E06EE875E01995811110C05B
:1016A0008091CE059091CF05DC01ED91FC910680F3
:1016B000F781E02D28EE33E040E46EE875E01995FF
:1016C00082E792E00E94A40597E0992E7E01B1E2A4
:1016D000EB0EF11C2AE4822EDD24D3947E2C30E321
:1016E000C32E44E0642E50E6552EF701892D119249
:1016F0008A95E9F780928E05D0928F051092900519
:101700008091CE059091CF05DC01ED91FC91048094
:10171000F581E02D00E030E020E043E06EE875E088
:10172000199581111AC18091CE059091CF05DC01E8
:10173000ED91FC910680F781E02D28EE33E040E446
:101740006EE875E0199597FD08C180918E0581308E
:1017500009F003C110919305A4E9B5E05701F70121
:101760008E2F8E19811718F48D918193F9CF84E90A
:1017700092E00E94A4058CEA92E00E945305612F3A
:1017800070E090E080E04AE00E9460058BEB92E020
:101790000E94A40582EC92E00E9453058A2D8719CD
:1017A0008117A8F4F50101915F01003160F48DE229
:1017B00092E00E945305602F70E090E080E040E1ED
:1017C0000E946005EBCF80E20E946A02F4CF8CE2B7
:1017D00092E00E94A4058CE292E00E94A4051430DD
:1017E00009F0C6C080ED92E00E94A4058FEF92E060
:1017F0000E94A40586E0E6E0F2E0DE019896019002
:101800000D928A95E1F786E0FE01B896A7E7B5E06C
:1018100001900D928A95E1F784E0F701AFE6B5E01B
:1018200001900D928A95E1F71093760580E4B82E29
:10183000B0928E05D0928F0550929005109391052D
:1018400086E0E7E7F5E0A2E9B5E001900D928A9520
:10185000E1F780916F0580939805809170058093E2
:1018600099058091710580939A0580917205809306
:101870009B058091CE059091CF05DC01ED91FC9107
:101880000480F581E02D00E030E020E04EE06EE8DD
:1018900075E01995811169C08091CE059091CF05B1
:1018A000DC01ED91FC910680F781E02D28EE33E01C
:1018B00040E46EE875E0199580918E05811155C060
:1018C00086E393E00E94A405B0928E05D0928F0526
:1018D000C0929005109391058091CE059091CF050F
:1018E000DC01ED91FC910480F581E02D30E020E0F9
:1018F00044E06EE875E01995811132C08091CE0503
:101900009091CF05DC01ED91FC910680F781E02DEF
:1019100028EE33E040E46EE875E0199580918E057D
:1019200081111EC080E1EFE8F5E0DE011196019023
:101930000D928A95E1F784E693E00E94A40540E1C8
:1019400050E060E070E0CE0101960E94B2058CE2AA
:1019500092E00E94A4050E946D030E948F02C5CEF2
:1019600085E793E00E94A405F8CF85EB93E0FACFDA
:10197000173099F787EE93E00E94A40588E194E080
:101980000E94A40580E480938E05D0928F05C092BA
:101990009005609291058091CE059091CF05DC0174
:1019A000ED91FC910480F581E02D00E030E020E035
:1019B00044E06EE875E01995811122C08091CE0552
:1019C0009091CF05DC01ED91FC910680F781E02D2F
:1019D00028EE33E040E46EE875E0199580918E05BD
:1019E00081110EC084E0EFE8F5E0DE011196019070
:1019F0000D928A95E1F744E050E060E070E0A3CFFB
:101A000087E294E0AFCFA1E21A2EAA1BBB1BFD0117
:101A10000DC0AA1FBB1FEE1FFF1FA217B307E407CD
:101A2000F50720F0A21BB30BE40BF50B661F771F25
:101A3000881F991F1A9469F7609570958095909505
:101A40009B01AC01BD01CF010895EE0FFF1F881F60
:101A50008BBF0790F691E02D1994FB01DC0104C0C7
:101A60008D910190801921F441505040C8F7881B96
:081A7000990B0895F894FFCFD3
:101A78000000FF00FF00FFFFFFFFFFFF0000000066
:101A88001D027D01AA016F02DB01B901CD01000031
:101A98000000FA0406057C0660040D0A00203000E8
:101AA800202020200048656C6C6F21004469646E1A
:101AB80027742066696E6420504E35337820626F33
:101AC80061726400466F756E6420636869702050A7
:101AD8004E35004669726D77617265207665722EA3
:101AE800200057616974696E6720666F7220616EA5
:101AF8002049534F313434343341204361726420D8
:101B08002E2E2E00466F756E6420616E2049534F4D
:101B180031343434334120636172640020205549E4
:101B280044204C656E6774683A20002062797465B9
:101B3800730020205549442056616C75653A200091
:101B48005365656D7320746F2062652061204D694F
:101B58006661726520436C617373696320636172A7
:101B6800642028342062797465205549442900543A
:101B78007279696E6720746F2061757468656E7418
:101B8800696361746520626C6F636B2034207769C8
:101B980074682064656661756C74204B45594120F2
:101BA80076616C756500536563746F722031202807
:101BB800426C6F636B7320342E2E37292068617353
:101BC800206265656E2061757468656E746963610D
:101BD8007465640052656164696E6720426C6F6366
:101BE8006B20343A004F6F6F7073202E2E2E2075A5
:101BF8006E61626C6520746F207265616420746820
:101C0800652072657175657374656420626C6F63B5
:101C18006B2E202054727920616E6F746865722073
:101C28006B65793F004F6F6F7073202E2E2E2061E9
:101C3800757468656E7469636174696F6E20666136
:101C4800696C65643A2054727920616E6F746865B6
:101C580072206B65793F005365656D7320746F2042
:101C680062652061204D696661726520556C7472E9
:101C7800616C69676874207461672028372062790D
:101C8800746520554944290052656164696E67206E
:101C9800706167652034004F6F6F7073202E2E2E91
:101CA80020756E61626C6520746F207265616420B6
:101CB80074686520726571756573746564207061F8
:061CC8006765213F0000EA
:00000001FF
