:100000000C9423010C9454010C9454010C9454014D
:100010000C9454010C9454010C9454010C9454010C
:100020000C9454010C9481080C9481080C94810860
:100030000C9454010C9454010C9454010C945401EC
:100040000C9454010C9454010C9454010C945401DC
:100050000C9454010C9454010C9454010C943708E2
:100060000C9454010C9401080C94D7070C9454017F
:100070000C9454010C9454010C9454010C945401AC
:100080000C9454010C9454010C9454010C9454019C
:100090000C94A1070C9477070C9454010C948B08D2
:1000A0000C9454010C9454010C9454010C9454017C
:1000B0000C9454010C9454010C9454010C9454016C
:1000C0000C9454010C9454010C9454010C9454015C
:1000D0000C9454010C9454010C9454010C9454014C
:1000E0000C9454010C94D3040C94F6010C94A601C6
:1000F0000C94E0020C940D030C9409030C94F5028B
:100100000C94CA020C94F1020C9492010C94110309
:100110000C9403030C9456010C94B4010C94E40267
:100120000C94FB020C9417030C94AB090C94E8029A
:100130000C941B030C947A060C9448020C94C50290
:100140000C9439040C94DC020C9483010C94FF028F
:100150000C9404050C94EB020000220025002800FA
:100160002B002E00310034000201000005010801BF
:100170000B0105050505070508080808020202022B
:100180000A0A080804040404010101010101010133
:100190000303030303030303040707070C0C0C0CFE
:1001A0000C0C0C0C020202020606060606060606E7
:1001B0000B0B0B0B0B0B0B0B010210202008081074
:1001C00020401020408002010201080402010102C7
:1001D00004081020408080402010080402018004A0
:1001E00002018040201008040201080402010102FB
:1001F0000408102040800102040810204080000004
:100200000A0B02090C0D0E08070304010000000090
:1002100000000000000000000000000000000000DE
:10022000000000000000000000001211100000009B
:1002300000000000000000000000000000000000BE
:1002400000000000AB0911241FBECFEFD1E2DEBFDA
:10025000CDBF00E00CBF26E0A2E5B4E001C01D92D6
:10026000AE36B207E1F714E0A0E0B2E0E0EDFAE16B
:1002700000E00BBF02C007900D92A235B107D9F77D
:1002800011E0C3E2D1E000E006C021970109802F10
:10029000FE010E94510DC232D10780E00807A9F784
:1002A0000E94280A0C94660D0C940000AF92BF9235
:1002B000CF92DF92EF92FF920F931F93CF93DF9332
:1002C0006C017B018B01040F151FEB015E01AE1861
:1002D000BF08C017D10759F06991D601ED91FC9183
:1002E0000190F081E02DC6011995892B79F7C501A0
:1002F000DF91CF911F910F91FF90EF90DF90CF9002
:10030000BF90AF900895FC01538D448D252F30E0B0
:10031000842F90E0821B930B541710F0CF96089512
:1003200001970895FC01918D828D981761F0A28D3F
:10033000AE0FBF2FB11D5D968C91928D9F5F9F7305
:10034000928F90E008958FEF9FEF0895FC01918DBB
:10035000828D981731F0828DE80FF11D858D90E028
:1003600008958FEF9FEF0895FC01918D228D892FC5
:1003700090E0805C9F4F821B91098F7399270895AD
:100380008CEC95E00E94B40121E0892B09F420E077
:10039000822F08958EEC94E00E94B40121E0892B15
:1003A00009F420E0822F0895FC01A48DA80FB92F35
:1003B000B11DA35ABF4F2C91848D90E001968F738D
:1003C0009927848FA689B7892C93A089B1898C91AC
:1003D000837080648C93938D848D981306C00288FB
:1003E000F389E02D80818F7D80830895EF92FF92C5
:1003F0000F931F93CF93DF93EC0181E0888F9B8D48
:100400008C8D98131AC0E889F989808185FF15C001
:100410009FB7F894EE89FF896083E889F989808124
:100420008370806480839FBF81E090E0DF91CF91F3
:100430001F910F91FF90EF900895F62E0B8D10E015
:100440000F5F1F4F0F731127E02E8C8D8E110CC084
:100450000FB607FCFACFE889F989808185FFF5CFCF
:10046000CE010E94D401F1CFEB8DEC0FFD2FF11DD9
:10047000E35AFF4FF0829FB7F8940B8FEA89FB890C
:1004800080818062CFCF682F8EEC94E00C94F601CF
:10049000CF93DF93EC01888D8823B9F0AA89BB89BB
:1004A000E889F9898C9185FD03C0808186FD0DC0A6
:1004B0000FB607FCF7CF8C9185FFF2CF808185FFC7
:1004C000EDCFCE010E94D401E9CFDF91CF91089505
:1004D00080E090E0892B29F00E94CA0181110E94DE
:1004E000000080E090E0892B29F00E94C00181117A
:1004F0000E94000080E090E0892B49F080E090E0CD
:10050000892B29F00E94000081110E94000080E0E8
:1005100090E0892B49F080E090E0892B29F00E943F
:10052000000081110C9400000895282F30E0F9019B
:10053000E250FE4F9491F901E854FE4F44912E5839
:100540003E4FF9012491222309F435C0992311F17A
:1005500091509231F8F4E92FF0E08827ED54FD4FE7
:100560008F4F0C94510DE402E802C502DC02E00258
:10057000CA02EB02F102F502FB02FF0203030903C8
:100580000D03CA02110317031B03809180008F77AC
:1005900080938000E22FF0E0EE0FFF1FE85AFE4F3D
:1005A000A591B4918FB7F894EC91611148C0409532
:1005B0004E234C938FBF0895809180008F7DE8CFAC
:1005C00080918000877FE4CF84B58F7784BDE2CFB0
:1005D00084B58F7DFBCF8091B0008F778093B00082
:1005E000D9CF8091B0008F7DF9CF809190008F7727
:1005F00080939000CFCF809190008F7DF9CF809134
:100600009000877FF5CF8091A0008F778093A00026
:10061000C1CF8091A0008F7DF9CF8091A000877F0E
:10062000F5CF809120018F7780932001B3CF809107
:1006300020018F7DF9CF80912001877FF5CF4E2B50
:10064000B8CF3FB7F8948091CA049091CB04A091A1
:10065000CC04B091CD0426B5A89B05C02F3F19F05E
:100660000196A11DB11D3FBFBA2FA92F982F882732
:10067000BC01CD01620F711D811D911D42E0660F0D
:10068000771F881F991F4A95D1F708958F929F92DF
:10069000AF92BF92CF92DF92EF92FF920E9421031E
:1006A0004B015C0188EEC82E83E0D82EE12CF12CA2
:1006B0000E942103681979098A099B09683E7340E1
:1006C00081059105A8F321E0C21AD108E108F108DB
:1006D00088EE880E83E0981EA11CB11CC114D104C1
:1006E000E104F10429F7FF90EF90DF90CF90BF90E5
:1006F000AF909F908F90089520917904260F332713
:10070000331F21323105ECF420919D04FC0190E06F
:1007100080E0243069F082E00895A091790421916D
:10072000AC01475A5B4FA40FB52FB11D2C93019616
:10073000861798F380917904680F6093790480E0BC
:10074000089581E0089508958FEF9FEF08958FEF4A
:100750009FEF08958091520490E0919581959109C1
:100760000895CF93DF93CB01EA01642F0E947C03AD
:10077000CE01DF91CF910895CF93DF931F92CDB734
:10078000DEB7698361E0CE0101960E947C0381E0BF
:1007900090E00F90DF91CF91089590E080E0089570
:1007A0002F923F924F925F926F927F928F929F9281
:1007B000AF92BF92CF92DF92EF92FF920F931F936F
:1007C000CF93DF932C011A0189013B01D0E0C0E0F7
:1007D0006901F12CE12CC215D30591F18FB7F89482
:1007E0008090C6049090C704A090C804B090C9043B
:1007F0008FBFD20112968D919C91DC01ED91FC91FD
:100800000284F385E02D199597FF2EC0011511057F
:1008100081F32FB7F8948091C6049091C704A091FA
:10082000C804B091C9042FBF88199909AA09BB0946
:100830008C159D05AE05BF05E0F28EEF209709F0FF
:100840008C2FDF91CF911F910F91FF90EF90DF9050
:10085000CF90BF90AF909F908F907F906F905F9060
:100860004F903F902F900895F30181933F0121967F
:10087000B2CFAF92BF92CF92DF92EF92FF920F93DF
:100880001F93CF93DF9300D01F921F92CDB7DEB797
:100890007C01062FB72E142F690143E050E0BE0102
:1008A0006F5F7F4F0E94D003181694F08EEF9FEF7A
:1008B0000F900F900F900F900F90DF91CF911F919D
:1008C0000F91FF90EF90DF90CF90BF90AF90089581
:1008D0008981882319F08DEF9FEFEACF8A818111FA
:1008E000FACF8B818F3FB9F7960142E050E0BE010D
:1008F0006C5F7F4FC7010E94D0031816BCF68C8135
:100900009D81980F41F782508C83181708F448C0D6
:10091000F7011481AA24A394A10E960142E050E0AD
:10092000BE016F5F7F4FC7010E94D00318160CF005
:10093000BDCF8981853D79F68A818A11CCCF4C81E2
:1009400050E09601602F7B2DC7010E94D0032C81BF
:10095000082E000C990B2817190609F0A7CF1A5278
:10096000902FE02FFB2D8E2F891B821718F4819179
:10097000180FF9CF960142E050E0BE016F5F7F4F44
:10098000C7010E94D00318160CF090CF8981180F70
:1009900009F0A1CF8A8181119ECF8C8190E088CF10
:1009A0008CEF9FEF85CFDC011296ED91FC91A08931
:1009B000B18982E08C93A485B5851C92A685B78504
:1009C00080E18C93108EA489B58986E08C93A289EE
:1009D000B3898C9180618C93A289B3898C91886052
:1009E0008C93A289B3898C9180688C930288F38957
:1009F000E02D80818F7D80830895DC01ED91FC9155
:100A00000190F081E02D1994CF93DF93EC0165E51F
:100A100070E08A819B810E94FD0465E570E08A8117
:100A20009B810E94FD048A819B81DC01ED91FC91F8
:100A30000190F081E02D60E019958A819B81DC01B5
:100A4000ED91FC910190F081E02D60E019958A8193
:100A50009B81DC01ED91FC910190F081E02D60E043
:100A600019958A819B81DC01ED91FC910084F185CF
:100A7000E02D19958A819B81DC01ED91FC91008428
:100A8000F185E02D1995892B49F08A819B81DC0144
:100A9000ED91FC910284F385E02DEBCFDF91CF91B6
:100AA0000895FC0101900020E9F73197AF01481B40
:100AB000590BBC018EEC94E00C9456018F929F92DE
:100AC000AF92BF920F931F93CF93DF93CDB7DEB753
:100AD000A1970FB6F894DEBF0FBECDBF19A242306A
:100AE00008F44AE08E010F5D1F4F842E912CB12C2B
:100AF000A12CA50194010E942F0DE62FB901CA0176
:100B0000EA30F4F4E05DD801EE938D01232B242B21
:100B1000252B79F790E080E0109719F0CD010E9425
:100B20005105A1960FB6F894DEBF0FBECDBFDF9181
:100B3000CF911F910F91BF90AF909F908F9008958C
:100B4000E95CE1CFCF93DF930E945105EC018AE28B
:100B500092E00E9451058C0F9D1FDF91CF91089567
:100B6000AF92BF92CF92DF92EF92FF920F931F93BB
:100B7000CF938C016A017B01C0E08C2F90E0B0E044
:100B8000A0E08C159D05AE05BF05C8F45801AC0E5C
:100B9000B11CF5018081803170F481E294E00E9403
:100BA0005105F501608170E090E080E040E10E9435
:100BB0005E05CF5FE2CF80E20E944302F2CF8DE27A
:100BC00092E00E945105C0E08C2F90E0B0E0A0E0E0
:100BD0008C159D05AE05BF0558F4F801EC0FF11D0D
:100BE000808180320CF48EE20E944302CF5FECCF12
:100BF0008CE292E0CF911F910F91FF90EF90DF90E8
:100C0000CF90BF90AF900C94A2051F93CF93DF932A
:100C100085ED8093BC008091550490915604A0917D
:100C20005704B09158040796A11DB11D23E0B69555
:100C3000A795979587952A95D1F72091BC0024FD1B
:100C400003C010929D0452C0409155045091560427
:100C50006091570470915804452B462B472B69F33C
:100C60000097A105B10541F02AE22A95F1F700C0ED
:100C70000197A109B109E1CF80915404C1E0C0936B
:100C80005304882399F1D091B8001091BA00809153
:100C9000BC008A7B8093BC0060E084E10E949502E6
:100CA00060E085E10E94950210929D04C0939F042C
:100CB00010929E0461E084E10E94950261E085E16A
:100CC0000E9495028091B9008E7F8093B900809137
:100CD000B9008D7F8093B90088E48093B80085E4E3
:100CE0008093BC001093BA00D093B800DF91CF91ED
:100CF0001F9108959F92AF92BF92CF92DF92EF9291
:100D0000FF920F931F93CF93DF93CDB7DEB72C974E
:100D10000FB6F894DEBF0FBECDBF7C016B01942EE1
:100D2000B22EA32EDC0112968D919C91DC01ED91E7
:100D3000FC910084F185E02D1995F7018281938162
:100D4000DC01ED91FC910084F185E02D1995F7010E
:100D5000A281B381892B41F0ED91FC91119702841E
:100D6000F385E02DCD01E8CFF6018081F701848382
:100D7000ED91FC9111970190F081E02D60E0CD01A3
:100D80001995D70112968D919C91DC01ED91FC9102
:100D90000190F081E02D60E01995F7018281938147
:100DA000DC01ED91FC910190F081E02D6FEF199540
:100DB00061E0600F162F190DF70182819381DC012C
:100DC000ED91FC910190F081E02D612F1995612F3B
:100DD00070E0719561957109F701828193810E949C
:100DE000FD0464ED70E0D70112968D919C910E94F4
:100DF000FD04F70182819381492D50E0DC01ED91E2
:100E0000FC910280F381E02DB60119959C2DF6012D
:100E100014ED8E2F891B891518F48191180FF9CFC5
:100E2000F70182819381402F50E0DC01ED91FC912C
:100E30000280F381E02D6B2D7A2D19959B2DEB2DE2
:100E4000FA2D8E2F891B801718F48191180FF9CF76
:100E5000F70182819381612F6195DC01ED91FC9115
:100E60000190F081E02D1995F70182819381DC01D9
:100E7000ED91FC910190F081E02D60E0199586E004
:100E8000E0E0F2E0DE01179601900D928A95E1F71D
:100E90002AE030E046E050E0BE016F5F7F4FC701BF
:100EA0000E94D00318160CF546E050E0BE01695FC1
:100EB0007F4FCE0101960E94590D21E0892B09F444
:100EC00020E0822F81952C960FB6F894DEBF0FBEDE
:100ED000CDBFDF91CF911F910F91FF90EF90DF90E9
:100EE000CF90BF90AF909F9008958EEFECCF1F9260
:100EF0000F920FB60F9211240BB60F922F933F93C0
:100F00004F935F936F937F938F939F93AF93BF9311
:100F1000EF93FF938CEC95E00E94D401FF91EF9149
:100F2000BF91AF919F918F917F916F915F914F9101
:100F30003F912F910F900BBE0F900FBE0F901F90FF
:100F400018951F920F920FB60F9211240BB60F92A5
:100F50002F938F939F93EF93FF93E091DC05F09194
:100F6000DD058081E091E205F091E30582FD1DC081
:100F700090818091E5058F5F8F732091E605821740
:100F800041F0E091E505F0E0E453FA4F958F80934E
:100F9000E505FF91EF919F918F912F910F900BBEDF
:100FA0000F900FBE0F901F9018958081F2CF1F9267
:100FB0000F920FB60F9211240BB60F922F933F93FF
:100FC0004F935F936F937F938F939F93AF93BF9351
:100FD000EF93FF938EEC94E00E94D401FF91EF9188
:100FE000BF91AF919F918F917F916F915F914F9141
:100FF0003F912F910F900BBE0F900FBE0F901F903F
:1010000018951F920F920FB60F9211240BB60F92E4
:101010002F938F939F93EF93FF93E091DE04F091D2
:10102000DF048081E091E404F091E50482FD1DC0BD
:1010300090818091E7048F5F8F732091E80482177D
:1010400041F0E091E704F0E0E253FB4F958F80938D
:10105000E704FF91EF919F918F912F910F900BBE1D
:101060000F900FBE0F901F9018958081F2CF1F92A6
:101070000F920FB60F9211242F933F938F939F934C
:10108000AF93BF938091C6049091C704A091C80408
:10109000B091C9043091C50423E0230F2D3758F5D2
:1010A0000196A11DB11D2093C5048093C6049093A1
:1010B000C704A093C804B093C9048091CA04909156
:1010C000CB04A091CC04B091CD040196A11DB11D1B
:1010D0008093CA049093CB04A093CC04B093CD0426
:1010E000BF91AF919F918F913F912F910F900FBE24
:1010F0000F901F90189526E8230F0296A11DB11D91
:10110000D2CF1F920F920FB60F9211240F900FBEE5
:101110000F901F9018951F920F920FB60F921124E7
:101120000BB60F922F933F934F935F936F937F93E1
:101130008F939F93AF93BF93EF93FF938091B900E9
:10114000887F803609F44DC008F040C0883209F429
:10115000A7C028F5803109F49BC0C8F4882309F49E
:10116000F7C0883009F494C0FF91EF91BF91AF911F
:101170009F918F917F916F915F914F913F912F91AF
:101180000F900BBE0F900FBE0F901F9018958831D7
:1011900009F486C0803241F780939C0414C08034E7
:1011A00009F49BC040F48033B9F38833E9F68093A7
:1011B0009C0485ECAEC0803509F483C0883509F401
:1011C00094C0883489F60E940506CECF883909F488
:1011D0008AC038F5883729F050F4883611F0803706
:1011E00019F683E080939D0410929B0455C08838C3
:1011F00009F479C0803919F0803809F0B5CF8091B1
:101200009B04803208F06FC0E0919B0481E08E0F58
:1012100080939B048091BB00F0E0E558FB4F8083F6
:101220003BC0803B39F0D0F4803A09F477C0883A6B
:1012300009F09ACF84E080939D0410927A04109272
:101240007904F0E0E0E019958091790481110FC0F4
:1012500081E0809379041092590409C0803C09F41C
:10126000A8CF883C09F4A5CF883B09F07DCFE09159
:101270007A0481E08E0F80937A04F0E0E75AFB4F06
:1012800080818093BB0090917A048091790429C079
:101290008091C2048093BB0085EC8093BC0064CF36
:1012A0009091C1048091C004981758F5E091C10451
:1012B00081E08E0F8093C104F0E0E056FB4F808107
:1012C000E9CFE091C10481E08E0F8093C104809149
:1012D000BB00F0E0E056FB4F80839091C104809109
:1012E000C0049817C8F285E8D8CFE091C10481E026
:1012F0008E0F8093C1048091BB00F0E0E056FB4F5D
:10130000808380919F0481115ECF81E080939E0451
:1013100084EA8093BC0010929D0426CF85EC8093D4
:10132000BC0010929D0480919B04803230F4E091C7
:101330009B04F0E0E558FB4F108260919B0470E045
:101340008BE794E0F0E0E0E0199510929B040CCF5D
:1013500010929C0438CFECECF5E01382128248EE38
:1013600053E060E070E0448355836683778380E1D7
:1013700092E0918380832DEC30E0358724872CEC3C
:1013800030E03787268728EC30E0318B208B29EC42
:1013900030E0338B228B2AEC30E0358B248B2EEC23
:1013A00030E0378B268B118E128E138E148EAEEC9E
:1013B000B4E013961C921E92129714964D935D936F
:1013C0006D937C93179711969C938E9385EC90E088
:1013D0001D969C938E931C9784EC90E01F969C9393
:1013E0008E931E9780EC90E051969C938E9350972D
:1013F00081EC90E053969C938E93529782EC90E010
:1014000055969C938E93549786EC90E057969C93B8
:101410008E93569759961C9259975A961C925A97A2
:101420005B961C925B975C961C92A9E6B6E082E202
:1014300092E011969C938E931396FC93EE931297E1
:1014400014961C921497B093CB05A093CA050895E7
:10145000CF93DF93CDB7DEB7AD970FB6F894DEBF6D
:101460000FBECDBF789484B5826084BD84B58160A1
:1014700084BD85B5826085BD85B5816085BD80915F
:101480006E00816080936E001092810080918100D7
:1014900082608093810080918100816080938100CF
:1014A000809180008160809380008091B100846091
:1014B0008093B1008091B00081608093B0008091F2
:1014C000910082608093910080919100816080936F
:1014D0009100809190008160809390008091A100A4
:1014E00082608093A1008091A10081608093A1001F
:1014F0008091A00081608093A00080912101826092
:10150000809321018091210181608093210180914C
:10151000200181608093200180917A008460809313
:101520007A0080917A00826080937A0080917A00BC
:10153000816080937A0080917A00806880937A003D
:101540001092C100E091DE04F091DF0412E01083FC
:10155000E091DA04F091DB041082E091DC04F09178
:10156000DD048FEC80831092E604E091E204F091B8
:10157000E30486E08083E091E004F091E10480815F
:1015800080618083E091E004F091E10480818860D3
:101590008083E091E004F091E104808180688083A1
:1015A000E091E004F091E10480818F7D808382E30B
:1015B00092E00E94A2058091CA059091CB05DC01C2
:1015C000ED91FC910190F081E02D19958091CA0573
:1015D0009091CB05DC01ED91FC910280F381E02D2F
:1015E000199510938A058091CA059091CB05DC016D
:1015F000ED91FC910480F581E02D00E030E020E0E9
:1016000041E06AE875E01995882329F089E392E0C2
:101610000E945105FFCF8091CA059091CB05DC0156
:10162000ED91FC910680F781E02D28EE33E040E457
:101630006AE875E0199597FDE9CFC0908A05D090CA
:101640008B05DC24CD24DC24F12CE12CFE2CED2CAC
:10165000DC2CCC2480918C05C82AFE2CED2CDC2CB3
:10166000CC2480918D05C82AC114D104E104F10471
:1016700069F281E592E00E9451056F2D7727882756
:10168000992740E10E945E058AE292E00E9451059E
:1016900080E692E00E9451056E2D70E090E080E0BF
:1016A0004AE00E945E058EE20E9443026D2D70E0CA
:1016B00090E080E04AE00E945E058AE292E00E94AB
:1016C000510594E190938A0581E080938B05909376
:1016D0008C0580938D058091CA059091CB05DC0126
:1016E000ED91FC910480F581E02D00E030E020E0F8
:1016F00044E06AE875E01995811110C08091CA052F
:101700009091CB05DC01ED91FC910680F781E02DF5
:1017100028EE33E040E46AE875E019958FE692E040
:101720000E94A20597E0992E7E01B1E2EB0EF11C1A
:101730002AE4822EDD24D3947E2C30E3C32E40E6AF
:10174000642EF701892D11928A95E9F780928A0516
:10175000D0928B0510928C058091CA059091CB0593
:10176000DC01ED91FC910480F581E02D00E030E09A
:1017700020E043E06AE875E0199581111AC1809173
:10178000CA059091CB05DC01ED91FC910680F781B3
:10179000E02D28EE33E040E46AE875E0199597FD06
:1017A00008C180918A05813009F003C110918F052D
:1017B000A0E9B5E05701F7018E2F8E19811718F4B3
:1017C0008D918193F9CF81E992E00E94A20589EA87
:1017D00092E00E945105612F70E090E080E04AE0C5
:1017E0000E945E0588EB92E00E94A2058FEB92E0DA
:1017F0000E9451058A2D87198117A8F4F5010191DE
:101800005F01003160F481E294E00E945105602F95
:1018100070E090E080E040E10E945E05EBCF80E266
:101820000E944302F4CF8CE292E00E94A2058CE277
:1018300092E00E94A205143009F0C6C08DEC92E03F
:101840000E94A2058CEF92E00E94A20586E0E6E0ED
:10185000F2E0DE01989601900D928A95E1F786E01C
:10186000FE01B896A3E7B5E001900D928A95E1F7E5
:1018700084E0F701ABE6B5E001900D928A95E1F7BF
:101880001093720580E4B82EB0928A05D0928B0531
:1018900060928C0510938D0586E0E3E7F5E0AEE8F5
:1018A000B5E001900D928A95E1F780916B058093E8
:1018B000940580916C058093950580916D058093CA
:1018C000960580916E05809397058091CA05909149
:1018D000CB05DC01ED91FC910480F581E02D00E069
:1018E00030E020E04EE06AE875E01995811169C0AA
:1018F0008091CA059091CB05DC01ED91FC910680A9
:10190000F781E02D28EE33E040E46AE875E01995B0
:1019100080918A05811155C083E393E00E94A2055E
:10192000B0928A05D0928B05C0928C0510928D05DD
:101930008091CA059091CB05DC01ED91FC9104806A
:10194000F581E02D30E020E044E06AE875E019958B
:10195000811132C08091CA059091CB05DC01ED91D7
:10196000FC910680F781E02D28EE33E040E46AE840
:1019700075E0199580918A0581111EC080E1EBE820
:10198000F5E0DE01119601900D928A95E1F781E66E
:1019900093E00E94A20540E150E060E070E0CE01DB
:1019A00001960E94B0058CE292E00E94A2050E947E
:1019B00046030E946802C5CE82E793E00E94A2051A
:1019C000F8CF82EB93E0FACF173099F784EE93E0EB
:1019D0000E94A20585E194E00E94A20580E4809324
:1019E0008A05D0928B05C0928C0510928D0580914E
:1019F000CA059091CB05DC01ED91FC910480F58145
:101A0000E02D00E030E020E044E06AE875E0199560
:101A1000811122C08091CA059091CB05DC01ED9126
:101A2000FC910680F781E02D28EE33E040E46AE87F
:101A300075E0199580918A0581110EC084E0EBE86C
:101A4000F5E0DE01119601900D928A95E1F744E0F0
:101A500050E060E070E0A3CF84E294E0AFCFA1E279
:101A60001A2EAA1BBB1BFD010DC0AA1FBB1FEE1F18
:101A7000FF1FA217B307E407F50720F0A21BB30B63
:101A8000E40BF50B661F771F881F991F1A9469F7DF
:101A900060957095809590959B01AC01BD01CF013B
:101AA0000895EE0FFF1F881F8BBF0790F691E02D62
:101AB0001994FB01DC0104C08D910190801921F47F
:101AC00041505040C8F7881B990B0895F894FFCFF8
:101AD0000000FF00FF00FFFFFFFFFFFF000000000E
:101AE000F601560183014802B4019201A6010000EB
:101AF0000000D30404057A0639040D0A00202020D2
:101B0000200048656C6C6F21004469646E27742066
:101B100066696E6420504E35337820626F6172645E
:101B200000466F756E64206368697020504E350002
:101B30004669726D77617265207665722E20005756
:101B4000616974696E6720666F7220616E20495307
:101B50004F3134343433412043617264202E2E2EB1
:101B600000466F756E6420616E2049534F313434E6
:101B70003433412063617264002020554944204C75
:101B8000656E6774683A200020627974657300207E
:101B9000205549442056616C75653A2000536565AF
:101BA0006D7320746F2062652061204D69666172DB
:101BB0006520436C617373696320636172642028DC
:101BC000342062797465205549442900547279693A
:101BD0006E6720746F2061757468656E74696361E7
:101BE000746520626C6F636B2030207769746820A5
:101BF00064656661756C74204B4559412076616C53
:101C0000756500536563746F7220312028426C6FD4
:101C1000636B7320342E2E37292068617320626530
:101C2000656E2061757468656E746963617465645E
:101C30000052656164696E6720426C6F636B20308F
:101C40003A004F6F6F7073202E2E2E20756E6162DA
:101C50006C6520746F207265616420746865207201
:101C6000657175657374656420626C6F636B2E209B
:101C70002054727920616E6F74686572206B65798B
:101C80003F004F6F6F7073202E2E2E206175746889
:101C9000656E7469636174696F6E206661696C65F5
:101CA000643A2054727920616E6F74686572206B9B
:101CB00065793F005365656D7320746F2062652000
:101CC00061204D696661726520556C7472616C6942
:101CD00067687420746167202837206279746520F2
:101CE000554944290052656164696E6720706167D7
:101CF000652030004F6F6F7073202E2E2E20756E72
:101D000061626C6520746F2072656164207468651F
:101D100020726571756573746564207061676521F3
:021D20003F0082
:00000001FF
