:100000000C9481000C948A040C9463040C94A90051
:100010000C94A9000C94A9000C94A9000C94B104B0
:100020000C94A9000C94A9000C94A9000C94A900AC
:100030000C94A9000C94A9000C94A9000C94A9009C
:100040000C9419040C94A9000C94E7030C94C103BC
:100050000C94A9000C94A9000C94A9000C94A9007C
:100060000C94A9000C94A9000000000023002600B5
:10007000290000000008000201000003040700003E
:1000800000000000000045766572792074696D6596
:1000900020796F752070726573732061206B6579AC
:1000A00020697320612073657269616C206D6F6EC9
:1000B00069746F722077652077696C6C2073656E48
:1000C000642E0000000000250028002B0000000026
:1000D00000240027002A0004040404040404040289
:1000E00002020202020303030303030102040810D5
:1000F00020408001020408102001020408102000A2
:10010000970511241FBECFEFD8E0DEBFCDBF12E0B0
:10011000A0E0B1E0EEE1FDE002C005900D92AA374B
:10012000B107D9F724E0AAE7B2E001C01D92A630DA
:10013000B207E1F710E0C1E8D0E004C02197FE016A
:100140000E947E06C038D107C9F70E94D0050C94E2
:100150008D060C940000EEEEF0E02491EAEDF0E064
:100160008491882399F090E0880F991FFC01E35354
:10017000FF4FA591B491FC01ED53FF4F85919491F0
:100180008FB7F894EC91E22BEC938FBF0895AF9268
:10019000BF92CF92DF92EF92FF920F931F93CF9374
:1001A000DF936C017B018B01040F151FEB015E01D6
:1001B000AE18BF08C017D10759F06991D601ED916B
:1001C000FC910190F081E02DC6010995892B79F70A
:1001D000C501DF91CF911F910F91FF90EF90DF90BC
:1001E000CF90BF90AF900895FC01538D448D252F83
:1001F00030E0842F90E0821B930B541710F0CF96C1
:10020000089501970895FC01918D828D981761F0F2
:10021000A28DAE0FBF2FB11D5D968C91928D9F5F09
:100220009F73928F90E008958FEF9FEF0895FC01E8
:10023000918D828D981731F0828DE80FF11D858D9B
:1002400090E008958FEF9FEF0895FC01918D228D2E
:10025000892F90E0805C9F4F821B91098F739927B3
:10026000089580E693E00E94250121E0892B09F49E
:1002700020E0822F089580E090E0892B29F00E94F1
:10028000310181110C9400000895FC01A48DA80F88
:10029000B92FB11DA35ABF4F2C91848D90E00196C8
:1002A0008F739927848FA689B7892C93A089B189E8
:1002B0008C91837080648C93938D848D981306C089
:1002C0000288F389E02D80818F7D80830895EF92ED
:1002D000FF920F931F93CF93DF93EC0181E0888F00
:1002E0009B8D8C8D98131AC0E889F989808185FFD0
:1002F00015C09FB7F894EE89FF896083E889F98972
:1003000080818370806480839FBF81E090E0DF9173
:10031000CF911F910F91FF90EF900895F62E0B8DC6
:1003200010E00F5F1F4F0F731127E02E8C8D8E1181
:100330000CC00FB607FCFACFE889F989808185FFE8
:10034000F5CFCE010E944501F1CFEB8DEC0FFD2FD3
:10035000F11DE35AFF4FF0829FB7F8940B8FEA89A3
:10036000FB8980818062CFCFCF93DF93EC01888DB2
:100370008823B9F0AA89BB89E889F9898C9185FD20
:1003800003C0808186FD0DC00FB607FCF7CF8C91AE
:1003900085FFF2CF808185FFEDCFCE010E94450120
:1003A000E9CFDF91CF910895833081F028F4813037
:1003B00099F08230A9F008958730A9F08830C9F00B
:1003C0008430B1F4809180008F7D03C080918000E3
:1003D0008F7780938000089584B58F7784BD0895CA
:1003E00084B58F7DFBCF8091B0008F778093B00074
:1003F00008958091B0008F7DF9CF1F93CF93DF9345
:10040000282F30E0F901EE58FF4F8491F901E551B2
:10041000FF4FD491F901E952FF4FC491CC23A9F0C9
:10042000162F81110E94D401EC2FF0E0EE0FFF1F78
:10043000ED53FF4FA591B4918FB7F894EC91111142
:1004400008C0D095DE23DC938FBFDF91CF911F9141
:100450000895DE2BF8CF3FB7F894809181029091F8
:100460008202A0918302B091840226B5A89B05C0A8
:100470002F3F19F00196A11DB11D3FBFBA2FA92F23
:10048000982F8827BC01CD01620F711D811D911D20
:1004900042E0660F771F881F991F4A95D1F708958C
:1004A0008F929F92AF92BF92CF92DF92EF92FF9284
:1004B0006B017C010E942B024B015C01C114D10431
:1004C000E104F104B9F00E942B02681979098A0944
:1004D0009B09683E73408105910580F321E0C21AB3
:1004E000D108E108F10888EE880E83E0981EA11C6F
:1004F000B11CE4CFFF90EF90DF90CF90BF90AF9012
:100500009F908F90089508959C01892B39F121388F
:100510008EE33807C0F0C90168EE73E00E946A06F6
:100520008230910538F0880F991F880F991F059721
:100530000197F1F7C90168EE73E00E946A0690E046
:1005400080E00C9450022130310541F0C901880F40
:10055000991F880F991F05970197F1F708958F92BA
:100560009F92AF92BF92EF92FF921F93CF93DF9330
:10057000D82FC92F109270000E94AB0060E083E07A
:100580000E94FD0181E08093B00089E08093B1007A
:100590008EED8093B3008AE48093B400ED2EFC2EA0
:1005A00010E0E091FD03F091FE033697C081D18108
:1005B000C350DC4FF701819191917F014C01B12C27
:1005C000A12C2091B00010FF23C02F7D2093B000FC
:1005D0000E94840288819981AA81BB81880D991D1E
:1005E000AA1DBB1D88839983AA83BB831F5F163313
:1005F000C1F68091B0008F7D8093B000DF91CF91E4
:100600001F91FF90EF90BF90AF909F908F900895B3
:100610002062DCCF42E050E060E672E080E693E0EA
:100620000C94C700CF93DF93FC0101900020E9F701
:100630003197AF01481B590BBC0180E693E00E9443
:10064000C700EC010E940A038C0F9D1FDF91CF9120
:100650000895CF93DF93CDB7DEB7CC56D1090FB64F
:10066000F894DEBF0FBECDBF80E693E00E94250167
:10067000181619060CF051C080E693E00E940301A1
:1006800080937B028133A9F48CE6E4E0F1E0DE01A3
:10069000119601900D928A95E1F7CE0101960E9484
:1006A000AF02CE0101960E94AF0283E692E00E9463
:1006B000120380917B028233A9F48CE6E0E7F1E03B
:1006C000DE01119601900D928A95E1F7CE01019617
:1006D0000E94AF02CE0101960E94AF028DE692E029
:1006E0000E94120380917B02833309F0BDCF8CE618
:1006F000ECEDF1E0DE01119601900D928A95E1F7A3
:10070000CE0101960E94AF02CE0101960E94AF0277
:1007100083E792E00E941203A7CFC459DF4F0FB6C0
:10072000F894DEBF0FBECDBFDF91CF910895CF9378
:10073000C1E0C0938D0284E080935F0380918602C4
:100740008823E9F080918C028823C9F040915703F7
:1007500050E0440F551F6FE872E08091580390916C
:1007600059030E9484068091570380935A03109284
:100770008C02C0938E0210925703C0935F03CF91F7
:1007800008951F920F920FB60F9211242F933F934B
:100790004F935F936F937F938F939F93AF93BF9389
:1007A000EF93FF9380E693E00E944501FF91EF9164
:1007B000BF91AF919F918F917F916F915F914F9179
:1007C0003F912F910F900FBE0F901F9018951F9281
:1007D0000F920FB60F9211242F938F939F93EF9345
:1007E000FF93E0917003F09171038081E0917603B3
:1007F000F091770382FD1BC09081809179038F5F18
:100800008F7320917A03821741F0E0917903F0E031
:10081000E05AFC4F958F80937903FF91EF919F9160
:100820008F912F910F900FBE0F901F901895808180
:10083000F4CF1F920F920FB60F9211242F933F9374
:100840008F939F93AF93BF9380917D0290917E028F
:10085000A0917F02B091800230917C0223E0230FAF
:100860002D3758F50196A11DB11D20937C02809370
:100870007D0290937E02A0937F02B09380028091CC
:10088000810290918202A0918302B091840201962C
:10089000A11DB11D8093810290938202A0938302D7
:1008A000B0938402BF91AF919F918F913F912F910F
:1008B0000F900FBE0F901F90189526E8230F0296F9
:1008C000A11DB11DD2CF1F920F920FB60F9211240E
:1008D0002F933F934F935F936F937F938F939F9348
:1008E000AF93BF93EF93FF93E0910201F091030167
:1008F0000995FF91EF91BF91AF919F918F917F915A
:100900006F915F914F913F912F910F900FBE0F907C
:100910001F9018951F920F920FB60F9211242F93CC
:100920003F934F935F936F937F938F939F93AF9377
:10093000BF93EF93FF93E0910001F09101010995BE
:10094000FF91EF91BF91AF919F918F917F916F91A7
:100950005F914F913F912F910F900FBE0F901F907D
:10096000189578941F920F920FB60F9211242F931F
:100970003F934F935F936F937F938F939F93AF9327
:10098000BF93CF93DF93EF93FF932091850230E0E5
:10099000F901EE58FF4F8491F901E551FF4FD491D1
:1009A000F901E952FF4FC491CC2379F081110E94E3
:1009B000D401EC2FF0E0EE0FFF1FE859FF4FA59197
:1009C000B491EC91ED23C1E009F4C0E080915B03A8
:1009D00090915C03A0915D03B0915E030196A11D0F
:1009E000B11D80935B0390935C03A0935D03B09370
:1009F0005E0380915703843610F00E949703809124
:100A00005F03823009F455C008F5813079F1809197
:100A10008B02882341F08091570361E080FF60E002
:100A20008DE00E94FD01FF91EF91DF91CF91BF9189
:100A3000AF919F918F917F916F915F914F913F9176
:100A40002F910F900FBE0F901F901895833009F4CF
:100A500054C08430E1F6C111DACF10925B031092DA
:100A60005C0310925D0310925E03D1CFC111CFCF12
:100A70001092570380915B0390915C03A0915D03FA
:100A8000B0915E03E091570321E02E0F20935703AE
:100A9000F0E0EE0FFF1FE157FD4F9183808310922E
:100AA0005B0310925C0310925D0310925E0382E080
:100AB00021C0C13009F0ABCF80915B0390915C0302
:100AC000A0915D03B0915E03E091570321E02E0FEA
:100AD00020935703F0E0EE0FFF1FE157FD4F918386
:100AE000808310925B0310925C0310925D0310925E
:100AF0005E0383E080935F038ACFCC2309F4BACFEF
:100B000040915B0350915C0360915D0370915E03C3
:100B10008091890290918A02B0E0A0E08417950745
:100B2000A607B70708F073CF0E94970370CFE0E6DF
:100B3000F3E01382128288EE93E0A0E0B0E08483B9
:100B40009583A683B7838CE492E09183808385ECC0
:100B500090E09587848784EC90E09787868780EC87
:100B600090E0918B808B81EC90E0938B828B82EC78
:100B700090E0958B848B86EC90E0978B868B118E22
:100B8000128E138E148E0E94AB0060E083E00E94F0
:100B9000FD0180E692E09093FE038093FD030895AB
:100BA000789484B5826084BD84B5816084BD85B548
:100BB000826085BD85B5816085BD80916E00816054
:100BC00080936E00109281008091810082608093FA
:100BD00081008091810081608093810080918000FC
:100BE0008160809380008091B10084608093B10027
:100BF0008091B00081608093B00080917A00846021
:100C000080937A0080917A00826080937A0080914C
:100C10007A00816080937A0080917A008068809366
:100C20007A001092C100E0917003F091710382E0AC
:100C30008083E0916C03F0916D031082E0916E036C
:100C4000F0916F038FEC808310927803E09174032E
:100C5000F091750386E08083E0917203F091730355
:100C6000808180618083E0917203F09173038081C1
:100C700088608083E0917203F091730380818068C3
:100C80008083E0917203F091730380818F7D808374
:100C900060ED77E080E090E00E945002C6E8D0E08E
:100CA000FE016491662339F080E693E00E946701BB
:100CB0002196892BA9F70E940A03C0E0D0E00E9488
:100CC00029032097E1F30E9431018823C1F30E9498
:100CD0000000F5CFAA1BBB1B51E107C0AA1FBB1F19
:100CE000A617B70710F0A61BB70B881F991F5A95B8
:100CF000A9F780959095BC01CD010895EE0FFF1FD7
:100D00000590F491E02D0994FB01DC0102C00190F3
:0E0D10000D9241505040D8F70895F894FFCF4F
:100D1E00830283023A0D6E0D5A02AE08DE02CE0831
:100D2E00BE02FE03F6020A098E02CA08C202B20809
:100D3E00E602F603FA021A04DA021E04DE021A04AE
:100D4E00E2021604DE0206099202F203FE02120409
:100D5E00E202E608A602FA0302031604DE021A04F1
:100D6E00E202FA089202C608C602CA08C202CA08FD
:100D7E00C202CE08BE02FE03FE021604DE02E80325
:100D8E00E20DCE0CFA029608F6029A08FE02F6035F
:100D9E00FA029208FA029608F6029608F6029A08E5
:100DAE00F2029A08FE028E08FE029208FA029A08D1
:100DBE00FA02FA03FA02FE03FE02FA03F6029A0898
:100DCE00F2020204FA02FE03F602FE03FE02FA0328
:100DDE00F6020204FE02FE03FE02FA03F60202040B
:100DEE00FA029608F602FE03FE02E803FE0DB60CAA
:100DFE00FA029608F6029E08FA02FA03F602B20802
:100E0E00DA02B208DA02B608E202AA08E202920890
:100E1E00FA02AE08DE02FA03FA02B208E202120485
:100E2E00E202FA03F602FE03F602B608DE02FE0343
:100E3E00F6020604F6020204FA02FE03F6020604A5
:100E4E00F602FE03FE029608F602FA03F602B20856
:100E5E00E602F603FA02E803000000006701C7008D
:100E6E00F400B40125010301170102000000000087
:100E7E000D0A0046616E20506F7765720046616EF6
:0A0E8E00202B0046616E202D0000AD
:00000001FF
