:020000040000FA
:100000000C94C6010C94F7010C94F7010C94F701C1
:100010000C94F7010C94F7010C94F7010C94F70180
:100020000C94F7010C94710D0C94710D0C94710DDE
:100030000C94F7010C94F7010C94F7010C94F70160
:100040000C94F7010C94F7010C94F7010C94F70150
:100050000C94F7010C94F7010C94F7010C94270D04
:100060000C94F7010C94F10C0C94C70C0C94F70150
:100070000C94F7010C94F7010C94F7010C94F70120
:100080000C94F7010C94F7010C94F7010C94F70110
:100090000C94910C0C94670C0C94F7010C947B0D50
:1000A0000C94F7010C94F7010C94F7010C94F701F0
:1000B0000C94F7010C94F7010C94F7010C94F701E0
:1000C0000C94F7010C94F7010C94F7010C94F701D0
:1000D0000C94F7010C94F7010C94F7010C94F701C0
:1000E0000C94F7010C94C4030C9420020C94C803E4
:1000F0000C94A5030C947D050C94BC030C94890509
:100100000C94ED030C94E9030C94F7030C94E304B2
:100110000C947E020C94FB030C94CB030C94F1031F
:100120000C94D1030C94DB030C94AA030C94F615E5
:100130000C944D020C946A0B0C94DF030C94700227
:100140000C94D5030C94C0020C949B0E0C94C00329
:100150000C9428030C945C020C94E3035741524E18
:10016000494E473A20546F6F206D616E7920726559
:10017000636F7264732E20496E63726561736520CC
:100180004D41585F4E4445465F5245434F5244539C
:100190002E0000002200250028002B002E00310038
:1001A000340002010000050108010B0105050505E9
:1001B000070508080808020202020A0A08080404DF
:1001C000040401010101010101010303030303030D
:1001D0000303040707070C0C0C0C0C0C0C0C02029C
:1001E000020206060606060606060B0B0B0B0B0B99
:1001F0000B0B010210202008081020401020408026
:1002000002010201080402010102040810204080DA
:100210008040201008040201800402018040201068
:1002200008040201080402010102040810204080B1
:10023000010204081020408000000A0B02090C0D86
:100240000E08070304010000000000000000000089
:10025000000000000000000000000000000000009E
:10026000000000001211100000000000000000005B
:1002700000000000000000000000000000004669CF
:10028000726D77617265207665722E2000466F75FB
:100290006E64206368697020504E35004469646E56
:1002A00027742066696E6420504E35337820626F63
:1002B000617264004572726F722E204661696C65CE
:1002C0006420726561642070616765200052656119
:1002D00064206661696C656420005741524E494E46
:1002E000473A20546167206973206E6F7420666FEF
:1002F000726D61747465642E004572726F722E2087
:1003000043616E2774206465636F6465206D657357
:1003100073616765206C656E6774682E0052656155
:1003200064206661696C656420004572726F722E8C
:1003300020426C6F636B2041757468656E746963ED
:100340006174696F6E206661696C656420666F72A6
:100350002000546167206973206E6F74204E4445FD
:100360004620666F726D61747465642E004572720A
:100370006F722E204661696C65642072656164202D
:10038000626C6F636B2000009B0EF61511241FBE7C
:10039000CFEFD1E2DEBFCDBF00E00CBF24E0A4E28E
:1003A000B3E001C01D92AE3EB207E1F713E0A0E05A
:1003B000B2E0EAE1F1E300E00BBF02C007900D926A
:1003C000A432B107D9F711E0C5ECD1E000E006C0D6
:1003D00021970109802FFE010E944816C43CD107D5
:1003E00080E00807A9F70E94200F0C947B180C945A
:1003F0000000FC01A089B18982E08C93A485B585B9
:100400001C92A685B78580E18C93108EA489B5894E
:1004100086E08C93A289B3898C9180618C93A289A8
:10042000B3898C9188608C93A289B3898C91806800
:100430008C930288F389E02D80818F7D80830895DD
:10044000AF92BF92CF92DF92EF92FF920F931F93E2
:10045000CF93DF936C017B018B01040F151FEB0120
:100460005E01AE18BF08C017D10759F06991D601D7
:10047000ED91FC910190F081E02DC6011995892B39
:1004800079F7C501DF91CF911F910F91FF90EF9008
:10049000DF90CF90BF90AF900895FC01538D448DB5
:1004A000252F30E0842F90E0821B930B541710F01F
:1004B000CF96089501970895FC01918D828D98172C
:1004C00061F0A28DAE0FBF2FB11D5D968C91928D04
:1004D0009F5F9F73928F90E008958FEF9FEF089535
:1004E000FC01918D828D981731F0828DE80FF11DFE
:1004F000858D90E008958FEF9FEF0895FC01918D19
:10050000228D892F90E0805C9F4F821B91098F7311
:100510009927089588E494E00E947E0221E0892BC7
:1005200009F420E0822F089580EA93E00E947E0281
:1005300021E0892B09F420E0822F0895FC01A48D8D
:10054000A80FB92FB11DA35ABF4F2C91848D90E0F5
:1005500001968F739927848FA689B7892C93A089D8
:10056000B1898C91837080648C93938D848D981362
:1005700006C00288F389E02D80818F7D80830895F5
:10058000EF92FF920F931F93CF93DF93EC0181E0E3
:10059000888F9B8D8C8D98131AC0E889F98980818A
:1005A00085FF15C09FB7F894EE89FF896083E889BD
:1005B000F98980818370806480839FBF81E090E0AF
:1005C000DF91CF911F910F91FF90EF900895F62E3C
:1005D0000B8D10E00F5F1F4F0F731127E02E8C8DD6
:1005E0008E110CC00FB607FCFACFE889F98980811B
:1005F00085FFF5CFCE010E949E02F1CFEB8DEC0F6F
:10060000FD2FF11DE35AFF4FF0829FB7F8940B8F37
:10061000EA89FB8980818062CFCF0F931F93CF93AC
:10062000DF938C01D0E0C0E0F801EC0FFD1F649176
:10063000662341F080EA93E00E94C002892B11F00A
:100640002196F2CFCE01DF91CF911F910F910895A6
:10065000CF93DF93EC01888D8823B9F0AA89BB89F9
:10066000E889F9898C9185FD03C0808186FD0DC0E4
:100670000FB607FCF7CF8C9185FFF2CF808185FF05
:10068000EDCFCE010E949E02E9CFDF91CF91089578
:1006900080E090E0892B29F00E94940281110E9451
:1006A000000080E090E0892B29F00E948A028111ED
:1006B0000E94000080E090E0892B49F080E090E00B
:1006C000892B29F00E94000081110E94000080E027
:1006D00090E0892B49F080E090E0892B29F00E947E
:1006E000000081110C9400000895282F30E0F901DA
:1006F000E85CFD4F9491F901EE50FE4F4491245572
:100700003E4FF9012491222309F435C0992311F1B8
:1007100091509231F8F4E92FF0E08827ED56FC4F24
:100720008F4F0C944816C403C803A503BC03C00331
:10073000AA03CB03D103D503DB03DF03E303E90300
:10074000ED03AA03F103F703FB03809180008F7789
:1007500080938000E22FF0E0EE0FFF1FEE56FE4F79
:10076000A591B4918FB7F894EC91611148C0409570
:100770004E234C938FBF0895809180008F7DE8CFEA
:1007800080918000877FE4CF84B58F7784BDE2CFEE
:1007900084B58F7DFBCF8091B0008F778093B000C0
:1007A000D9CF8091B0008F7DF9CF809190008F7765
:1007B00080939000CFCF809190008F7DF9CF809172
:1007C0009000877FF5CF8091A0008F778093A00065
:1007D000C1CF8091A0008F7DF9CF8091A000877F4D
:1007E000F5CF809120018F7780932001B3CF809146
:1007F00020018F7DF9CF80912001877FF5CF4E2B8F
:10080000B8CF3FB7F89480919C0390919D03A0913D
:100810009E03B0919F0326B5A89B05C02F3F19F0FA
:100820000196A11DB11D3FBFBA2FA92F982F882770
:10083000BC01CD01620F711D811D911D42E0660F4B
:10084000771F881F991F4A95D1F7089520914B0370
:10085000260F3327331F21323105ECF420916F032B
:10086000FC0190E080E0243069F082E00895A091DE
:100870004B032191AC01455D5C4FA40FB52FB11D19
:100880002C930196861798F380914B03680F609321
:100890004B0380E0089581E0089508958FEF9FEF66
:1008A00008958FEF9FEF08958091240390E0919534
:1008B000819591090895CF93DF93CB01EA01642FCD
:1008C0000E942604CE01DF91CF910895CF93DF934C
:1008D0001F92CDB7DEB7698361E0CE0101960E9419
:1008E000260481E090E00F90DF91CF91089590E091
:1008F00080E008952F923F924F925F926F927F9285
:100900008F929F92AF92BF92CF92DF92EF92FF921F
:100910000F931F93CF93DF932C011A0189013B01A1
:10092000D0E0C0E06901F12CE12CC215D30591F1B2
:100930008FB7F8948090980390909903A0909A03B1
:10094000B0909B038FBFD20112968D919C91DC01D8
:10095000ED91FC910284F385E02D199597FF2EC04F
:100960000115110581F32FB7F894809198039091A8
:100970009903A0919A03B0919B032FBF88199909FD
:10098000AA09BB098C159D05AE05BF05E0F28EEFE7
:10099000209709F08C2FDF91CF911F910F91FF903D
:1009A000EF90DF90CF90BF90AF909F908F907F900F
:1009B0006F905F904F903F902F900895F301819337
:1009C0003F012196B2CFAF92BF92CF92DF92EF92CA
:1009D000FF920F931F93CF93DF9300D01F921F922C
:1009E000CDB7DEB77C01062FB72E142F690143E087
:1009F00050E0BE016F5F7F4F0E947A04181694F09A
:100A00008EEF9FEF0F900F900F900F900F90DF9150
:100A1000CF911F910F91FF90EF90DF90CF90BF90FB
:100A2000AF9008958981882319F08DEF9FEFEACF69
:100A30008A818111FACF8B818F3FB9F7960142E00D
:100A400050E0BE016C5F7F4FC7010E947A04181608
:100A5000BCF68C819D81980F41F782508C831817CA
:100A600008F448C0F7011481AA24A394A10E9601AA
:100A700042E050E0BE016F5F7F4FC7010E947A04E1
:100A800018160CF0BDCF8981853D79F68A818A11CF
:100A9000CCCF4C8150E09601602F7B2DC7010E9486
:100AA0007A042C81082E000C990B2817190609F0DE
:100AB000A7CF1A52902FE02FFB2D8E2F891B821764
:100AC00018F48191180FF9CF960142E050E0BE0171
:100AD0006F5F7F4FC7010E947A0418160CF090CF09
:100AE0008981180F09F0A1CF8A8181119ECF8C8155
:100AF00090E088CF8CEF9FEF85CFFC0182819381BE
:100B00000C94F901DC01ED91FC910190F081E02D54
:100B10001994CF93DF93EC0165E570E08A819B81A6
:100B20000E94820565E570E08A819B810E948205B2
:100B30008A819B81DC01ED91FC910190F081E02D97
:100B400060E019958A819B81DC01ED91FC91019017
:100B5000F081E02D60E019958A819B81DC01ED91A7
:100B6000FC910190F081E02D60E019958A819B81D4
:100B7000DC01ED91FC910084F185E02D19958A81CD
:100B80009B81DC01ED91FC910084F185E02D1995AC
:100B9000892B49F08A819B81DC01ED91FC910284D3
:100BA000F385E02DEBCFDF91CF910895FC0110820A
:100BB0001282118214821382168215821086178285
:100BC00012861186148613860895FC010190002078
:100BD000E9F73197AF01481B590BBC0180EA93E05C
:100BE0000C9420028F929F92AF92BF920F931F930B
:100BF000CF93DF93CDB7DEB7A1970FB6F894DEBFE2
:100C00000FBECDBF19A2423008F44AE08E010F5D3D
:100C10001F4F842E912CB12CA12CA50194010E9470
:100C20002616E62FB901CA01EA30F4F4E05DD801D6
:100C3000EE938D01232B242B252B79F790E080E078
:100C4000109719F0CD010E94E505A1960FB6F89412
:100C5000DEBF0FBECDBFDF91CF911F910F91BF902F
:100C6000AF909F908F900895E95CE1CFCF93DF9391
:100C70000E94E505EC0180E392E00E94E5058C0FFF
:100C80009D1FDF91CF910895CF93DF93FC014481A5
:100C900055816081718180EA93E00E942002EC011D
:100CA00080E392E00E94E5058C0F9D1FDF91CF91BC
:100CB00008950C94E505CF93DF93462F682F70E0DD
:100CC00090E080E00E94F205EC0180E392E00E9457
:100CD000E5058C0F9D1FDF91CF910895CF92DF9294
:100CE000EF92FF92CF93DF936C01990FEE08FF080C
:100CF000F7FE1FC06DE280EA93E00E94C002EC01A3
:100D000066277727CB016C197D098E099F094AE078
:100D10000E94F205C80FD91F80E392E00E94E5050A
:100D20008C0F9D1FDF91CF91FF90EF90DF90CF90C0
:100D300008954AE0C701B6010E94F205EC01ECCF2C
:100D4000CF93DF930E940D03EC0180E392E00E94B9
:100D5000E5058C0F9D1FDF91CF910895CF92DF9213
:100D6000EF92FF920F931F93CF93DF93EC01142F19
:100D70006C0128E0C20ED11C86E0F701D60101907B
:100D80000D928A95E1F750E0CE010E946B181F8307
:100D900080E48F8F81E088A380E689A30AA3DE0127
:100DA000939686E0F60101900D928A95E1F79C2FCB
:100DB000EC2FFD2F8E2F891B811718F4819180A7AE
:100DC000F9CF6E01BFE5CB0ED11CF6018081918178
:100DD0007E01FFE1EF0EF11C4AE0410FDC01ED91D5
:100DE000FC910480F581E02D00E030E020E0B701C7
:100DF0001995811111C0F60180819181DC01ED917D
:100E0000FC910680F781E02D28EE33E040E4B70145
:100E1000199581E09F8D911180E0DF91CF911F9115
:100E20000F91FF90EF90DF90CF900895AF92BF9217
:100E3000CF92DF92EF92FF920F93CF93DF93EC016B
:100E40006A0180E48F8F81E088A380E389A36AA38D
:100E50005E012FE5A20EB11CD5018D919C917E0102
:100E6000BFE1EB0EF11CDC01ED91FC910480F581FA
:100E7000E02D00E030E020E044E0B7011995882340
:100E800059F080E0DF91CF910F91FF90EF90DF90CC
:100E9000CF90BF90AF900895F50180819181DC01E2
:100EA000ED91FC910680F781E02D28EE33E040E4DF
:100EB000B70119958F8D8111E4CFFE01B09684E0C2
:100EC000D60101900D928A95E1F781E0DBCFAF92D8
:100ED000BF92CF92DF92EF92FF920F93CF93DF9367
:100EE000EC016A0180E48F8F81E088A380E389A30D
:100EF0006AA35E012FE5A20EB11CD5018D919C91D4
:100F00007E01BFE1EB0EF11CDC01ED91FC91048050
:100F1000F581E02D00E030E020E044E0B7011995D4
:100F2000882359F080E0DF91CF910F91FF90EF90EF
:100F3000DF90CF90BF90AF900895F50180819181AF
:100F4000DC01ED91FC910680F781E02D28EE33E085
:100F500040E4B70119958F8D8111E4CFFE01B09661
:100F600080E1D60101900D928A95E1F781E0DBCF17
:100F7000FC0180819181009711F00C94EC1608958A
:100F8000AF92BF92CF92DF92EF92FF920F931F9397
:100F9000CF93DF93EC018B018617970709F451C0BB
:100FA00089819A81892B21F08F8198850E94EC1686
:100FB0008B819C81892B21F089859A850E94EC1672
:100FC0008D819E81892B21F08B859C850E94EC165A
:100FD000F80180818883A180B280BA82A982C3800F
:100FE000D480DC82CB82E580F680FE82ED82A11483
:100FF000B10459F0C5010E94501698878F83F801FB
:1010000067817085A5010E946B18C114D10459F045
:10101000C6010E9450169A878987F80161857285FA
:10102000A6010E946B18E114F10459F0C7010E9457
:1010300050169C878B87F80163857485A7010E94F1
:101040006B18CE01DF91CF911F910F91FF90EF9020
:10105000DF90CF90BF90AF900895CF93DF93EC01D6
:101060002CA93DA92430310598F44DE0429FC001E0
:10107000439F900D11248C0F9D1F0E94C0078CA9C7
:101080009DA901969DAB8CAB81E0DF91CF91089536
:101090008CE591E00E94A00680E0F7CFCF92DF922E
:1010A000EF92FF920F931F93CF93DF93EC016B01AD
:1010B0008C017C0184E3E80EF11CC8010E94D60576
:1010C000035F1F4F0E151F05C1F7F60184A995A9EF
:1010D0009DAB8CAB10E000E0F12CE12C8CA99DA91C
:1010E000E816F90670F4B601600F711FCE01800F8B
:1010F000911F0E94C007FFEFEF1AFF0A035F1F4F07
:10110000EDCFDF91CF911F910F91FF90EF90DF9086
:10111000CF900895CF93DF93EC0189819A81892B39
:1011200021F08F8198850E94EC168B819C81892B00
:1011300021F089859A850E94EC168D819E81892BEC
:1011400031F08B859C85DF91CF910C94EC16DF916B
:10115000CF9108950F931F93CF93DF93009769F07A
:10116000EC018C010C5C1F4FC017D10731F00D5002
:101170001109C8010E948A08F7CFDF91CF911F9112
:101180000F9108952F923F924F925F926F927F92AC
:101190008F929F92AF92BF92CF92DF92EF92FF9287
:1011A0000F931F93CF93DF93CDB7DEB761970FB641
:1011B000F894DEBF0FBECDBF5C017B011A018C012C
:1011C0006C0184E3C80ED11CC8010E94D605035FE0
:1011D0001F4FC016D106C1F7F50115AA14AA10E0D9
:1011E00000E0201631060CF496C0F701E00FF11F65
:1011F000D080FD2DF074F98B8D2D88708E87CE01F7
:1012000001960E94D6058D2D87708983F80131964D
:10121000EE0DFF1D8081882E912CD4FE71C00E5FD3
:101220001F4FF701E00FF11F4080512C9E85D12CFC
:10123000C12C992339F00F5F1F4FF701E00FF11F09
:10124000C080D12C0F5F1F4FF701E00FF11FF88B0B
:10125000EF878A819B81892B21F0888599850E945F
:10126000EC16C4010E94501699878887A4016F85E7
:1012700078890E946B189B828A82080D191DFE8551
:10128000FF23B9F08E819F81892B21F08C859D856C
:101290000E94EC16C6010E9450169D878C87B701EC
:1012A000600F711FA6010E946B18DF82CE820C0DA9
:1012B0001D1D42016701C00ED11E8C819D81892BAD
:1012C00021F08A859B850E94EC16C2010E9450166F
:1012D0009B878A87A201B6010E946B189D828C822F
:1012E000040D151DBE016F5F7F4FC5010E942D08C3
:1012F000898981110CC0CE0101960E948A0871CFA4
:101300004380512C8281582A0B5F1F4F8FCFCE0113
:1013100001960E948A0861960FB6F894DEBF0FBE50
:10132000CDBFDF91CF911F910F91FF90EF90DF9094
:10133000CF90BF90AF909F908F907F906F905F9075
:101340004F903F902F9008950F931F93CF93DF936B
:10135000EC0188819981009759F02A813B812617F9
:10136000370730F081E0DF91CF911F910F91089501
:101370008B016F5F7F4F0E947517009759F099831B
:1013800088831B830A832C813D81232B59F7FC0121
:101390001082E8CF80E0E7CFEF92FF920F931F9388
:1013A000CF93DF936115710541F480E0DF91CF9118
:1013B0001F910F91FF90EF90089541155105B1F0E5
:1013C0007B01EC010C811D81040F151FB8010E94E7
:1013D000A409882351F3288139818C819D81B7012B
:1013E000820F931F0E9474181D830C8381E0DECF4F
:1013F000EF92FF920F931F93CF93DF93EC017B014A
:101400008A01BA010E94A40928813981811114C07E
:101410002115310519F0C9010E94EC1619821882B4
:101420001D821C821B821A82CE01DF91CF911F91F7
:101430000F91FF90EF9008951D830C83B701C901B0
:101440000E947418F1CFCF93DF93EC01FB01861754
:10145000970749F0608171816115710541F0448100
:1014600055810E94F809CE01DF91CF9108958881BE
:101470009981009711F00E94EC16198218821D8242
:101480001C821B821A82EFCFFC0111821082138210
:10149000128215821482FB0101900020E9F7319736
:1014A000AF01461B570B0C94F8096F927F928F92F5
:1014B0009F92AF92BF92CF92DF92EF92FF920F93E3
:1014C0001F93CF93DF93EC014B015A0169013C015B
:1014D00084E0680E711C62E372E0C3010E94440A5A
:1014E00099828882BB82AA82B601C3010E94230A24
:1014F00086E390E00E9450166C01A701B8010E949B
:10150000C208DB86CA86DF91CF911F910F91FF90B1
:10151000EF90DF90CF90BF90AF909F908F907F9093
:101520006F9008958F929F92AF92BF92CF92DF9269
:10153000EF92FF920F931F93CF93DF93EC015B0128
:101540006A0179014C0184E0880E911C62E372E02B
:10155000C4010E94440AB982A882DB82CA82B70110
:10156000C4010E94230A86E390E00E9450167C0189
:10157000B8010E944E08FB86EA86DF91CF911F9149
:101580000F91FF90EF90DF90CF90BF90AF909F9022
:101590008F900895AF92BF92CF92DF92EF92FF9219
:1015A0000F931F93CF93DF93EC015B016A017901E5
:1015B0008C010C5F1F4F62E372E0C8010E94440A75
:1015C000B982A882DB82CA82B701C8010E94230ABD
:1015D0001B861A86DF91CF911F910F91FF90EF909C
:1015E000DF90CF90BF90AF9008951F93CF93DF937C
:1015F00085ED8093BC008091270390912803A091F2
:101600002903B0912A030796A11DB11D23E0B695C9
:10161000A795979587952A95D1F72091BC0024FD31
:1016200003C010926F0352C04091270350912803CA
:101630006091290370912A03452B462B472B69F3B0
:101640000097A105B10541F02AE22A95F1F700C003
:101650000197A109B109E1CF80912603C1E0C093B0
:101660002503882399F1D091B8001091BA00809198
:10167000BC008A7B8093BC0060E084E10E9475031B
:1016800060E085E10E94750310926F03C0937103BF
:101690001092700361E084E10E94750361E085E1CE
:1016A0000E9475038091B9008E7F8093B90080916C
:1016B000B9008D7F8093B90088E48093B80085E4F9
:1016C0008093BC001093BA00D093B800DF91CF9103
:1016D0001F9108959F92AF92BF92CF92DF92EF92A7
:1016E000FF920F931F93CF93DF93CDB7DEB72C9765
:1016F0000FB6F894DEBF0FBECDBF7C016B01942EF8
:10170000B22EA32EDC0112968D919C91DC01ED91FD
:10171000FC910084F185E02D1995F7018281938178
:10172000DC01ED91FC910084F185E02D1995F70124
:10173000A281B381892B41F0ED91FC911197028434
:10174000F385E02DCD01E8CFF6018081F701848398
:10175000ED91FC9111970190F081E02D60E0CD01B9
:101760001995D70112968D919C91DC01ED91FC9118
:101770000190F081E02D60E01995F701828193815D
:10178000DC01ED91FC910190F081E02D6FEF199556
:1017900061E0600F162F190DF70182819381DC0142
:1017A000ED91FC910190F081E02D612F1995612F51
:1017B00070E0719561957109F701828193810E94B2
:1017C000820564ED70E0D70112968D919C910E9484
:1017D0008205F70182819381492D50E0DC01ED9172
:1017E000FC910280F381E02DB60119959C2DF60144
:1017F00014ED8E2F891B891518F48191180FF9CFDC
:10180000F70182819381402F50E0DC01ED91FC9142
:101810000280F381E02D6B2D7A2D19959B2DEB2DF8
:10182000FA2D8E2F891B801718F48191180FF9CF8C
:10183000F70182819381612F6195DC01ED91FC912B
:101840000190F081E02D1995F70182819381DC01EF
:10185000ED91FC910190F081E02D60E0199586E01A
:10186000E6E0F2E0DE01179601900D928A95E1F72D
:101870002AE030E046E050E0BE016F5F7F4FC701D5
:101880000E947A0418160CF546E050E0BE01695F2C
:101890007F4FCE0101960E945E1821E0892B09F44A
:1018A00020E0822F81952C960FB6F894DEBF0FBEF4
:1018B000CDBFDF91CF911F910F91FF90EF90DF90FF
:1018C000CF90BF90AF909F9008958EEFECCF1F9276
:1018D0000F920FB60F9211240BB60F922F933F93D6
:1018E0004F935F936F937F938F939F93AF93BF9328
:1018F000EF93FF9388E494E00E949E02FF91EF91A2
:10190000BF91AF919F918F917F916F915F914F9117
:101910003F912F910F900BBE0F900FBE0F901F9015
:1019200018951F920F920FB60F9211240BB60F92BB
:101930002F938F939F93EF93FF93E0915804F0912F
:1019400059048081E0915E04F0915F0482FD1DC026
:101950009081809161048F5F8F7320916204821760
:1019600041F0E0916104F0E0E85BFB4F958F8093DC
:101970006104FF91EF919F918F912F910F900BBE7A
:101980000F900FBE0F901F9018958081F2CF1F927D
:101990000F920FB60F9211240BB60F922F933F9315
:1019A0004F935F936F937F938F939F93AF93BF9367
:1019B000EF93FF9380EA93E00E949E02FF91EF91E4
:1019C000BF91AF919F918F917F916F915F914F9157
:1019D0003F912F910F900BBE0F900FBE0F901F9055
:1019E00018951F920F920FB60F9211240BB60F92FB
:1019F0002F938F939F93EF93FF93E091B003F09118
:101A0000B1038081E091B603F091B70382FD1DC060
:101A100090818091B9038F5F8F732091BA038217F1
:101A200041F0E091B903F0E0E056FC4F958F8093D0
:101A3000B903FF91EF919F918F912F910F900BBE62
:101A40000F900FBE0F901F9018958081F2CF1F92BC
:101A50000F920FB60F9211242F933F938F939F9362
:101A6000AF93BF938091980390919903A0919A03AB
:101A7000B0919B033091970323E0230F2D3758F546
:101A80000196A11DB11D2093970380939803909315
:101A90009903A0939A03B0939B0380919C03909128
:101AA0009D03A0919E03B0919F030196A11DB11DBE
:101AB00080939C0390939D03A0939E03B0939F03F8
:101AC000BF91AF919F918F913F912F910F900FBE3A
:101AD0000F901F90189526E8230F0296A11DB11DA7
:101AE000D2CF1F920F920FB60F9211240F900FBEFC
:101AF0000F901F9018951F920F920FB60F921124FE
:101B00000BB60F922F933F934F935F936F937F93F7
:101B10008F939F93AF93BF93EF93FF938091B900FF
:101B2000887F803609F44DC008F040C0883209F43F
:101B3000A7C028F5803109F49BC0C8F4882309F4B4
:101B4000F7C0883009F494C0FF91EF91BF91AF9135
:101B50009F918F917F916F915F914F913F912F91C5
:101B60000F900BBE0F900FBE0F901F9018958831ED
:101B700009F486C0803241F780936E0314C080342C
:101B800009F49BC040F48033B9F38833E9F68093BD
:101B90006E0385ECAEC0803509F483C0883509F446
:101BA00094C0883489F60E94F50ACECF883909F4AA
:101BB0008AC038F5883729F050F4883611F080371C
:101BC00019F683E080936F0310926D0355C0883837
:101BD00009F479C0803919F0803809F0B5CF8091C7
:101BE0006D03803208F06FC0E0916D0381E08E0FCD
:101BF00080936D038091BB00F0E0E35BFC4F80833A
:101C00003BC0803B39F0D0F4803A09F477C0883A81
:101C100009F09ACF84E080936F0310924C031092E6
:101C20004B03F0E0E0E0199580914B0381110FC068
:101C300081E080934B0310922B0309C0803C09F490
:101C4000A8CF883C09F4A5CF883B09F07DCFE0916F
:101C50004C0381E08E0F80934C03F0E0E55DFC4F78
:101C600080818093BB0090914C0380914B0329C0ED
:101C7000809194038093BB0085EC8093BC0064CF7B
:101C80009091930380919203981758F5E0919303F4
:101C900081E08E0F80939303F0E0EE58FC4F80813B
:101CA000E9CFE091930381E08E0F809393038091BD
:101CB000BB00F0E0EE58FC4F80839091930380913D
:101CC00092039817C8F285E8D8CFE091930381E09A
:101CD0008E0F809393038091BB00F0E0EE58FC4F91
:101CE00080838091710381115ECF81E080937003C6
:101CF00084EA8093BC0010926F0326CF85EC80931A
:101D0000BC0010926F0380916D03803230F4E0913B
:101D10006D03F0E0E35BFC4F108260916D0370E0B7
:101D20008DE493E0F0E0E0E0199510926D030CCFA4
:101D300010926E0338CFCF93DF93E8E4F4E0138280
:101D4000128248EE53E060E070E04483558366837E
:101D5000778386E192E0918380832DEC30E03587B4
:101D600024872CEC30E03787268728EC30E0318B55
:101D7000208B29EC30E0338B228B2AEC30E0358B42
:101D8000248B2EEC30E0378B268B118E128E138E27
:101D9000148EA0EAB3E013961C921E92129714962A
:101DA0004D935D936D937C93179711969C938E93AF
:101DB00085EC90E01D969C938E931C9784EC90E0AC
:101DC0001F969C938E931E9780EC90E051969C9367
:101DD0008E93509781EC90E053969C938E935297FC
:101DE00082EC90E055969C938E93549786EC90E00D
:101DF00057969C938E93569759961C9259975A963C
:101E00001C925A975B961C925B975C961C92C5EE4F
:101E1000D4E088E292E099838883FB83EA831C8282
:101E200081E690E00E945016FC01E15AFF4FD183F9
:101E3000C08390933E0480933D04DF91CF91089539
:101E4000CF93DF93CDB7DEB7C956D1090FB6F8945B
:101E5000DEBF0FBECDBF789484B5826084BD84B5EB
:101E6000816084BD85B5826085BD85B5816085BD95
:101E700080916E00816080936E001092810080914D
:101E800081008260809381008091810081608093D5
:101E90008100809180008160809380008091B100FA
:101EA00084608093B1008091B00081608093B00025
:101EB0008091910082608093910080919100816077
:101EC0008093910080919000816080939000809138
:101ED000A10082608093A1008091A1008160809325
:101EE000A1008091A00081608093A00080912101D9
:101EF0008260809321018091210181608093210182
:101F00008091200181608093200180917A0084601B
:101F100080937A0080917A00826080937A00809129
:101F20007A00816080937A0080917A008068809343
:101F30007A001092C10080EA93E00E94F90183E3E5
:101F400092E00E94360600913D0410913E04015A31
:101F50001F4FD8018D919C91DC01ED91FC91019076
:101F6000F081E02D1995F80180819181DC01ED91DE
:101F7000FC910280F381E02D1995A0903D04B09072
:101F80003E0482E0F501878F6501FFE5CF0ED11C8D
:101F9000D6018D919C917501BFE1EB0EF11CDC0126
:101FA000ED91FC910480F581E02D00E030E020E02F
:101FB00041E0B7011995882329F08CE992E00E944D
:101FC0000D03FFCFF60180819181DC01ED91FC9141
:101FD0000680F781E02D28EE33E040E4B701199543
:101FE00097FDEBCFF501C78CD0A0DC24CD24DC24F9
:101FF000F12CE12CFE2CED2CDC2CCC2481A1C82A68
:10200000FE2CED2CDC2CCC2482A1C82AC114D104D6
:10201000E104F10491F28DE892E00E940D036F2D2E
:1020200077278827992740E10E94F20580E392E014
:102030000E94E5058EE792E00E940D036E2D70E090
:1020400090E080E04AE00E94F2056EE280EA93E0D0
:102050000E94C0026D2D70E090E080E04AE00E9496
:10206000F20580E392E00E94E505E0913D04F091E5
:102070003E0494E1978F81E080A391A382A36F0136
:102080002FE5C20ED11CD6018D919C917F01BFE13D
:10209000EB0EF11CDC01ED91FC910480F581E02D4B
:1020A00000E030E020E044E0B701199581110EC056
:1020B000F60180819181DC01ED91FC910680F78130
:1020C000E02D28EE33E040E4B7011995E4E4F0E0B8
:1020D000EC0FFD1F3496AA96FFAFEEAFAA978FE3E1
:1020E00092E00E9436061092470410924604E09057
:1020F0003D04F0903E048AE4D7015F968C935F978D
:1021000081E090968C93909791961C925701BFE531
:10211000AB0EB11CF501808191816701FFE1CF0E0B
:10212000D11CDC01ED91FC910480F581E02D00E0F3
:1021300030E020E043E0B6011995811190C4F5012B
:1021400080819181DC01ED91FC910680F781E02D89
:1021500028EE33E040E4B601199597FD80C4F701FD
:10216000878D813009F07BC484A18093460480E090
:10217000D70194969C91891760F4282F30E0F701DD
:10218000E20FF31F95A1215C3B4FF90190838F5F14
:10219000EFCFE0904604F090470440903D0450900B
:1021A0003E049E012F5F3F4F690134E0E316F104C6
:1021B00009F02DC18DB79EB7A2969FAF8EAFA297A3
:1021C00086E0ECE0F2E0DE01A05BBF4F01900D92F3
:1021D0008A95E1F7DE01A05BBF4F7D0104E010E0CE
:1021E00020E030E044E06FE374E0C2010E94AE06FC
:1021F000882309F450C0A60164E0C2010E94670769
:102200008823F1F1F601312C212C8F018191882353
:1022100031F1833009F44BC480E592E00E94590605
:1022200060E170E0F80180810E945B0689EF92E036
:102230000E94A0066DE572E0CE01C7960E94440A96
:102240009E01295C3F4F44E050E06FE374E0CE0113
:102250008C5B9F4F0E94CA0ACE01C79630C02FEFF9
:10226000221A320A30E12316310479F6DFCFA82E84
:10227000B12CD10112966E96BFAFAEAF6E9736C439
:102280008DE693E00E940D0384E090E00E946E06CC
:1022900063E672E0D1CF82E593E00E94A00663E698
:1022A00072E0C6010E94440A960144E050E06FE3E8
:1022B00074E0CE018C5B9F4F0E94CA0AC6010E9447
:1022C000B807A296AEADBFADA2970FB6F894BEBF49
:1022D0000FBEADBF1A8219821C821B821E821D8214
:1022E00064E470E06C0F7D1F6C5F7F4FC6010E943D
:1022F000230AC6010E944406C6010E94B8078BE863
:1023000092E00E94590662E372E0CE01805B9F4F2B
:102310000E94440A10E000E028968EAD9FAD2897F9
:102320000817190708F071C10115110549F041E0BE
:1023300050E063E073E0CE01805B9F4F0E94CC09C8
:102340002696EEADFFAD2697E00FF11F80818F300E
:1023500048F441E050E061E972E0CE01805B9F4FBC
:102360000E94CC092696EEADFFAD2697E00FF11F37
:10237000808118AE1FAA1AAE19AE1CAE1BAE40E18A
:10238000B60190E00E94FC15F60101900020E9F7EB
:102390003197AF014C195D09B601CE01C7960E9475
:1023A000F8094BAD5CAD6FA978ADCE01805B9F4F56
:1023B0000E94CC09CE01C7960E94B8070F5F1F4F3D
:1023C000ABCF8F709927C6C38F709927AA27BB27D9
:1023D00004C4A0960EAD1FADA0976E968EAD9FADB6
:1023E0006E97080F191F63E672E0CE01C7960E9430
:1023F000440A75019E01295C3F4F44E050E06FE3C1
:1024000074E0CE018C5B9F4F0E94550A25CFEDB73B
:10241000FEB7A096FFAFEEAFA097A60164E0C201A1
:102420000E941607882331F189818F3F61F58A81E7
:102430008F3F49F58B818F3F31F58C818F3F19F5A7
:102440008AED92E00E94A00662E772E0C6010E9457
:10245000440A9601A7016FE374E0CE018C5B9F4FA5
:102460000E94CA0AC6010E94B807A096AEADBFADD1
:10247000A0972BCF84EB92E00E940D036AE070E0FE
:1024800084E00E945B06A60163E0C2010E94160779
:10249000A60164E0C2010E941607811155C0B12C4B
:1024A000A12C10E000E03501600E711EC301019601
:1024B0009C0123703327232B11F08C7F0496011588
:1024C000110509F05EC0C6010E94D605CE010E9628
:1024D0000E94D605CE014B960E94D605CE01889665
:1024E0000E94D6051EAA1DAA8DE090E00E945016FB
:1024F0008C010E94D605D8011C92B801C6010E9429
:102500002D080115110531F0C8010E948A08C80183
:102510000E94EC1662E772E0CE01C7960E94440A60
:1025200086019E01295C3F4FA7016FE374E0CE0155
:102530008C5B9F4F0E94920ACE01C7960E94B807FB
:10254000C6010E94AA0891CFAE014B5F5F4F65E0C4
:10255000C2010E941607882309F4A1CF89810A814C
:1025600010E022E0A22EB12C833009F49CCF8E81A2
:10257000833009F094CF0F8110E097E0A92EB12CA1
:1025800092CFEDB7FEB7E81BF90B0FB6F894FEBF7C
:102590000FBEEDBF2DB73EB72F5F3F4F1901490169
:1025A00034E06D963FAF6D97A4016D966FAD6D975A
:1025B000C2010E941607811115C08DEC92E00E94A5
:1025C0000D036AE070E06D968FAD6D970E945B061B
:1025D00010E000E0B1016A0D7B1DA801C6010E9458
:1025E000C20898CFC401821993098615970590F700
:1025F0006D968FAD6D978F5F6D968FAF6D9794E0F1
:10260000890E911C8F3381F6E5CF62960EAD1FAD1A
:1026100062970115110571F0F80181918F018823EE
:1026200049F0082E000C990B0E945618F8013197BA
:102630008083F2CFCE01805B9F4F0E944406CE0183
:10264000805B9F4F0E94B80760966EAD7FAD60972C
:102650006115710509F4F0C1C6010E944E0883E9B5
:1026600092E00E9459066DA97EA990E080E04AE0C0
:102670000E94F20580EC92E00E9459068DA99EA965
:10268000019721F08DEC92E00E9459068FEC92E0C8
:102690000E9436062DA93EA9A2963FAF2EAFA29763
:1026A0008E010F5F1F4FF12CE12CA2968EAD9FADD6
:1026B000A297E816F9060CF0BBC1ADB7BEB7A49659
:1026C000BFAFAEAFA49781ED92E00E945906F7012B
:1026D00031966E96FFAFEEAF6E97CF010E946E06F9
:1026E0008DA99EA9E816F9060CF0F0C0D8018C91CE
:1026F0008FAB1196AD90BC901297B9AEA8AE139661
:10270000CD90DC901497DBAECAAE1596ED90FC90A0
:10271000FDAEECAE1FAE1EAE22961FAE1EAE2297D1
:1027200024961FAE1EAE2497A114B10459F0C50122
:102730000E9450169FAF8EAFF80167817085A5018A
:102740000E946B18C114D10471F0C6010E9450168A
:1027500022969FAF8EAF2297D80119966D917C91EA
:10276000A6010E946B18E114F10469F0C7010E94F0
:10277000501624969FAF8EAF2497F8016385748519
:10278000A7010E946B188FED92E00E9459066AE043
:1027900070E08FA90E945B0687EE92E00E945906C6
:1027A000ADB6BEB6E8ACF9ACC70101962DB73EB7E1
:1027B000281B390B0FB6F8943EBF0FBE2DBF8DB747
:1027C0009EB701966C016EAD7FADA7010E946B189C
:1027D000F601EE0DFF1D1082B601CE01805B9F4F0A
:1027E0000E94440A0FB6F894BEBE0FBEADBECE0125
:1027F000805B9F4F0E944406CE01805B9F4F0E94EA
:10280000B8072AAC3BACADB7BEB7A219B3090FB637
:10281000F894BEBF0FBEADBFEDB7FEB731967F01D6
:1028200022966EAD7FAD2297A101CF010E946B1859
:1028300080EF92E00E9459062101032C000C6608EB
:1028400077086701812C912C5401D301C2010197B3
:10285000A109B109A8968CAF9DAFAEAFBFAFA89745
:1028600084149504A604B704B4F5D601ED916D0166
:102870006F96EFAF6F97E03120F481E992E00E940C
:1028800059066F96FFAD6F976F2F70E090E080E074
:1028900040E10E94F20521E04216510461047104F6
:1028A00079F0A8968CAD9DADAEADBFADA89788165A
:1028B0009906AA06BB0621F083E093E00E94590620
:1028C0009FEF891A990AA90AB90ACACFCE01C796F9
:1028D0000E94D60558CF82E093E00E945906670116
:1028E000812C912C540184149504A604B704A4F4FB
:1028F000D6016D916D01603250F48FEC92E00E9430
:102900005906BFEF8B1A9B0AAB0ABB0AECCF80EAD1
:1029100093E00E94C002F5CF82E392E00E94360667
:1029200062E372E0CE018A5A9F4F0E94440A670117
:10293000C6018E199F0982159305A4F4F6018191B1
:102940006F0161968FAF619762961FAE629741E00B
:1029500050E0BE01605B7F4FCE018A5A9F4F0E94BC
:10296000CC09E6CF85E093E00E945906CE018A5A51
:102970009F4F0E944406ADB6BEB6ECACFDACC7019D
:1029800001962DB73EB7281B390B0FB6F8943EBF02
:102990000FBE2DBF8DB79EB701966C0124966EAD0C
:1029A0007FAD2497A7010E946B18F601EE0DFF1D65
:1029B0001082B601CE01805B9F4F0E94440A0FB681
:1029C000F894BEBE0FBEADBE66968EAD9FAD669747
:1029D000892B81F06296EEADFFAD629780818823EE
:1029E00049F08DE193E00E945906CE01805B9F4F34
:1029F0000E944406CE01805B9F4F0E94B807CE0123
:102A00008A5A9F4F0E94B807CE01C7960E948A0833
:102A1000A496AEADBFADA4970FB6F894BEBF0FBEDF
:102A2000ADBF035F1F4F6E96EEACFFAC6E973DCE11
:102A3000CE0101960E94AA0860960EAD1FAD609768
:102A40000115110531F0C8010E94AA08C8010E94B1
:102A5000EC16AA968EAD9FADAA970E94B8070E9469
:102A600001044B015C0188EBC82E8BE0D82EE12CD1
:102A7000F12C0E940104681979098A099B09683EB2
:102A8000734081059105A8F3B1E0CB1AD108E108A4
:102A9000F108E8EE8E0EE3E09E1EA11CB11CC114ED
:102AA000D104E104F10429F70E94480318CBFE0188
:102AB000E20DF31D82818F3F09F0D9CBFE01E20DBB
:102AC000F31DA380FE01E20DF31D8481BA2CA82E14
:102AD000C10104966E969FAF8EAF6E973501E5E00B
:102AE0006E0E711C9FEFA916B10424F43501B3E0FA
:102AF0006B0E711CC3018F709927892B51F077FEE3
:102B000003C0FFE06F0E711C20EF6222C3014096EC
:102B10003C01ADB7BEB7A619B7090FB6F894BEBF52
:102B20000FBEADBFEDB7FEB73196A096FFAFEEAFCB
:102B3000A097312C212C34E0832E912C26143704BD
:102B40000CF047CCC401F0E88F1691040CF039CC9E
:102B500083709927892BC1F49E01205B3F4F790137
:102B60008401092C000C220B330B44E06FE374E06A
:102B7000C2010E94AE06811107C08AE293E00E9462
:102B80000D03C4010E946E06A0964EAD5FADA097E6
:102B9000420D531D682DC2010E946707811107C0B5
:102BA0008DE193E00E940D03C4010E946E0630E1A6
:102BB000230E311C94012F5F3F4FC901032E000CDF
:102BC000AA0BBB0B0196A11DB11D203831050CF0DD
:102BD000FBCB83709927AA27BB27892B8A2B8B2BAA
:102BE00019F494012E5F3F4F4901A8CF80913D0415
:102BF00090913E040C94EC16BB27FB015527AA27A5
:102C0000880F991FAA1FA41710F0A41B8395505179
:102C1000B9F7A05DAA3308F0A95DA193009779F7F1
:102C2000B111B1931192CB010C941616DC01FC0189
:102C3000672F71917723E1F7329704C07C916D93F0
:102C400070836291AE17BF07C8F30895A1E21A2EF0
:102C5000AA1BBB1BFD010DC0AA1FBB1FEE1FFF1F40
:102C6000A217B307E407F50720F0A21BB30BE40B90
:102C7000F50B661F771F881F991F1A9469F76095D7
:102C80007095809590959B01AC01BD01CF01089591
:102C9000EE0FFF1F881F8BBF0790F691E02D199450
:102CA0000F931F93CF93DF938230910510F482E04E
:102CB00090E0E091EC04F091ED0430E020E0B0E031
:102CC000A0E0309799F42115310509F44AC0281B7A
:102CD000390B24303105D8F58A819B816115710546
:102CE00089F1FB0193838283FE0111C040815181F0
:102CF0000281138148175907E0F04817590799F4E2
:102D0000109761F012960C93129713961C933296BB
:102D1000CF01DF91CF911F910F9108950093EC04A3
:102D20001093ED04F4CF2115310551F042175307EC
:102D300038F0A901DB019A01BD01DF01F801C1CF23
:102D4000EF01F9CF9093ED048093EC04CDCFFE0119
:102D5000E20FF31F81939193225031093983288325
:102D6000D7CF2091EA043091EB04232B41F420913A
:102D70000202309103023093EB042093EA04209185
:102D80000002309101022115310541F42DB73EB703
:102D90004091040250910502241B350BE091EA0496
:102DA000F091EB04E217F307A0F42E1B3F0B28175A
:102DB000390778F0AC014E5F5F4F2417350748F0B4
:102DC0004E0F5F1F5093EB044093EA04819391935D
:102DD0009FCFF0E0E0E09CCFCF93DF930097E9F046
:102DE000FC01329713821282A091EC04B091ED04A1
:102DF000ED0130E020E01097A1F420813181820FB5
:102E0000931F2091EA043091EB042817390709F049
:102E100061C0F093EB04E093EA04DF91CF91089551
:102E2000EA01CE17DF07E8F54A815B819E01411573
:102E30005105B1F7E901FB83EA8349915991C40F28
:102E4000D51FEC17FD0761F4808191810296840FF4
:102E5000951FE90199838883828193819B838A836B
:102E6000F0E0E0E012968D919C9113970097B9F5F0
:102E70002D913C911197CD010296820F931F2091C5
:102E8000EA043091EB042817390739F6309751F5E9
:102E90001092ED041092EC04B093EB04A093EA04BA
:102EA000BCCFD383C28340815181840F951FC81743
:102EB000D90761F44E5F5F4F88819981480F591F90
:102EC000518340838A819B819383828321153105BD
:102ED00009F0B0CFF093ED04E093EC049ECFFD0138
:102EE000DC01C0CF13821282D7CF4F925F926F92D4
:102EF0007F928F929F92AF92BF92CF92DF92EF928A
:102F0000FF920F931F93CF93DF938C01009799F457
:102F1000CB01DF91CF911F910F91FF90EF90DF9048
:102F2000CF90BF90AF909F908F907F906F905F9069
:102F30004F900C945016FC01E60FF71F9C01225095
:102F40003109E217F30708F4AEC0D901CD91DC9145
:102F50001197C617D70720F1C530D10578F0CE01FB
:102F600004978617970750F0C61BD70B2297C1937B
:102F7000D1936D937C93CF010E94EC16C801DF9131
:102F8000CF911F910F91FF90EF90DF90CF90BF9066
:102F9000AF909F908F907F906F905F904F9008952B
:102FA0005B01AC1ABD0A4C018C0E9D1EA091EC0475
:102FB000B091ED04512C412CF12CE12C109731F5FE
:102FC0008091EA049091EB048815990509F05CC0A2
:102FD0004616570608F058C08091000290910102F1
:102FE000009741F48DB79EB74091040250910502BD
:102FF000841B950BE817F90708F055C0F093EB0414
:10300000E093EA04F90171836083B8CF8D919C91BC
:10301000119712966C90129713967C901397A8159F
:10302000B90559F56C0142E0C40ED11CCA14DB0489
:1030300020F1AC014A195B09DA011296159780F06C
:103040006282738251834083D9016D937C93E11432
:10305000F10471F0D7011396FC93EE9312978ECF83
:1030600022968C0F9D1FF90191838083F301EFCF8E
:10307000F093ED04E093EC0481CF4816590608F470
:103080002C017D01D3019ACFCB010E9450167C0107
:10309000009749F0AE01B8010E946B18C8010E9468
:1030A000EC1687016BCF10E000E068CF9111089516
:1030B00081568A5108F4805285580895FB01DC013D
:1030C00004C08D910190801921F441505040C8F7FF
:1030D000881B990B0895FB01DC0102C001900D9241
:1030E00041505040D8F70895FB01DC0101900D924A
:1030F0000020E1F7089511E0C5ECD1E000E006C042
:10310000802FFE010E9448162196011DC63CD10762
:1031100080E00807A9F7F894FFCF0000EE048000D4
:103120000000FF00FF00D3F7D3F7D3F70000000043
:10313000C00220024D0228037E025C0270020000E1
:1031400000007D0589056A0BE3040D0A004E444525
:103150004620526561646572000A5363616E2061A6
:10316000204E4643207461670A00556E6B6E6F7780
:103170006E20544C5620004552524F52004D696605
:1031800061726520436C6173736963004E4643202E
:10319000466F72756D2054797065203200556E6BE4
:1031A0006E6F776E005549443A200030000A54682B
:1031B0006973204E46432054616720636F6E7461CB
:1031C000696E7320616E204E444546204D657373D1
:1031D00061676520776974682000204E4445462069
:1031E0005265636F72640073002E000A4E444546B8
:1031F000205265636F726420002020544E463A20AE
:10320000002020547970653A200020205061796CAC
:103210006F61642028484558293A2000202000206A
:10322000205061796C6F616420286173205374723F
:0E323000696E67293A2000202049443A2000A8
:020000040003F7
:10E000000D9489F10D94B2F10D94B2F10D94B2F129
:10E010000D94B2F10D94B2F10D94B2F10D94B2F1F0
:10E020000D94B2F10D94B2F10D94B2F10D94B2F1E0
:10E030000D94B2F10D94B2F10D94B2F10D94B2F1D0
:10E040000D94B2F10D94B2F10D94B2F10D94B2F1C0
:10E050000D94B2F10D94B2F10D94B2F10D94B2F1B0
:10E060000D94B2F10D94B2F10D94B2F10D94B2F1A0
:10E070000D94B2F10D94B2F10D94B2F10D94B2F190
:10E080000D94B2F10D94B2F10D94B2F10D94B2F180
:10E090000D94B2F10D94B2F10D94B2F10D94B2F170
:10E0A0000D94B2F10D94B2F10D94B2F10D94B2F160
:10E0B0000D94B2F10D94B2F10D94B2F10D94B2F150
:10E0C0000D94B2F10D94B2F10D94B2F10D94B2F140
:10E0D0000D94B2F10D94B2F10D94B2F10D94B2F130
:10E0E0000D94B2F141546D656761323536300041AF
:10E0F000726475696E6F206578706C6F72657220DE
:10E1000073746B3530305632206279204D4C530099
:10E11000426F6F746C6F616465723E004875683F52
:10E1200000436F6D70696C6564206F6E203D200048
:10E130004350552054797065202020203D20005FF9
:10E140005F4156525F415243485F5F3D2000415658
:10E1500052204C696243205665723D20004743437C
:10E160002056657273696F6E203D20004350552024
:10E1700049442020202020203D20004C6F7720663D
:10E18000757365202020203D20004869676820665F
:10E190007573652020203D200045787420667573D6
:10E1A00065202020203D20004C6F636B2066757336
:10E1B000652020203D20004D617220203720323024
:10E1C000313300312E362E3800342E332E350056A2
:10E1D00023202020414444522020206F7020636F70
:10E1E00064652020202020696E73747275637469E1
:10E1F0006F6E2061646472202020496E74657272B3
:10E20000757074006E6F20766563746F7200726A49
:10E210006D702020006A6D70200057686174207056
:10E220006F72743A00506F7274206E6F7420737541
:10E2300070706F72746564004D7573742062652030
:10E2400061206C6574746572002000577269747483
:10E25000696E672045450052656164696E672045B7
:10E26000450045452065727220636E743D00504F35
:10E27000525400303D5A65726F2061646472003FF1
:10E280003D43505520737461747300403D454550C3
:10E29000524F4D207465737400423D426C696E6B41
:10E2A000204C454400453D44756D70204545505215
:10E2B0004F4D00463D44756D7020464C415348001B
:10E2C000483D48656C70004C3D4C69737420492F83
:10E2D0004F20506F72747300513D51756974005234
:10E2E0003D44756D702052414D00563D73686F7707
:10E2F00020696E7465727275707420566563746FF0
:10E30000727300593D506F727420626C696E6B00BD
:10E310002A0011241FBECFEFD1E2DEBFCDBF01E046
:10E320000CBF12E0A0E0B2E0EEE1FDEF03E00BBFB6
:10E3300002C007900D92A030B107D9F712E0A0E01B
:10E34000B2E001C01D92AE30B107E1F70F9460F367
:10E350000D948DFE01E20EBF0FEF0DBF11241FBE05
:10E360000D9460F30D9400F020E030E040ED57E0B4
:10E3700005C0FA013197F1F72F5F3F4F2817390792
:10E38000C0F308959C01260F311DC901A0E0B0E043
:10E390002F5F3F4FABBFFC018791882361F08093D3
:10E3A000C6008091C00086FFFCCF8091C0008064D1
:10E3B0008093C000EACF08958DE08093C6008091DD
:10E3C000C00086FFFCCF8091C00080648093C000B5
:10E3D0008AE08093C6008091C00086FFFCCF8091C8
:10E3E000C00080648093C00008950F94C2F10F9420
:10E3F000DCF10895FC019081992359F09093C600B7
:10E400008091C00086FFFCCF8091C0008064809323
:10E41000C0003196992379F70895282F982F929567
:10E420009F70892F805D8A3308F0895F8093C600D2
:10E430008091C00086FFFCCF8091C00080648093F3
:10E44000C000822F8F70982F905D9A3308F0995FEB
:10E450009093C6008091C00086FFFCCF8091C000E1
:10E4600080648093C00008959C01FB01853691056E
:10E470001CF46330710594F0C90164E670E00F94F8
:10E480002EFE605D7F4F6093C6008091C00086FFC6
:10E49000FCCF8091C00080648093C0002B30310598
:10E4A00014F43297B4F0C90164E670E00F942EFEC4
:10E4B0006AE070E00F942EFE605D7F4F6093C600AF
:10E4C0008091C00086FFFCCF8091C0008064809363
:10E4D000C000C9016AE070E00F942EFEC0968093E0
:10E4E000C6008091C00086FFFCCF8091C000806490
:10E4F0008093C00008951F93182F8EE692EE60E07F
:10E500000F94C2F11093C6008091C00086FFFCCF2B
:10E510008091C00080648093C0000F94DCF11F9153
:10E5200008952F923F924F925F926F927F928F92B7
:10E530009F92AF92BF92CF92DF92EF92FF920F9392
:10E540001F93DF93CF93CDB7DEB762970FB6F894E2
:10E55000DEBF0FBECDBF382E622ECA01DB015C01CB
:10E560006D01772420E2222E2E010894411C511CBB
:10E570008BC081E0A81680E0B80681E0C80680E084
:10E58000D80628F0C601AA27BB270F940DF2BB2797
:10E59000AD2D9C2D8B2D0F940DF28A2D0F940DF225
:10E5A0002092C6008091C00086FFFCCF8091C00001
:10E5B00080648093C0009DE29093C6008091C0006B
:10E5C00086FFFCCF8091C00080648093C0002092C1
:10E5D000C6008091C00086FFFCCF8091C00080649F
:10E5E0008093C00019828601750188249924A1E0D6
:10E5F0003A1651F03A1620F0B2E03B1661F409C029
:10E600000BBFF701779007C0C7010F9477FE782EF4
:10E6100002C0F7017080872D0F940DF22092C60082
:10E620008091C00086FFFCCF8091C0008064809301
:10E63000C000872D8052F401EF70F0708F3520F408
:10E64000E40DF51D708204C0E40DF51D8EE280839B
:10E650000894E11CF11C011D111D0894811C911CE2
:10E6600090E18916910409F0C2CF80E190E0A0E02A
:10E67000B0E0A80EB91ECA1EDB1E198AC2010F9493
:10E68000FAF10F94DCF16A94662009F072CF629679
:10E690000FB6F894DEBF0FBECDBFCF91DF911F91B3
:10E6A0000F91FF90EF90DF90CF90BF90AF909F9031
:10E6B0008F907F906F905F904F903F902F90089534
:10E6C0002F923F924F925F926F927F928F929F9282
:10E6D000AF92BF92CF92DF92EF92FF920F931F9370
:10E6E000DF93CF93CDB7DEB7CD53D1400FB6F894BB
:10E6F000DEBF0FBECDBF01E20EBF0FEF0DBF94B75F
:10E70000F894A89514BE80916000886180936000A1
:10E7100010926000789493FF05C0E0910002F091A0
:10E7200001021995279A2F9A8091C00082608093E8
:10E73000C00080E18093C40088E18093C1000000A4
:10E74000EE24FF24870144E0A42EB12CCC24DD2448
:10E7500024C0C5010197F1F70894E11CF11C011DCB
:10E76000111D21E2E2162EE4F20620E0020720E06D
:10E77000120718F031E0C32ED12CC801B70127ECE5
:10E780003BE140E050E00F9441FE611571058105C9
:10E79000910519F485B1805885B98091C00087FD35
:10E7A00003C0C114D104A9F2A6014F5F5F4FC25E3E
:10E7B000DE4F59834883CE51D140C25EDE4F8881FF
:10E7C0009981CE51D140019711F00D9410FEC05D9A
:10E7D000DE4F19821882C053D14060E0C15DDE4F28
:10E7E0001882CF52D14088249924C35DDE4F19820C
:10E7F0001882CD52D140C05EDE4F188219821A8233
:10E800001B82C052D140CE5CDE4F188219821A8220
:10E810001B82C253D140EE24FF2487010BBFF701B6
:10E8200007911691C45CDE4F19830883CC53D14005
:10E830000D940BFEC25EDE4F28813981CE51D1404E
:10E840002130310509F52091C600C25EDE4F1982E4
:10E850001882CE51D14022C02F5F3F4F4F4F5F4FA4
:10E86000213082E138078AE7480780E0580780F0C6
:10E87000C45CDE4FE881F981CC53D140EF5FFF4F9C
:10E8800019F0EE27FF27099420E030E040E050E047
:10E890008091C00087FFE0CF2091C600C35DDE4FAE
:10E8A00048815981CD52D1404F5F5F4FC35DDE4FEC
:10E8B00059834883CD52D140213209F063C64A3092
:10E8C000510508F05FC60894811C911C53E0851621
:10E8D000910409F059C600E010E018C081E280936D
:10E8E000C6008091C00086FFFCCF8091C00080648C
:10E8F0008093C0002F5F3F4F2931310579F70F9486
:10E90000DCF10F5F1F4F0530110519F020E030E0FA
:10E91000E5CF10920A0210920B0210920C02109294
:10E920000D02109206021092070210920802109235
:10E930000902109202021092030210920402109235
:10E9400005028FEE90EE60E00F94F5F180E191EE1C
:10E9500060E00F94C2F18091C00087FFFCCF9091DE
:10E96000C600903608F09F759032B8F09093C600BC
:10E970008091C00086FFFCCF8091C00080648093AE
:10E98000C000A0E2A093C6008091C00086FFFCCF2B
:10E990008091C00080648093C000983409F4D7C18E
:10E9A0009934B8F4923409F459C1933458F490333B
:10E9B00019F1903308F4E3C59F33A1F1903409F0C5
:10E9C000DEC5BDC0953409F470C1963409F0D7C5D1
:10E9D00098C1923509F42BC2933538F49C3409F46C
:10E9E000F5C1913509F0CBC518C2963509F445C279
:10E9F000993509F0C4C567C483E792EE62E00F94CD
:10EA0000F5F110920602109207021092080210927D
:10EA1000090210920A0210920B0210920C0210923C
:10EA20000D0213C18FE792EE62E00F94F5F18FEEC5
:10EA300090EE60E00F94F5F181E291EE60E00F94CA
:10EA4000C2F187EB91EE60E00F94F5F180E391EE77
:10EA500060E00F94C2F184EE90EE60E00F94F5F167
:10EA60008FE391EE60E00F94C2F186E090E061E008
:10EA700070E00F9434F20F94DCF18DE591EE60E0DC
:10EA80000F94C2F189EC91EE60E00F94F5F18EE401
:10EA900091EE60E00F94C2F183EC91EE60E00F9490
:10EAA000F5F18CE691EE60E00F94C2F18EE10F94E7
:10EAB0000DF288E90F940DF281E00F940DF20F949E
:10EAC000DCF18BE791EE60E00F94C2F119E0E0E039
:10EAD000F0E010935700E4918E2F0F940DF20F94F5
:10EAE000DCF18AE891EE60E00F94C2F1E3E0F0E03F
:10EAF00010935700E4918E2F0F940DF20F94DCF1D8
:10EB000089E991EE60E00F94C2F1E2E0F0E0109349
:10EB10005700E4918E2F0F940DF20F94DCF188EAE8
:10EB200091EE60E00F94C2F1E1E0F0E01093570045
:10EB30001491812F0F940DF20F94DCF107CF8BE825
:10EB400092EE62E00F94F5F18BE492EE60E00F94A8
:10EB5000F5F10F94DCF100E010E019C0C8016F2D51
:10EB60000F947FFEFF2031F489E492EE60E00F9471
:10EB7000C2F10BC0F092C6008091C00086FFFCCFAE
:10EB80008091C00080648093C0000F5F1F4FC80158
:10EB900081519F41A0E0B0E0ABBFFC01F790BAE229
:10EBA000FB1621F0E2E000301E07C1F60F94DCF105
:10EBB0000F94DCF187E592EE60E00F94F5F10F948D
:10EBC000DCF1CC24DD2400E010E01EC0C8010F946D
:10EBD00077FEF82E882331F489E492EE60E00F94FA
:10EBE000C2F10BC08093C6008091C00086FFFCCFAD
:10EBF0008091C00080648093C000FE1419F00894D6
:10EC0000C11CD11C0F5F1F4FC80181519F41A0E063
:10EC1000B0E0ABBFFC01E790FAE2EF1621F022E092
:10EC20000030120799F60F94DCF10F94DCF182E6C4
:10EC300092EE60E00F94C2F1C60161E070E00F94C3
:10EC400034F20F94DCF10F94DCF110920202109276
:10EC50000302109204021092050278CE89E992EE26
:10EC600062E00F94F5F1279A2F9A16C02F9880E052
:10EC700090E0E0EDF7E03197F1F7019684369105E9
:10EC8000C1F72F9A80E090E0E0EDF7E03197F1F7DF
:10EC9000019684369105C1F78091C00087FFE6CFC9
:10ECA0008091C00087FFFCCF64C485EA92EE62E0E9
:10ECB0000F94F5F140910202509103026091040219
:10ECC0007091050281E020E10F9491F2809102029F
:10ECD00090910302A0910402B091050280509F4FD1
:10ECE000AF4FBF4F8093020290930302A0930402A0
:10ECF000B093050280509041A040B04008F426CE69
:10ED0000A4CF83EB92EE62E00F94F5F140910602FE
:10ED100050910702609108027091090280E020E1A1
:10ED20000F9491F28091060290910702A09108023F
:10ED3000B091090280509F4FAF4FBF4F80930602A2
:10ED400090930702A0930802B0930902FFCD80ECD4
:10ED500092EE62E00F94F5F183E792EE60E00F949B
:10ED6000F5F18FE792EE60E00F94F5F18BE892EE0B
:10ED700060E00F94F5F189E992EE60E00F94F5F10F
:10ED800085EA92EE60E00F94F5F183EB92EE60E09D
:10ED90000F94F5F180EC92EE60E00F94F5F187ECC2
:10EDA00092EE60E00F94F5F188ED92EE60E00F9442
:10EDB000F5F18FED92EE60E00F94F5F18AEE92EEB0
:10EDC00060E00F94F5F183E093EEBDCD87EC92EE19
:10EDD00062E00F94F5F181E40F947BF282E40F94EA
:10EDE0007BF283E40F947BF284E40F947BF285E45E
:10EDF0000F947BF286E40F947BF287E40F947BF20E
:10EE000088E40F947BF28AE40F947BF28BE40F94F6
:10EE10007BF28CE40F947BF299CD88ED92EE62E068
:10EE20000F94F5F1772473948824992409C48FED05
:10EE300092EE62E00F94F5F140910A0250910B02BC
:10EE400060910C0270910D0282E020E10F9491F22A
:10EE500080910A0290910B02A0910C02B0910D02D8
:10EE600080509F4FAF4FBF4F80930A0290930B0289
:10EE7000A0930C02B0930D0269CD8AEE92EE62E08F
:10EE80000F94F5F184EE90EE60E00F94F5F18FECC5
:10EE900091EE60E00F94F5F1662477244301CC5D98
:10EEA000DE4F19821882C452D140D401C301B695F5
:10EEB000A79597958795CA5DDE4F88839983AA8326
:10EEC000BB83C652D140CC5DDE4FA881B981C4520C
:10EED000D1401196CC5DDE4FB983A883C452D14096
:10EEE000CD0162E070E00F9434F2B0E2B093C6005E
:10EEF0008091C00086FFFCCF8091C0008064809329
:10EF0000C000EDE2E093C6008091C00086FFFCCF18
:10EF10008091C00080648093C000F0E2F093C6004E
:10EF20008091C00086FFFCCF8091C00080648093F8
:10EF3000C000CA5DDE4FE880F9800A811B81C6529D
:10EF4000D140BB27A12F902F8F2D0F940DF2CA5DBA
:10EF5000DE4F8881C652D1400F940DF2B0E2FB2EF5
:10EF6000F092C6008091C00086FFFCCF8091C00067
:10EF700080648093C0000DE30093C6008091C000C0
:10EF800086FFFCCF8091C00080648093C00010E2B7
:10EF90001093C6008091C00086FFFCCF8091C00016
:10EFA00080648093C0008BBEF3012791C65DDE4F65
:10EFB0002883CA52D140A22EBB24CC24DD2408943D
:10EFC000611C711C811C911C8BBEF3018791282E42
:10EFD0003324442455240894611C711C811C911C09
:10EFE0008BBEF3013791C55DDE4F3883CB52D140E4
:10EFF0000894611C711C811C911C8BBEF30147910C
:10F00000C45DDE4F4883CC52D140ADEFEA2EAFEF66
:10F01000FA2EAFEF0A2FAFEF1A2F6E0C7F1C801E57
:10F02000911E142D032DF22CEE24EA0CFB1C0C1D5A
:10F030001D1D0F940DF220E22093C6008091C000A8
:10F0400086FFFCCF8091C00080648093C000C65DC5
:10F05000DE4F8881CA52D1400F940DF230E23093D6
:10F06000C6008091C00086FFFCCF8091C000806404
:10F070008093C000C45DDE4F8881CC52D1400F9494
:10F080000DF240E24093C6008091C00086FFFCCFA5
:10F090008091C00080648093C000C55DDE4F888190
:10F0A000CB52D1400F940DF250E25093C6008091A4
:10F0B000C00086FFFCCF8091C00080648093C000B8
:10F0C0008FEFE8168FEFF80680E0080780E018075A
:10F0D00031F484E092EE60E00F94C2F1DFC0D80119
:10F0E000C7018070907CA070B0708050904CA040A0
:10F0F000B040D1F52FEF3FE340E050E0E222F322B1
:10F1000004231523CA5DDE4FA880B980CA80DB8046
:10F11000C652D140AE0CBF1CC01ED11EAA0CBB1CD7
:10F12000CC1CDD1C8EE092EE60E00F94C2F1BB2798
:10F13000A12F902F8F2D0F940DF28E2D0F940DF285
:10F1400030E23093C6008091C00086FFFCCF8091F2
:10F15000C00080648093C0004EE34093C60080915D
:10F16000C00086FFFCCF87C08EE09EEFA0E0B0E03D
:10F17000E822F9220A231B239CE0E91694E9F90608
:10F1800090E0090790E0190709F088C0C45DDE4FE0
:10F19000A881CC52D140EA2EFF2400E010E0102FCD
:10F1A0000F2DFE2CEE24C55DDE4FB881CB52D14031
:10F1B000EB0EF11C011D111DD601C501817090706F
:10F1C000A070B070DC0199278827E80EF91E0A1F8D
:10F1D0001B1F20EF30E040E050E0A222B322C42207
:10F1E000D52241E1AA0CBB1CCC1CDD1C4A95D1F7F1
:10F1F000EA0CFB1C0C1D1D1D81E090E0A0E0B0E0BE
:10F20000282239224A225B2235E1220C331C441C7D
:10F21000551C3A95D1F7E20CF31C041D151D57013E
:10F220006801AA0CBB1CCC1CDD1C85E192EE60E0E1
:10F230000F94C2F1C801AA27BB270F940DF2BB2778
:10F24000A12F902F8F2D0F940DF28E2D0F940DF274
:10F2500090E29093C6008091C00086FFFCCF809121
:10F26000C00080648093C000AEE3A093C60080918C
:10F27000C00086FFFCCF8091C00080648093C000F6
:10F28000C601AA27BB270F940DF2BB27AD2D9C2DDD
:10F290008B2D0F940DF28A2D0F940DF20F94DCF14B
:10F2A000CC5DDE4FE881F981C452D140F99709F471
:10F2B0004DCBF4E0EF2EF12C012D112D6E0C7F1CA7
:10F2C000801E911EF2CD83E093EE62E00F94F5F183
:10F2D0008AE192EE60E00F94C2F18091C00087FF56
:10F2E000FCCF1091C6001F751093C6008091C0001E
:10F2F00086FFFCCF8091C00080648093C0000F9493
:10F30000DCF1812F81548A3108F036C1163409F4BA
:10F3100095C0173490F4133409F44EC0143430F40B
:10F320001134F1F0123409F01DC130C0143409F465
:10F3300059C0153409F016C16BC01A3409F4C4C0A1
:10F340001B3438F4173409F48FC0183409F00AC19B
:10F35000A1C01B3409F4D2C01C3409F003C1E8C0B9
:10F360008FEF81B90DC082B1809582B980E090E0C5
:10F37000E0EDF7E03197F1F70196883C9105C1F790
:10F380008091C00087FFEFCF12B8EFC08FEF84B934
:10F390000DC085B1809585B980E090E0E0EDF7E0A3
:10F3A0003197F1F70196883C9105C1F78091C00033
:10F3B00087FFEFCF15B8D9C08FEF87B90DC088B1DF
:10F3C000809588B980E090E0E0EDF7E03197F1F7C3
:10F3D0000196883C9105C1F78091C00087FFEFCF6F
:10F3E00018B8C3C08FEF8AB90DC08BB180958BB9A7
:10F3F00080E090E0E0EDF7E03197F1F70196883C8E
:10F400009105C1F78091C00087FFEFCF1BB8ADC059
:10F410008FEF8DB90DC08EB180958EB980E090E0F0
:10F42000E0EDF7E03197F1F70196883C9105C1F7DF
:10F430008091C00087FFEFCF1EB897C08FEF80BBD1
:10F440000DC081B3809581BB80E090E0E0EDF7E0F6
:10F450003197F1F70196883C9105C1F78091C00082
:10F4600087FFEFCF11BA81C08FEF83BB0DC084B38C
:10F47000809584BB80E090E0E0EDF7E03197F1F714
:10F480000196883C9105C1F78091C00087FFEFCFBE
:10F4900014BA6BC08FEF809301010FC080910201FD
:10F4A00080958093020180E090E0E0EDF7E03197F5
:10F4B000F1F70196883C9105C1F78091C00087FF64
:10F4C000EDCF1092020151C08FEF809304010FC065
:10F4D0008091050180958093050180E090E0E0ED4A
:10F4E000F7E03197F1F70196883C9105C1F78091DB
:10F4F000C00087FFEDCF1092050137C08FEF8093DA
:10F5000007010FC08091080180958093080180E079
:10F5100090E0E0EDF7E03197F1F70196883C910536
:10F52000C1F78091C00087FFEDCF109208011DC088
:10F530008FEF80930A010FC080910B01809580931B
:10F540000B0180E090E0E0EDF7E03197F1F70196F4
:10F55000883C9105C1F78091C00087FFEDCF1092E4
:10F560000B0103C085E292EEEEC98091C00087FFD7
:10F57000FCCF8091C600EAC988E392EEE4C98CE131
:10F5800091EEE1C988249924933011F1943028F444
:10F59000913089F09230B8F408C0953061F195301F
:10F5A000F0F0963009F048C043C02B3109F042C951
:10F5B00091E06BE13FC96227C15DDE4F2883CF52E6
:10F5C000D14092E037C9B22FA0E0622793E032C960
:10F5D000822F90E0A82BB92B622794E02BC92E3004
:10F5E00009F039C3622795E0C05DDE4F19821882A9
:10F5F000C053D1401FC9E1E0F0E0EC0FFD1FC05D3A
:10F60000DE4F08811981C053D140E00FF11F2083E4
:10F610000F5F1F4FC05DDE4F19830883C053D14079
:10F6200062270A171B0709F005C9D80196E002C92D
:10F63000261709F010C303C0973009F0FBC87724E0
:10F640009981933109F412C19431C8F4963009F4C8
:10F65000D8C0973050F4923009F406C1933009F4C1
:10F660006DC0913009F059C253C0913109F477C08F
:10F67000923108F0BBC0903109F04FC2F5C098310B
:10F6800009F487C0993150F4953109F4EFC09531F0
:10F6900008F4C6C1963109F040C2C2C19A3109F4DA
:10F6A0006CC09A3108F491C09B3109F45BC09D3164
:10F6B00009F033C29D81903359F48F81882311F46E
:10F6C0009EE11CC0813011F091E018C098E916C08D
:10F6D000892F807591F0903539F4E0E0F0E089E011
:10F6E0008093570094910AC0983539F4E3E0F0E034
:10F6F00089E080935700949101C090E01A821B82A8
:10F700008D818C831D829E831F8227E030E009C299
:10F710001A8288E08B8381E48C8386E58D8382E581
:10F720008E8389E48F8383E5888780E589878FE5E9
:10F730008A8782E38B872BE030E0F3C18A818139AD
:10F7400041F0823941F0803911F48FE005C080E04A
:10F7500003C082E001C08AE01A828B8344C0772410
:10F76000739482C08D81882311F48EE12CC0813086
:10F7700011F081E028C088E926C01A82E1E0F0E0BB
:10F7800089E08093570084918B831C8224E030E0D1
:10F79000C8C18B81803589F48C81883039F4E2E0EE
:10F7A000F0E089E08093570084910DC0E0E0F0E044
:10F7B00089E080935700849106C0E3E0F0E089E09F
:10F7C0008093570084911A82DFCF8D81836C99E0FA
:10F7D000E1E0F0E0082E90935700E89507B600FCB2
:10F7E000FDCF1A821B8223E030E09BC180EC8A832C
:10F7F000CE5CDE4F188219821A821B82C253D1401E
:10F800008EC18A8190E0A0E0B0E0582F44273327D2
:10F8100022278B8190E0A0E0B0E0DC0199278827C7
:10F82000282B392B4A2B5B2B8D8190E0A0E0B0E098
:10F83000282B392B4A2B5B2B8C8190E0A0E0B0E089
:10F84000BA2FA92F982F8827282B392B4A2B5B2BCF
:10F85000220F331F441F551FC05EDE4F288339839C
:10F860004A835B83C052D1401A8259C13A81C95C34
:10F87000DE4F3883C753D140CA5CDE4F1882C6536F
:10F88000D1408B81C82EDD24CA5CDE4F488159816E
:10F89000C653D140C42AD52A933109F082C0CE5C28
:10F8A000DE4F88819981AA81BB81C253D1408050AB
:10F8B000904CA340B04030F583E0CE5CDE4FE88052
:10F8C000F9800A811B81C253D140F70100935B008C
:10F8D00080935700E89507B600FCFDCFCE5CDE4F65
:10F8E000088119812A813B81C253D14000501F4FAA
:10F8F0002F4F3F4FCE5CDE4F088319832A833B8313
:10F90000C253D140C05EDE4F488159816A817B81FC
:10F91000C052D140DE011B9631E08C9111962C91A2
:10F9200011971296C75CDE4F2883C953D140C85C3B
:10F93000DE4F1882C853D14090E0C85CDE4FE881AA
:10F94000F981C853D1408E2B9F2B0C01FA01609393
:10F950005B0030935700E89511244E5F5F4F6F4F67
:10F960007F4F0EEFE02E0FEFF02ECE0CDF1CC114F8
:10F97000D10499F685E0C05EDE4F088119812A81A5
:10F980003B81C052D140F80120935B008093570027
:10F99000E89507B600FCFDCF81E180935700E8951C
:10F9A00035C0C05EDE4F88819981AA81BB81C0527B
:10F9B000D140B695A795979587957C018601ABE0D8
:10F9C000AA2EB12CAC0EBD1E0BC0D5016D915D01F0
:10F9D000C7010F947FFE0894E11CF11C01501040F8
:10F9E0000115110591F7A60160E070E0440F551F65
:10F9F000661F771FC05EDE4FE880F9800A811B8199
:10FA0000C052D1404E0D5F1D601F711F1A82C05E33
:10FA1000DE4F488359836A837B83C052D1407FC0C5
:10FA2000FA80C55CDE4FF882CB53D140C65CDE4F16
:10FA30001882CA53D1408B81C82EDD24C65CDE4FAC
:10FA400008811981CA53D140C02AD12A1A828981DA
:10FA5000BE016D5F7F4F843121F59601C05EDE4FA0
:10FA6000E880F9800A811B81C052D1400BBFF701A9
:10FA700087919691DB018C9311969C936E5F7F4FDB
:10FA8000D801C7010296A11DB11DC05EDE4F88835B
:10FA90009983AA83BB83C052D14022503040F1F6F3
:10FAA00036C0C05EDE4F288139814A815B81C052F9
:10FAB000D1400894C108D108760100E010E0089414
:10FAC000C11CD11C0894E11CF11C011D111DE20E8A
:10FAD000F31E041F151F21BDBB27A52F942F832FB5
:10FAE00082BD2F5F3F4F4F4F5F4FF89A80B5DB01CC
:10FAF0008D93BD012E153F054007510761F7C05E8C
:10FB0000DE4F288339834A835B83C052D1409601FC
:10FB10002D5F3F4FFB01108204C080EC8A8322E0FE
:10FB200030E08BE18093C6008091C00086FFFCCF5F
:10FB30008091C00080648093C000C15DDE4FF88179
:10FB4000CF52D140F093C6008091C00086FFFCCF19
:10FB50008091C00080648093C000432F3093C60022
:10FB60008091C00086FFFCCF8091C00080648093AC
:10FB7000C000922F2093C6008091C00086FFFCCF6A
:10FB80008091C00080648093C0008EE08093C600A6
:10FB90008091C00086FFFCCF8091C000806480937C
:10FBA000C00065E1C15DDE4FE880CF52D1406E25D7
:10FBB00069276427FE01319610C090819093C6009A
:10FBC0008091C00086FFFCCF31968091C000806498
:10FBD0008093C0006927215030402115310569F715
:10FBE0006093C6008091C00086FFFCCF8091C0006A
:10FBF00080648093C00085B1805885B9772081F4F6
:10FC0000C15DDE4F0881CF52D1400F5FC15DDE4F35
:10FC10000883CF52D14090E0A0E0B0E00D941AF4F8
:10FC200027982F9880E090E020ED37E0F901319798
:10FC3000F1F7019684369105C9F700008091C00064
:10FC40008D7F8093C00081E180935700E895EE2777
:10FC5000FF270994FFCF90E00D941AF497FB092E2B
:10FC600007260AD077FD04D02ED006D000201AF443
:10FC7000709561957F4F0895F6F7909581959F4F08
:10FC80000895A1E21A2EAA1BBB1BFD010DC0AA1FDD
:10FC9000BB1FEE1FFF1FA217B307E407F50720F0F5
:10FCA000A21BB30BE40BF50B661F771F881F991F70
:10FCB0001A9469F760957095809590959B01AC01B9
:10FCC000BD01CF010895AA1BBB1B51E107C0AA1FAC
:10FCD000BB1FA617B70710F0A61BB70B881F991FED
:10FCE0005A95A9F780959095BC01CD010895F99991
:10FCF000FECF92BD81BDF89A992780B50895262F31
:10FD0000F999FECF1FBA92BD81BD20BD0FB6F89400
:0EFD1000FA9AF99A0FBE01960895F894FFCF63
:00000001FF
