:100000000C9423010C9454010C9454010C9454014D
:100010000C9454010C9454010C9454010C9454010C
:100020000C9454010C94F6070C94F6070C94F60704
:100030000C9454010C9454010C9454010C945401EC
:100040000C9454010C9454010C9454010C945401DC
:100050000C9454010C9454010C9454010C94AC076E
:100060000C9454010C9476070C944C070C94540196
:100070000C9454010C9454010C9454010C945401AC
:100080000C9454010C9454010C9454010C9454019C
:100090000C9416070C94EC060C9454010C94000874
:1000A0000C9454010C9454010C9454010C9454017C
:1000B0000C9454010C9454010C9454010C9454016C
:1000C0000C9454010C9454010C9454010C9454015C
:1000D0000C9454010C9454010C9454010C9454014C
:1000E0000C9454010C94F6010C94A6010C94E002BB
:1000F0000C94EF050C940D030C9409030C94F50279
:100100000C94CA020C94F1020C9403040C94920116
:100110000C9411030C9403030C9456010C94B40139
:100120000C94E4020C94FB020C9417030C94200929
:100130000C94E8020C941B030C9448020C94CE041B
:100140000C94C5020C94DC020C9483010C94FF0205
:100150000C94EB020C949D04000022002500280062
:100160002B002E00310034000201000005010801BF
:100170000B0105050505070508080808020202022B
:100180000A0A080804040404010101010101010133
:100190000303030303030303040707070C0C0C0CFE
:1001A0000C0C0C0C020202020606060606060606E7
:1001B0000B0B0B0B0B0B0B0B010210202008081074
:1001C00020401020408002010201080402010102C7
:1001D00004081020408080402010080402018004A0
:1001E00002018040201008040201080402010102FB
:1001F0000408102040800102040810204080000004
:100200000A0B02090C0D0E08070304010000000090
:1002100000000000000000000000000000000000DE
:10022000000000000000000000001211100000009B
:1002300000000000000000000000000000000000BE
:1002400000000000200911241FBECFEFD1E2DEBF65
:10025000CDBF00E00CBF25E0AAE0B3E001C01D92D5
:10026000A632B207E1F713E0A0E0B2E0E8EBF8E174
:1002700000E00BBF02C007900D92AA30B107D9F77A
:1002800011E0C3E2D1E000E006C021970109802F10
:10029000FE010E94450CC232D10780E00807A9F791
:1002A0000E949D090C945A0C0C940000AF92BF92CE
:1002B000CF92DF92EF92FF920F931F93CF93DF9332
:1002C0006C017B018B01040F151FEB015E01AE1861
:1002D000BF08C017D10759F06991D601ED91FC9183
:1002E0000190F081E02DC6011995892B79F7C501A0
:1002F000DF91CF911F910F91FF90EF90DF90CF9002
:10030000BF90AF900895FC01538D448D252F30E0B0
:10031000842F90E0821B930B541710F0CF96089512
:1003200001970895FC01918D828D981761F0A28D3F
:10033000AE0FBF2FB11D5D968C91928D9F5F9F7305
:10034000928F90E008958FEF9FEF0895FC01918DBB
:10035000828D981731F0828DE80FF11D858D90E028
:1003600008958FEF9FEF0895FC01918D228D892FC5
:1003700090E0805C9F4F821B91098F7399270895AD
:1003800084E894E00E94B40121E0892B09F420E084
:10039000822F089586E893E00E94B40121E0892B22
:1003A00009F420E0822F0895FC01A48DA80FB92F35
:1003B000B11DA35ABF4F2C91848D90E001968F738D
:1003C0009927848FA689B7892C93A089B1898C91AC
:1003D000837080648C93938D848D981306C00288FB
:1003E000F389E02D80818F7D80830895EF92FF92C5
:1003F0000F931F93CF93DF93EC0181E0888F9B8D48
:100400008C8D98131AC0E889F989808185FF15C001
:100410009FB7F894EE89FF896083E889F989808124
:100420008370806480839FBF81E090E0DF91CF91F3
:100430001F910F91FF90EF900895F62E0B8D10E015
:100440000F5F1F4F0F731127E02E8C8D8E110CC084
:100450000FB607FCFACFE889F989808185FFF5CFCF
:10046000CE010E94D401F1CFEB8DEC0FFD2FF11DD9
:10047000E35AFF4FF0829FB7F8940B8FEA89FB890C
:1004800080818062CFCF682F86E893E00C94F601DC
:10049000CF93DF93EC01888D8823B9F0AA89BB89BB
:1004A000E889F9898C9185FD03C0808186FD0DC0A6
:1004B0000FB607FCF7CF8C9185FFF2CF808185FFC7
:1004C000EDCFCE010E94D401E9CFDF91CF91089505
:1004D00080E090E0892B29F00E94CA0181110E94DE
:1004E000000080E090E0892B29F00E94C00181117A
:1004F0000E94000080E090E0892B49F080E090E0CD
:10050000892B29F00E94000081110E94000080E0E8
:1005100090E0892B49F080E090E0892B29F00E943F
:10052000000081110C9400000895282F30E0F9019B
:10053000E250FE4F9491F901E854FE4F44912E5839
:100540003E4FF9012491222309F435C0992311F17A
:1005500091509231F8F4E92FF0E08827ED54FD4FE7
:100560008F4F0C94450CE402E802C502DC02E00265
:10057000CA02EB02F102F502FB02FF0203030903C8
:100580000D03CA02110317031B03809180008F77AC
:1005900080938000E22FF0E0EE0FFF1FE85AFE4F3D
:1005A000A591B4918FB7F894EC91611148C0409532
:1005B0004E234C938FBF0895809180008F7DE8CFAC
:1005C00080918000877FE4CF84B58F7784BDE2CFB0
:1005D00084B58F7DFBCF8091B0008F778093B00082
:1005E000D9CF8091B0008F7DF9CF809190008F7727
:1005F00080939000CFCF809190008F7DF9CF809134
:100600009000877FF5CF8091A0008F778093A00026
:10061000C1CF8091A0008F7DF9CF8091A000877F0E
:10062000F5CF809120018F7780932001B3CF809107
:1006300020018F7DF9CF80912001877FF5CF4E2B50
:10064000B8CF3FB7F8948091820390918303A09133
:100650008403B091850326B5A89B05C02F3F19F0F0
:100660000196A11DB11D3FBFBA2FA92F982F882732
:10067000BC01CD01620F711D811D911D42E0660F0D
:10068000771F881F991F4A95D1F70895209131034C
:10069000260F3327331F21323105ECF42091550307
:1006A000FC0190E080E0243069F082E00895A091A0
:1006B00031032191AC014F5E5C4FA40FB52FB11DEA
:1006C0002C930196861798F380913103680F6093FD
:1006D000310380E0089581E0089508958FEF9FEF42
:1006E00008958FEF9FEF089580910A0390E0919510
:1006F000819591090895CF93DF93CB01EA01642F8F
:100700000E944603CE01DF91CF910895CF93DF93EE
:100710001F92CDB7DEB7698361E0CE0101960E94DA
:10072000460381E090E00F90DF91CF91089590E033
:1007300080E008952F923F924F925F926F927F9246
:100740008F929F92AF92BF92CF92DF92EF92FF92E1
:100750000F931F93CF93DF932C011A0189013B0163
:10076000D0E0C0E06901F12CE12CC215D30591F174
:100770008FB7F89480907E0390907F03A0908003C1
:10078000B09081038FBFD20112968D919C91DC01B4
:10079000ED91FC910284F385E02D199597FF2EC011
:1007A0000115110581F32FB7F89480917E03909184
:1007B0007F03A0918003B09181032FBF881999090D
:1007C000AA09BB098C159D05AE05BF05E0F28EEFA9
:1007D000209709F08C2FDF91CF911F910F91FF90FF
:1007E000EF90DF90CF90BF90AF909F908F907F90D1
:1007F0006F905F904F903F902F900895F3018193F9
:100800003F012196B2CFAF92BF92CF92DF92EF928B
:10081000FF920F931F93CF93DF9300D01F921F92ED
:10082000CDB7DEB77C01062FB72E142F690143E048
:1008300050E0BE016F5F7F4F0E949A03181694F03C
:100840008EEF9FEF0F900F900F900F900F90DF9112
:10085000CF911F910F91FF90EF90DF90CF90BF90BD
:10086000AF9008958981882319F08DEF9FEFEACF2B
:100870008A818111FACF8B818F3FB9F7960142E0CF
:1008800050E0BE016C5F7F4FC7010E949A031816AB
:10089000BCF68C819D81980F41F782508C8318178C
:1008A00008F448C0F7011481AA24A394A10E96016C
:1008B00042E050E0BE016F5F7F4FC7010E949A0384
:1008C00018160CF0BDCF8981853D79F68A818A1191
:1008D000CCCF4C8150E09601602F7B2DC7010E9448
:1008E0009A032C81082E000C990B2817190609F081
:1008F000A7CF1A52902FE02FFB2D8E2F891B821726
:1009000018F48191180FF9CF960142E050E0BE0132
:100910006F5F7F4FC7010E949A0318160CF090CFAB
:100920008981180F09F0A1CF8A8181119ECF8C8116
:1009300090E088CF8CEF9FEF85CFDC011296ED9190
:10094000FC91A089B18982E08C93A485B5851C9225
:10095000A685B78580E18C93108EA489B58986E041
:100960008C93A289B3898C9180618C93A289B3897D
:100970008C9188608C93A289B3898C9180688C93C8
:100980000288F389E02D80818F7D80830895DC01CA
:10099000ED91FC910190F081E02D1994CF93DF93BC
:1009A000EC0165E570E08A819B810E94C70465E5E2
:1009B00070E08A819B810E94C7048A819B81DC014F
:1009C000ED91FC910190F081E02D60E019958A8114
:1009D0009B81DC01ED91FC910190F081E02D60E0C4
:1009E00019958A819B81DC01ED91FC910190F08148
:1009F000E02D60E019958A819B81DC01ED91FC91ED
:100A00000084F185E02D19958A819B81DC01ED91AF
:100A1000FC910084F185E02D1995892B49F08A819C
:100A20009B81DC01ED91FC910284F385E02DEBCFFD
:100A3000DF91CF910895FC0101900020E9F73197F3
:100A4000AF01481B590BBC0186E893E00C9456019A
:100A50008F929F92AF92BF920F931F93CF93DF938A
:100A6000CDB7DEB7A1970FB6F894DEBF0FBECDBFEE
:100A700019A2423008F44AE08E010F5D1F4F842E08
:100A8000912CB12CA12CA50194010E94230CE62FDE
:100A9000B901CA01EA30F4F4E05DD801EE938D01AA
:100AA000232B242B252B79F790E080E0109719F069
:100AB000CD010E941B05A1960FB6F894DEBF0FBEB4
:100AC000CDBFDF91CF911F910F91BF90AF909F90BD
:100AD0008F900895E95CE1CFCF93DF930E941B05CF
:100AE000EC0184E292E00E941B058C0F9D1FDF91B8
:100AF000CF9108951F93CF93DF9385ED8093BC0032
:100B000080910D0390910E03A0910F03B0911003FB
:100B10000796A11DB11D23E0B695A79597958795DA
:100B20002A95D1F72091BC0024FD03C010925503F3
:100B300052C040910D0350910E0360910F037091CC
:100B40001003452B462B472B69F30097A105B105F0
:100B500041F02AE22A95F1F700C00197A109B109F5
:100B6000E1CF80910C03C1E0C0930B03882399F17E
:100B7000D091B8001091BA008091BC008A7B80931C
:100B8000BC0060E084E10E94950260E085E10E9483
:100B9000950210925503C09357031092560361E0DB
:100BA00084E10E94950261E085E10E9495028091B6
:100BB000B9008E7F8093B9008091B9008D7F8093BA
:100BC000B90088E48093B80085E48093BC0010935A
:100BD000BA00D093B800DF91CF911F9108959F92F2
:100BE000AF92BF92CF92DF92EF92FF920F931F933B
:100BF000CF93DF93CDB7DEB72C970FB6F894DEBF57
:100C00000FBECDBF7C016B01942EB22EA32EDC0152
:100C100012968D919C91DC01ED91FC910084F185FF
:100C2000E02D1995F70182819381DC01ED91FC9112
:100C30000084F185E02D1995F701A281B381892BFC
:100C400041F0ED91FC9111970284F385E02DCD01E7
:100C5000E8CFF6018081F7018483ED91FC91119733
:100C60000190F081E02D60E0CD011995D701129639
:100C70008D919C91DC01ED91FC910190F081E02D32
:100C800060E01995F70182819381DC01ED91FC917F
:100C90000190F081E02D6FEF199561E0600F162F44
:100CA000190DF70182819381DC01ED91FC91019096
:100CB000F081E02D612F1995612F70E0719561959C
:100CC0007109F701828193810E94C70464ED70E08D
:100CD000D70112968D919C910E94C704F7018281E1
:100CE0009381492D50E0DC01ED91FC910280F3816C
:100CF000E02DB60119959C2DF60114ED8E2F891B60
:100D0000891518F48191180FF9CFF7018281938129
:100D1000402F50E0DC01ED91FC910280F381E02D49
:100D20006B2D7A2D19959B2DEB2DFA2D8E2F891B6E
:100D3000801718F48191180FF9CFF7018281938100
:100D4000612F6195DC01ED91FC910190F081E02D26
:100D50001995F70182819381DC01ED91FC9101905D
:100D6000F081E02D60E0199586E0E0E0F2E0DE0140
:100D7000179601900D928A95E1F72AE030E046E05F
:100D800050E0BE016F5F7F4FC7010E949A031816A3
:100D90000CF546E050E0BE01695F7F4FCE01019641
:100DA0000E944D0C21E0892B09F420E0822F8195CF
:100DB0002C960FB6F894DEBF0FBECDBFDF91CF915A
:100DC0001F910F91FF90EF90DF90CF90BF90AF9069
:100DD0009F9008958EEFECCF1F920F920FB60F9257
:100DE00011240BB60F922F933F934F935F936F9302
:100DF0007F938F939F93AF93BF93EF93FF9384E879
:100E000094E00E94D401FF91EF91BF91AF919F9127
:100E10008F917F916F915F914F913F912F910F90A3
:100E20000BBE0F900FBE0F901F9018951F920F9240
:100E30000FB60F9211240BB60F922F938F939F939F
:100E4000EF93FF93E0919404F09195048081E091F9
:100E50009A04F0919B0482FD1DC0908180919D04B5
:100E60008F5F8F7320919E04821741F0E0919D0463
:100E7000F0E0EC57FB4F958F80939D04FF91EF912D
:100E80009F918F912F910F900BBE0F900FBE0F90DF
:100E90001F9018958081F2CF1F920F920FB60F927C
:100EA00011240BB60F922F933F934F935F936F9341
:100EB0007F938F939F93AF93BF93EF93FF9386E8B6
:100EC00093E00E94D401FF91EF91BF91AF919F9168
:100ED0008F917F916F915F914F913F912F910F90E3
:100EE0000BBE0F900FBE0F901F9018951F920F9280
:100EF0000FB60F9211240BB60F922F938F939F93DF
:100F0000EF93FF93E0919603F09197038081E09136
:100F10009C03F0919D0382FD1DC0908180919F03F1
:100F20008F5F8F732091A003821741F0E0919F03A0
:100F3000F0E0EA57FC4F958F80939F03FF91EF916C
:100F40009F918F912F910F900BBE0F900FBE0F901E
:100F50001F9018958081F2CF1F920F920FB60F92BB
:100F600011242F933F938F939F93AF93BF938091BF
:100F70007E0390917F03A0918003B0918103309113
:100F80007D0323E0230F2D3758F50196A11DB11DD8
:100F900020937D0380937E0390937F03A09380032F
:100FA000B09381038091820390918303A091840385
:100FB000B09185030196A11DB11D8093820390938A
:100FC0008303A0938403B0938503BF91AF919F9156
:100FD0008F913F912F910F900FBE0F901F901895FA
:100FE00026E8230F0296A11DB11DD2CF1F920F92AA
:100FF0000FB60F9211240F900FBE0F901F901895EF
:101000001F920F920FB60F9211240BB60F922F93CF
:101010003F934F935F936F937F938F939F93AF9380
:10102000BF93EF93FF938091B900887F803609F4D6
:101030004DC008F040C0883209F4A7C028F58031BF
:1010400009F49BC0C8F4882309F4F7C0883009F478
:1010500094C0FF91EF91BF91AF919F918F917F913C
:101060006F915F914F913F912F910F900BBE0F9019
:101070000FBE0F901F901895883109F486C08032FA
:1010800041F78093540314C0803409F49BC040F4AA
:101090008033B9F38833E9F68093540385ECAEC00E
:1010A000803509F483C0883509F494C0883489F602
:1010B0000E947A05CECF883909F48AC038F588377E
:1010C00029F050F4883611F0803719F683E08093C8
:1010D00055031092530355C0883809F479C08039FC
:1010E00019F0803809F0B5CF80915303803208F0B1
:1010F0006FC0E091530381E08E0F80935303809182
:10110000BB00F0E0ED5CFC4F80833BC0803B39F0DE
:10111000D0F4803A09F477C0883A09F09ACF84E095
:10112000809355031092320310923103F0E0E0E017
:1011300019958091310381110FC081E080933103B3
:101140001092110309C0803C09F4A8CF883C09F42F
:10115000A5CF883B09F07DCFE091320381E08E0F6F
:1011600080933203F0E0EF5EFC4F80818093BB0000
:10117000909132038091310329C080917A0380934A
:10118000BB0085EC8093BC0064CF90917903809183
:101190007803981758F5E091790381E08E0F8093DA
:1011A0007903F0E0E85AFC4F8081E9CFE0917903C0
:1011B00081E08E0F809379038091BB00F0E0E85AC4
:1011C000FC4F808390917903809178039817C8F23F
:1011D00085E8D8CFE091790381E08E0F8093790381
:1011E0008091BB00F0E0E85AFC4F80838091570368
:1011F00081115ECF81E08093560384EA8093BC0026
:101200001092550326CF85EC8093BC0010925503B5
:1012100080915303803230F4E0915303F0E0ED5CB1
:10122000FC4F10826091530370E083E393E0F0E0A1
:10123000E0E01995109253030CCF1092540338CF6D
:10124000E4E8F4E01382128248EE53E060E070E0DC
:1012500044835583668377838AE092E09183808319
:101260002DEC30E0358724872CEC30E0378726875B
:1012700028EC30E0318B208B29EC30E0338B228B53
:101280002AEC30E0358B248B2EEC30E0378B268B2C
:10129000118E128E138E148EA6E8B3E013961C9254
:1012A0001E92129714964D935D936D937C931797AE
:1012B00011969C938E9385EC90E01D969C938E9353
:1012C0001C9784EC90E01F969C938E931E9780EC65
:1012D00090E051969C938E93509781EC90E05396BA
:1012E0009C938E93529782EC90E055969C938E93AC
:1012F000549786EC90E057969C938E935697599608
:101300001C9259975A961C925A975B961C925B971F
:101310005C961C92A1E2B5E08CE192E011969C9360
:101320008E931396FC93EE93129714961C92149737
:10133000B0938304A09382040895CF93DF93CDB735
:10134000DEB7A8970FB6F894DEBF0FBECDBF789476
:1013500084B5826084BD84B5816084BD85B58260BA
:1013600085BD85B5816085BD80916E00816080936B
:101370006E001092810080918100826080938100D4
:1013800080918100816080938100809180008160E4
:10139000809380008091B10084608093B10080913F
:1013A000B00081608093B000809191008260809352
:1013B00091008091910081608093910080919000D4
:1013C0008160809390008091A10082608093A10051
:1013D0008091A10081608093A1008091A000816034
:1013E0008093A000809121018260809321018091EF
:1013F000210181608093210180912001816080938F
:10140000200180917A00846080937A0080917A0034
:10141000826080937A0080917A00816080937A0064
:1014200080917A00806880937A001092C100E091E8
:101430009603F091970312E01083E0919203F091EC
:1014400093031082E0919403F09195038FEC8083D5
:1014500010929E03E0919A03F0919B0386E08083B3
:10146000E0919803F0919903808180618083E091FD
:101470009803F0919903808188608083E0919803BC
:10148000F0919903808180688083E0919803F091C6
:10149000990380818F7D808387E292E00E946C05B2
:1014A0008091820490918304DC01ED91FC91019084
:1014B000F081E02D19958091820490918304DC01E4
:1014C000ED91FC910280F381E02D19951093420477
:1014D0008091820490918304DC01ED91FC91048061
:1014E000F581E02D00E030E020E041E062E474E0CE
:1014F0001995882329F08EE292E00E941B05FFCF08
:101500008091820490918304DC01ED91FC9106802E
:10151000F781E02D28EE33E040E462E474E01995B1
:1015200097FDE9CFC0904204D0904304DC24CD2441
:10153000DC24F12CE12CFE2CED2CDC2CCC24809135
:101540004404C82AFE2CED2CDC2CCC2480914504CC
:10155000C82AC114D104E104F10469F286E492E0DE
:101560000E941B056F2D77278827992740E10E944D
:10157000280584E292E00E941B0585E592E00E9426
:101580001B056E2D70E090E080E04AE00E94280587
:101590008EE20E9443026D2D70E090E080E04AE010
:1015A0000E94280584E292E00E941B0594E190933A
:1015B000420481E080934304909344048093450463
:1015C0008091820490918304DC01ED91FC91048070
:1015D000F581E02D00E030E020E044E062E474E0DA
:1015E0001995811110C08091820490918304DC01CF
:1015F000ED91FC910680F781E02D28EE33E040E488
:1016000062E474E0199584E692E00E946C0597E02C
:10161000292E7E01B1E2EB0EF11C2AE4322EE8A65F
:101620006E01E5E0CE0ED11CD701E22D1D92EA95A8
:10163000E9F730924204F1E0F0934304109244043D
:101640008091820490918304DC01ED91FC910480EF
:10165000F581E02D00E030E020E043E062E474E05A
:1016600019958111E4C08091820490918304DC017A
:10167000ED91FC910680F781E02D28EE33E040E407
:1016800062E474E0199597FDD2C0809142048130E4
:1016900009F0CDC0B0904704A8E4B4E08701F70199
:1016A0008E2F8E198B1518F48D918193F9CF86E8C2
:1016B00092E00E941B05802FB8A58B1B8B15B0F400
:1016C000F801A1908F01FFE0FA1560F084E992E043
:1016D0000E941B056A2D70E090E080E040E10E94CE
:1016E0002805E9CF80E20E944302F4CF86E292E02F
:1016F0000E946C0586E292E00E946C0587E992E008
:101700000E946C0588EC92E00E946C0580E4809356
:10171000420421E02093430480E38093440494E056
:10172000909345048091820490918304DC01ED91B3
:10173000FC910480F581E02D00E030E020E044E001
:1017400062E474E01995811179C0809182049091CE
:101750008304DC01ED91FC910680F781E02D28EEF9
:1017600033E040E462E474E0199580914204811111
:1017700065C084E0E3E4F4E0DE01119601900D928F
:101780008A95E1F7FE0131965F018F01D8019D90A6
:101790008D01BFE0B91508F44DC084E992E00E94C4
:1017A0001B05692D70E090E080E040E10E94280573
:1017B0000C151D0559F787ED92E00E941B05F501F8
:1017C00081915F0180320CF48EE20E9443020A157F
:1017D0001B05A9F786E292E00E946C0586E292E082
:1017E0000E946C050E9421034B015C0188EE482E8B
:1017F00083E0582E612C712C0E942103681979090D
:101800008A099B09683E734081059105A8F3F1E0C0
:101810004F1A51086108710828EE820E23E0921ECB
:10182000A11CB11C411451046104710429F70E94E8
:101830006802FACE80E20E944302B3CF8CED92E0C0
:101840000E946C05F4CFA1E21A2EAA1BBB1BFD015E
:101850000DC0AA1FBB1FEE1FFF1FA217B307E4078F
:10186000F50720F0A21BB30BE40BF50B661F771FE7
:10187000881F991F1A9469F76095709580959095C7
:101880009B01AC01BD01CF010895EE0FFF1F881F22
:101890008BBF0790F691E02D1994FB01DC0104C089
:1018A0008D910190801921F441505040C8F7881B58
:0818B000990B0895F894FFCF95
:1018B8000000FF00FF0000000000F6015601830150
:1018C8004802B4019201A601000000009D04CE0464
:1018D800EF0503040D0A0048656C6C6F210044692C
:1018E800646E27742066696E6420504E3533782004
:1018F800626F61726400466F756E64206368697018
:1019080020504E35004669726D77617265207665A4
:10191800722E200057616974696E6720666F7220A5
:10192800616E2049534F313434343341204361725E
:1019380064202E2E2E0020205549442056616C75B7
:10194800653A20002030005365656D7320746F2060
:1019580062652061204D696661726520556C7472FC
:10196800616C696768742074616720283720627920
:10197800746520554944290052656164696E672081
:101988007061676520340020202020004F6F6F7041
:1019980073202E2E2E20756E61626C6520746F2068
:1019A8007265616420746865207265717565737409
:0A19B80065642070616765213F003F
:00000001FF
