:100000000C9423010C9454010C9454010C9454014D
:100010000C9454010C9454010C9454010C9454010C
:100020000C9454010C94CE070C94CE070C94CE077C
:100030000C9454010C9454010C9454010C945401EC
:100040000C9454010C9454010C9454010C945401DC
:100050000C9454010C9454010C9454010C94840796
:100060000C9454010C944E070C9424070C945401E6
:100070000C9454010C9454010C9454010C945401AC
:100080000C9454010C9454010C9454010C9454019C
:100090000C94EE060C94C4060C9454010C94D807EE
:1000A0000C9454010C9454010C9454010C9454017C
:1000B0000C9454010C9454010C9454010C9454016C
:1000C0000C9454010C9454010C9454010C9454015C
:1000D0000C9454010C9454010C9454010C9454014C
:1000E0000C9454010C9425030C9400040C941303F9
:1000F0000C94A6040C9402030C947D010C94FE0253
:100100000C940D030C942F030C94DB010C946A02E5
:100110000C9421030C94EC020C940A030C942B0312
:100120000C943D030C94AA010C949A040C941703AC
:100130000C9433030C9406030C94CD010C941D0312
:100140000C94F8080C94B9010C941D020C94C7058A
:100150000C94E7020C9439030000220025002800CB
:100160002B002E00310034000201000005010801BF
:100170000B0105050505070508080808020202022B
:100180000A0A080804040404010101010101010133
:100190000303030303030303040707070C0C0C0CFE
:1001A0000C0C0C0C020202020606060606060606E7
:1001B0000B0B0B0B0B0B0B0B010210202008081074
:1001C00020401020408002010201080402010102C7
:1001D00004081020408080402010080402018004A0
:1001E00002018040201008040201080402010102FB
:1001F0000408102040800102040810204080000004
:100200000A0B02090C0D0E08070304010000000090
:1002100000000000000000000000000000000000DE
:10022000000000000000000000001211100000009B
:1002300000000000000000000000000000000000BE
:1002400000000000F80811241FBECFEFD1E2DEBF8E
:10025000CDBF00E00CBF24E0A6ECB2E001C01D92CF
:10026000A23EB207E1F712E0A0E0B2E0E0EEF6E174
:1002700000E00BBF02C007900D92A63CB107D9F772
:1002800011E0C3E2D1E000E006C021970109802F10
:10029000FE010E94590BC232D10780E00807A9F77E
:1002A0000E9475090C946E0B0C940000FC01A0894F
:1002B000B18982E08C93A485B5851C92A685B7850B
:1002C00080E18C93108EA489B58986E08C93A289F5
:1002D000B3898C9180618C93A289B3898C91886059
:1002E0008C93A289B3898C9180688C930288F3895E
:1002F000E02D80818F7D80830895AF92BF92CF9251
:10030000DF92EF92FF920F931F93CF93DF936C01D5
:100310007B018B01040F151FEB015E01AE18BF08B6
:10032000C017D10759F06991D601ED91FC91019068
:10033000F081E02DC6011995892B79F7C501DF9170
:10034000CF911F910F91FF90EF90DF90CF90BF90D2
:10035000AF900895FC01538D448D252F30E0842FFC
:1003600090E0821B930B541710F0CF9608950197DD
:100370000895FC01918D828D981761F0A28DAE0FCA
:10038000BF2FB11D5D968C91928D9F5F9F73928F51
:1003900090E008958FEF9FEF0895FC01918D828D7D
:1003A000981731F0828DE80FF11D858D90E008954A
:1003B0008FEF9FEF0895FC01918D228D892F90E0A2
:1003C000805C9F4F821B91098F739927089580E469
:1003D00094E00E94DB0121E0892B09F420E0822FC8
:1003E000089582E493E00E94DB0121E0892B09F467
:1003F00020E0822F0895FC01A48DA80FB92FB11D14
:10040000A35ABF4F2C91848D90E001968F7399274A
:10041000848FA689B7892C93A089B1898C91837028
:1004200080648C93938D848D981306C00288F38921
:10043000E02D80818F7D80830895EF92FF920F934E
:100440001F93CF93DF93EC0181E0888F9B8D8C8D80
:1004500098131AC0E889F989808185FF15C09FB774
:10046000F894EE89FF896083E889F9898081837037
:10047000806480839FBF81E090E0DF91CF911F91E6
:100480000F91FF90EF900895F62E0B8D10E00F5F07
:100490001F4F0F731127E02E8C8D8E110CC00FB6DD
:1004A00007FCFACFE889F989808185FFF5CFCE0175
:1004B0000E94FB01F1CFEB8DEC0FFD2FF11DE35AF4
:1004C000FF4FF0829FB7F8940B8FEA89FB898081F8
:1004D0008062CFCFCF93DF93EC01888D8823B9F072
:1004E000AA89BB89E889F9898C9185FD03C080813F
:1004F00086FD0DC00FB607FCF7CF8C9185FFF2CFBC
:10050000808185FFEDCFCE010E94FB01E9CFDF9115
:10051000CF91089580E090E0892B29F00E94F101AD
:1005200081110E94000080E090E0892B29F00E9458
:10053000E70181110E94000080E090E0892B49F0E2
:1005400080E090E0892B29F00E94000081110E9438
:10055000000080E090E0892B49F080E090E0892B5A
:1005600029F00E94000081110C9400000895282FAA
:1005700030E0F901E250FE4F9491F901E854FE4F4A
:1005800044912E583E4FF9012491222309F435C09D
:10059000992311F191509231F8F4E92FF0E0882776
:1005A000EB52FD4F8F4F0C94590B06030A03E702E1
:1005B000FE020203EC020D03130317031D032103C4
:1005C00025032B032F03EC02330339033D038091F2
:1005D00080008F7780938000E22FF0E0EE0FFF1F06
:1005E000E85AFE4FA591B4918FB7F894EC91611140
:1005F00048C040954E234C938FBF08958091800052
:100600008F7DE8CF80918000877FE4CF84B58F779E
:1006100084BDE2CF84B58F7DFBCF8091B0008F7712
:100620008093B000D9CF8091B0008F7DF9CF8091B9
:1006300090008F7780939000CFCF809190008F7D36
:10064000F9CF80919000877FF5CF8091A0008F77C0
:100650008093A000C1CF8091A0008F7DF9CF8091C1
:10066000A000877FF5CF809120018F7780932001B4
:10067000B3CF809120018F7DF9CF80912001877FBA
:10068000F5CF4E2BB8CF2091ED02260F3327331F25
:1006900021323105ECF420911103FC0190E080E05F
:1006A000243069F082E00895A091ED022191AC011F
:1006B00043535D4FA40FB52FB11D2C9301968617A0
:1006C00098F38091ED02680F6093ED0280E0089549
:1006D00081E0089508958FEF9FEF08958FEF9FEFCA
:1006E00008958091C60290E09195819591090895B1
:1006F000CF93DF93CB01EA01642F0E944303CE0125
:10070000DF91CF910895CF93DF931F92CDB7DEB7DE
:10071000698361E0CE0101960E94430381E090E08D
:100720000F90DF91CF91089590E080E008952F928F
:100730003F924F925F926F927F928F929F92AF9271
:10074000BF92CF92DF92EF92FF920F931F93CF93BE
:10075000DF932C011A0189013B01D0E0C0E069015F
:10076000F12CE12CC215D30591F18FB7F89480904C
:100770003E0390903F03A0904003B09041038FBF91
:10078000D20112968D919C91DC01ED91FC91028435
:10079000F385E02D199597FF2EC00115110581F302
:1007A0002FB7F89480913E0390913F03A0914003AE
:1007B000B09141032FBF88199909AA09BB098C156B
:1007C0009D05AE05BF05E0F28EEF209709F08C2F56
:1007D000DF91CF911F910F91FF90EF90DF90CF901D
:1007E000BF90AF909F908F907F906F905F904F9051
:1007F0003F902F900895F30181933F012196B2CF4E
:10080000AF92BF92CF92DF92EF92FF920F931F931E
:10081000CF93DF9300D01F921F92CDB7DEB77C013C
:10082000062FB72E142F690143E050E0BE016F5F21
:100830007F4F0E949703181694F08EEF9FEF0F9052
:100840000F900F900F900F90DF91CF911F910F910C
:10085000FF90EF90DF90CF90BF90AF900895898187
:10086000882319F08DEF9FEFEACF8A818111FACFAB
:100870008B818F3FB9F7960142E050E0BE016C5F7B
:100880007F4FC7010E9497031816BCF68C819D818B
:10089000980F41F782508C83181708F448C0F7016D
:1008A0001481AA24A394A10E960142E050E0BE0157
:1008B0006F5F7F4FC7010E94970318160CF0BDCFE2
:1008C0008981853D79F68A818A11CCCF4C8150E0AF
:1008D0009601602F7B2DC7010E9497032C81082E63
:1008E000000C990B2817190609F0A7CF1A52902F60
:1008F000E02FFB2D8E2F891B821718F48191180F82
:10090000F9CF960142E050E0BE016F5F7F4FC70113
:100910000E94970318160CF090CF8981180F09F0E8
:10092000A1CF8A8181119ECF8C8190E088CF8CEFFE
:100930009FEF85CFFC01828193810C945601DC01ED
:10094000ED91FC910190F081E02D1994CF93DF930C
:10095000EC0165E570E08A819B810E949F0465E55A
:1009600070E08A819B810E949F048A819B81DC01C7
:10097000ED91FC910190F081E02D60E019958A8164
:100980009B81DC01ED91FC910190F081E02D60E014
:1009900019958A819B81DC01ED91FC910190F08198
:1009A000E02D60E019958A819B81DC01ED91FC913D
:1009B0000084F185E02D19958A819B81DC01ED9100
:1009C000FC910084F185E02D1995892B49F08A81ED
:1009D0009B81DC01ED91FC910284F385E02DEBCF4E
:1009E000DF91CF910895FC0101900020E9F7319744
:1009F000AF01481B590BBC0182E493E00C947D01CC
:100A00008F929F92AF92BF920F931F93CF93DF93DA
:100A1000CDB7DEB7A1970FB6F894DEBF0FBECDBF3E
:100A200019A2423008F44AE08E010F5D1F4F842E58
:100A3000912CB12CA12CA50194010E94370BE62F1B
:100A4000B901CA01EA30F4F4E05DD801EE938D01FA
:100A5000232B242B252B79F790E080E0109719F0B9
:100A6000CD010E94F304A1960FB6F894DEBF0FBE2D
:100A7000CDBFDF91CF911F910F91BF90AF909F900D
:100A80008F900895E95CE1CFCF93DF930E94F30448
:100A9000EC0184E292E00E94F3048C0F9D1FDF9131
:100AA000CF9108951F93CF93DF9385ED8093BC0082
:100AB0008091C9029091CA02A091CB02B091CC0260
:100AC0000796A11DB11D23E0B695A795979587952B
:100AD0002A95D1F72091BC0024FD03C01092110388
:100AE00052C04091C9025091CA026091CB027091EC
:100AF000CC02452B462B472B69F30097A105B10586
:100B000041F02AE22A95F1F700C00197A109B10945
:100B1000E1CF8091C802C1E0C093C702882399F158
:100B2000D091B8001091BA008091BC008A7B80936C
:100B3000BC0060E084E10E94B70260E085E10E94B1
:100B4000B70210921103C09313031092120361E0D5
:100B500084E10E94B70261E085E10E94B7028091C2
:100B6000B9008E7F8093B9008091B9008D7F80930A
:100B7000B90088E48093B80085E48093BC001093AA
:100B8000BA00D093B800DF91CF911F9108959F9242
:100B9000AF92BF92CF92DF92EF92FF920F931F938B
:100BA000CF93DF93CDB7DEB72C970FB6F894DEBFA7
:100BB0000FBECDBF7C016B01942EB22EA32EDC01A3
:100BC00012968D919C91DC01ED91FC910084F18550
:100BD000E02D1995F70182819381DC01ED91FC9163
:100BE0000084F185E02D1995F701A281B381892B4D
:100BF00041F0ED91FC9111970284F385E02DCD0138
:100C0000E8CFF6018081F7018483ED91FC91119783
:100C10000190F081E02D60E0CD011995D701129689
:100C20008D919C91DC01ED91FC910190F081E02D82
:100C300060E01995F70182819381DC01ED91FC91CF
:100C40000190F081E02D6FEF199561E0600F162F94
:100C5000190DF70182819381DC01ED91FC910190E6
:100C6000F081E02D612F1995612F70E071956195EC
:100C70007109F701828193810E949F0464ED70E005
:100C8000D70112968D919C910E949F04F701828159
:100C90009381492D50E0DC01ED91FC910280F381BC
:100CA000E02DB60119959C2DF60114ED8E2F891BB0
:100CB000891518F48191180FF9CFF701828193817A
:100CC000402F50E0DC01ED91FC910280F381E02D9A
:100CD0006B2D7A2D19959B2DEB2DFA2D8E2F891BBF
:100CE000801718F48191180FF9CFF7018281938151
:100CF000612F6195DC01ED91FC910190F081E02D77
:100D00001995F70182819381DC01ED91FC910190AD
:100D1000F081E02D60E0199586E0E0E0F2E0DE0190
:100D2000179601900D928A95E1F72AE030E046E0AF
:100D300050E0BE016F5F7F4FC7010E9497031816F6
:100D40000CF546E050E0BE01695F7F4FCE01019691
:100D50000E94610B21E0892B09F420E0822F81950C
:100D60002C960FB6F894DEBF0FBECDBFDF91CF91AA
:100D70001F910F91FF90EF90DF90CF90BF90AF90B9
:100D80009F9008958EEFECCF1F920F920FB60F92A7
:100D900011240BB60F922F933F934F935F936F9352
:100DA0007F938F939F93AF93BF93EF93FF9380E4D1
:100DB00094E00E94FB01FF91EF91BF91AF919F9151
:100DC0008F917F916F915F914F913F912F910F90F4
:100DD0000BBE0F900FBE0F901F9018951F920F9291
:100DE0000FB60F9211240BB60F922F938F939F93F0
:100DF000EF93FF93E0915004F09151048081E091D2
:100E00005604F091570482FD1DC0908180915904D1
:100E10008F5F8F7320915A04821741F0E09159043B
:100E2000F0E0E05CFB4F958F80935904FF91EF91C8
:100E30009F918F912F910F900BBE0F900FBE0F902F
:100E40001F9018958081F2CF1F920F920FB60F92CC
:100E500011240BB60F922F933F934F935F936F9391
:100E60007F938F939F93AF93BF93EF93FF9382E40E
:100E700093E00E94FB01FF91EF91BF91AF919F9191
:100E80008F917F916F915F914F913F912F910F9033
:100E90000BBE0F900FBE0F901F9018951F920F92D0
:100EA0000FB60F9211240BB60F922F938F939F932F
:100EB000EF93FF93E0915203F09153038081E0910F
:100EC0005803F091590382FD1DC0908180915B030E
:100ED0008F5F8F7320915C03821741F0E0915B0379
:100EE000F0E0EE5BFC4F958F80935B03FF91EF91F9
:100EF0009F918F912F910F900BBE0F900FBE0F906F
:100F00001F9018958081F2CF1F920F920FB60F920B
:100F100011242F933F938F939F93AF93BF9380910F
:100F20003E0390913F03A0914003B0914103309163
:100F30003D0323E0230F2D3758F50196A11DB11D68
:100F400020933D0380933E0390933F03A09340037F
:100F5000B09341038091390390913A03A0913B03F0
:100F6000B0913C030196A11DB11D8093390390936C
:100F70003A03A0933B03B0933C03BF91AF919F9181
:100F80008F913F912F910F900FBE0F901F9018954A
:100F900026E8230F0296A11DB11DD2CF1F920F92FA
:100FA0000FB60F9211240F900FBE0F901F9018953F
:100FB0001F920F920FB60F9211240BB60F922F9320
:100FC0003F934F935F936F937F938F939F93AF93D1
:100FD000BF93EF93FF938091B900887F803609F427
:100FE0004DC008F040C0883209F4A7C028F5803110
:100FF00009F49BC0C8F4882309F4F7C0883009F4C9
:1010000094C0FF91EF91BF91AF919F918F917F918C
:101010006F915F914F913F912F910F900BBE0F9069
:101020000FBE0F901F901895883109F486C080324A
:1010300041F78093100314C0803409F49BC040F43E
:101040008033B9F38833E9F68093100385ECAEC0A2
:10105000803509F483C0883509F494C0883489F652
:101060000E945205CECF883909F48AC038F58837F6
:1010700029F050F4883611F0803719F683E0809318
:10108000110310920F0355C0883809F479C08039D4
:1010900019F0803809F0B5CF80910F03803208F045
:1010A0006FC0E0910F0381E08E0F80930F0380915A
:1010B000BB00F0E0E151FD4F80833BC0803B39F045
:1010C000D0F4803A09F477C0883A09F09ACF84E0E6
:1010D000809311031092EE021092ED02F0E0E0E036
:1010E00019958091ED0281110FC081E08093ED028E
:1010F0001092CD0209C0803C09F4A8CF883C09F4C5
:10110000A5CF883B09F07DCFE091EE0281E08E0F04
:101110008093EE02F0E0E353FD4F80818093BB00AB
:101120009091EE028091ED0229C080913603809368
:10113000BB0085EC8093BC0064CF90913503809117
:101140003403981758F5E091350381E08E0F8093B2
:101150003503F0E0EC5EFC4F8081E9CFE091350390
:1011600081E08E0F809335038091BB00F0E0EC5E50
:10117000FC4F808390913503809134039817C8F217
:1011800085E8D8CFE091350381E08E0F8093350359
:101190008091BB00F0E0EC5EFC4F808380911303F4
:1011A00081115ECF81E08093120384EA8093BC00BA
:1011B0001092110326CF85EC8093BC00109211038E
:1011C00080910F03803230F4E0910F03F0E0E151A1
:1011D000FD4F108260910F0370E08FEE92E0F0E01F
:1011E000E0E0199510920F030CCF1092100338CF46
:1011F000E0E4F4E01382128248EE53E060E070E035
:1012000044835583668377838AE092E09183808369
:101210002DEC30E0358724872CEC30E037872687AB
:1012200028EC30E0318B208B29EC30E0338B228BA3
:101230002AEC30E0358B248B2EEC30E0378B268B7C
:10124000118E128E138E148EA2E4B3E013961C92AC
:101250001E92129714964D935D936D937C931797FE
:1012600011969C938E9385EC90E01D969C938E93A3
:101270001C9784EC90E01F969C938E931E9780ECB5
:1012800090E051969C938E93509781EC90E053960A
:101290009C938E93529782EC90E055969C938E93FC
:1012A000549786EC90E057969C938E935697599658
:1012B0001C9259975A961C925A975B961C925B9770
:1012C0005C961C92ADEDB4E08CE192E011969C939B
:1012D0008E931396FC93EE93129714961C92149788
:1012E000B0933F04A0933E040895CF93DF9300D0C2
:1012F00000D01F92CDB7DEB7789484B5826084BDEC
:1013000084B5816084BD85B5826085BD85B5816009
:1013100085BD80916E00816080936E001092810087
:101320008091810082608093810080918100816042
:101330008093810080918000816080938000809103
:10134000B10084608093B1008091B000816080938F
:10135000B000809191008260809391008091910013
:1013600081608093910080919000816080939000D3
:101370008091A10082608093A1008091A100816092
:101380008093A1008091A00081608093A000809153
:1013900021018260809321018091210181608093ED
:1013A00021018091200181608093200180917A0049
:1013B000846080937A0080917A00826080937A00C2
:1013C00080917A00816080937A0080917A008068B1
:1013D00080937A001092C10082E493E00E9456014B
:1013E00087E292E00E94440580913E0490913F0480
:1013F000DC01ED91FC910190F081E02D1995809137
:101400003E0490913F04DC01ED91FC910280F38158
:10141000E02D199582E08093FE0380913E04909127
:101420003F04DC01ED91FC910480F581E02D00E0AA
:1014300030E020E041E06EEF73E01995882329F059
:101440008EE292E00E94F304FFCF80913E049091DF
:101450003F04DC01ED91FC910680F781E02D28EE40
:1014600033E040E46EEF73E0199597FDE9CFC0904B
:10147000FE03D090FF03DC24CD24DC24F12CE12CEE
:10148000FE2CED2CDC2CCC2480910004C82AFE2CF0
:10149000ED2CDC2CCC2480910104C82AC114D10489
:1014A000E104F10469F286E492E00E94F3046F2DF6
:1014B00077278827992740E10E94000584E292E07F
:1014C0000E94F30485E592E00E94F3046E2D70E023
:1014D00090E080E04AE00E9400056EE282E493E042
:1014E0000E941D026D2D70E090E080E04AE00E94B5
:1014F000000584E292E00E94F30494E19093FE03DD
:1015000081E08093FF039093000480930104809115
:101510003E0490913F04DC01ED91FC910480F58143
:10152000E02D00E030E020E044E06EEF73E019953C
:10153000811110C080913E0490913F04DC01ED9137
:10154000FC910680F781E02D28EE33E040E46EEF59
:1015500073E0199584E692E00E94440587E0B82E76
:10156000FE0131967F019AE4A92E992493948E2E40
:10157000D701EB2D1D92EA95E9F7A092FE03909218
:10158000FF031092000480913E0490913F04DC011F
:10159000ED91FC910480F581E02D00E030E020E049
:1015A00043E06EEF73E0199581115EC080913E04B7
:1015B00090913F04DC01ED91FC910680F781E02DD4
:1015C00028EE33E040E46EEF73E0199597FD4CC0D0
:1015D0008091FE03813009F047C000910304A4E02C
:1015E000B4E06701F7018E2F8E19801718F48D91E2
:1015F0008193F9CF86E892E00E9444058EE992E05B
:101600000E94F304602F70E090E080E04AE00E94C6
:1016100000058DEA92E00E94440584EB92E00E946E
:10162000F3048C2D88198017B8F4F60111916F011D
:10163000103160F482EC92E00E94F304612F70E0BC
:1016400090E080E040E10E940005EBCF60E282E4A0
:1016500093E00E941D02F2CF86E292E00E944405D0
:1016600086E292E00E9444050E948A0281CFA1E2B4
:101670001A2EAA1BBB1BFD010DC0AA1FBB1FEE1F0C
:10168000FF1FA217B307E407F50720F0A21BB30B57
:10169000E40BF50B661F771F881F991F1A9469F7D3
:1016A00060957095809590959B01AC01BD01CF012F
:1016B0000895EE0FFF1F881F8BBF0790F691E02D56
:1016C0001994FB01DC0104C08D910190801921F473
:1016D00041505040C8F7881B990B0895F894FFCFEC
:1016E0000000FF00FF00000000001D027D01AA01B4
:1016F0006A02DB01B901CD01000000009A04A604D2
:10170000C70500040D0A0048656C6C6F2100446930
:10171000646E27742066696E6420504E35337820DD
:10172000626F61726400466F756E642063686970F1
:1017300020504E35004669726D776172652076657E
:10174000722E200057616974696E6720666F72207F
:10175000616E2049534F3134343433412043617238
:1017600064202E2E2E00466F756E6420616E204917
:10177000534F31343434334120636172640020208C
:10178000554944204C656E6774683A2000206279A0
:101790007465730020205549442056616C75653A84
:0617A000200020300000D3
:00000001FF
