:100000000C94B6010C94EC070C94C1070C94960761
:100010000C946B070C9440070C9415070C94EA069B
:100020000C94BF060C94E7010C94E7010C94E701D3
:100030000C94E7010C9417080C94E7010C94E70169
:100040000C94E7010C94E7010C94E7010C94E70190
:100050000C94E7010C94E7010C94E7010C947506ED
:100060000C94E7010C943F060C9415060C94E701E0
:100070000C94E7010C94E7010C94E7010C94E70160
:100080000C94E7010C94E7010C94E7010C94E70150
:100090000C94E7010C94E7010C94E7010C94E70140
:1000A0000C94E7010C94E7010C94E7010C94E70130
:1000B0000C94E7010C94E7010C94E7010C94E70120
:1000C0000C94E7010C94E7010C94E7010C94E70110
:1000D0000C94E7010C94E7010C94E7010C94E70100
:1000E0000C94E7010C94F4030C94D0040C940005D8
:1000F0000C94C8030C94D9080C9453040C94D804A1
:100100000C9425040C9423030C9424040C945202A4
:100110000C9461020C94C1030C94F0040C94B90388
:100120000C94C5030C94BD030C9483020C945B04E3
:100130000C94F8030C94EA030C94E0040C94A005CE
:100140000C943D040C94A9030C94EE030C945104FC
:100150000C9459040C945D040C94CE030C94250269
:100160000C94D2030C94A4030C94F8040C9457043C
:100170000C94BB020C9475020C94E0030C94E603FF
:100180000C94C6040C94DC030C94D8030C944F0418
:1001900000002200250028002B002E003100340032
:1001A00002010000050108010B01000021002400EC
:1001B00027002A002D003000330001010000040157
:1001C00007010A01000020002300260029002C005E
:1001D0002F0032000001000003010601090105059E
:1001E0000505070508080808020202020A0A0808AD
:1001F00004040404010101010101010103030303DB
:1002000003030303040707070C0C0C0C0C0C0C0C69
:100210000202020206060606060606060B0B0B0B7A
:100220000B0B0B0B0102102020080810204010209F
:1002300040800201020108040201010204081020AA
:1002400040808040201008040201800402018040A8
:100250002010080402010804020101020408102011
:100260004080010204081020408000000A0B0209AF
:100270000C0D0E0807030401000000000000000040
:10028000000000000000000000000000000000006E
:10029000000000000000121110000000000000002B
:1002A000000000000000000000000000000000004E
:1002B000526561647920746F207265636569766543
:1002C000204952207369676E616C730031303030A1
:1002D0007D3B000A09002C200075696E7431365F81
:1002E0007420726177446174615B5241575F44418D
:1002F00054415F4C454E5D3D7B0A09000A2364650D
:1003000066696E65205241575F444154415F4C45D8
:100310004E200064657369676E61746564206C6F5C
:10032000636174696F6E20696E2072617753656EC8
:10033000642E696E6F00446F2061206375742D61B7
:100340006E642D7061737465206F6620746865201B
:10035000666F6C6C6F77696E67206C696E65732071
:10036000696E746F207468652000D90811241FBE5F
:10037000CFEFD1E2DEBFCDBF00E00CBF12E0A0E0C6
:10038000B2E0E4E5F5E100E00BBF02C007900D929A
:10039000AE32B107D9F723E0AEE2B2E001C01D9260
:1003A000A63BB207E1F711E0C6EBD1E000E006C0E2
:1003B00021970109802FFE010E94970AC53BD107B2
:1003C00080E00807A9F70E942E090C94A80A0C9453
:1003D0000000CF93DF931092DE028091DF02E09164
:1003E000A903F091AA03882319F11092DF02DF011B
:1003F00020E08091AB03281710F5822F90E0880F42
:10040000991FED01C80FD91F488159816091B3032D
:100410007091B40320FF03C07195619571098E0F2F
:100420009F1F460F571FEC01598348832F5FE1CF71
:100430008091A8038093AB03A0EEB2E0D9CF1092D5
:10044000DD0281E0DF91CF910895AF92BF92CF920C
:10045000DF92EF92FF920F931F93CF93DF936C0184
:100460007B018B01040F151FEB015E01AE18BF0865
:10047000C017D10759F06991D601ED91FC91019017
:10048000F081E02DC6011995892B79F7C501DF911F
:10049000CF911F910F91FF90EF90DF90CF90BF9081
:1004A000AF900895FC01538D448D252F30E0842FAB
:1004B00090E0821B930B541710F0CF96089501978C
:1004C0000895FC01918D828D981761F0A28DAE0F79
:1004D000BF2FB11D5D968C91928D9F5F9F73928F00
:1004E00090E008958FEF9FEF0895FC01918D828D2C
:1004F000981731F0828DE80FF11D858D90E00895F9
:100500008FEF9FEF0895FC01918D228D892F90E050
:10051000805C9F4F821B91098F739927089589E30F
:1005200092E00E94830221E0892B09F420E0822FCF
:100530000895FC01A48DA80FB92FB11DA35ABF4F78
:100540002C91848D90E001968F739927848FA689D2
:10055000B7892C93A089B1898C91837080648C9326
:10056000938D848D981306C00288F389E02D8081D5
:100570008F7D80830895EF92FF920F931F93CF9307
:10058000DF93EC0181E0888F9B8D8C8D98131AC0CE
:10059000E889F989808185FF15C09FB7F894EE89B5
:1005A000FF896083E889F989808183708064808312
:1005B0009FBF81E090E0DF91CF911F910F91FF905D
:1005C000EF900895F62E0B8D10E00F5F1F4F0F7305
:1005D0001127E02E8C8D8E110CC00FB607FCFACFC0
:1005E000E889F989808185FFF5CFCE010E949902C3
:1005F000F1CFEB8DEC0FFD2FF11DE35AFF4FF08291
:100600009FB7F8940B8FEA89FB8980818062CFCFF6
:100610000F931F93CF93DF938C01D0E0C0E0F801DC
:10062000EC0FFD1F6491662341F089E392E00E9484
:10063000BB02892B11F02196F2CFCE01DF91CF9131
:100640001F910F910895CF93DF93EC01888D88233C
:10065000B9F0AA89BB89E889F9898C9185FD03C025
:10066000808186FD0DC00FB607FCF7CF8C9185FF0A
:10067000F2CF808185FFEDCFCE010E949902E9CFB4
:10068000DF91CF91089580E090E0892B29F00E94BE
:100690008F0281110E94000080E090E0892B49F0D8
:1006A00080E090E0892B29F00E94000081110E94D7
:1006B000000080E090E0892B49F080E090E0892BF9
:1006C00029F00E94000081110E94000080E090E06B
:1006D000892B49F080E090E0892B29F00E940000EE
:1006E00081110C9400000895282F30E0F901E6599B
:1006F000FD4F9491F901EC5DFD4F449122523E4F24
:10070000F9012491222309F477C0992311F1915022
:100710009231F8F4E92FF0E08827EE56FC4F8F4F26
:100720000C94970AC103C503A403B903BD03A9032D
:10073000C803CE03D203D803DC03E003E603EA03D5
:10074000A903EE03F403F803809180008F77809370
:100750008000E22FF0E0EE0FFF1FEC53FE4FA5915B
:10076000B491EC91E42381E090E009F047C080E08F
:100770000895809180008F7DEACF80918000877FEF
:10078000E6CF84B58F7784BDE4CF84B58F7DFBCF72
:100790008091B0008F778093B000DBCF8091B00064
:1007A0008F7DF9CF809190008F7780939000D1CF8B
:1007B000809190008F7DF9CF80919000877FF5CF59
:1007C0008091A0008F778093A000C3CF8091A0007C
:1007D0008F7DF9CF8091A000877FF5CF8091200198
:1007E0008F7780932001B5CF809120018F7DF9CF45
:1007F00080912001877FF5CF80E090E008953FB79A
:10080000F8948091350290913602A0913702B09110
:10081000380226B5A89B05C02F3F19F00196A11DEF
:10082000B11D3FBFBA2FA92F982F8827BC01CD013A
:10083000620F711D811D911D42E0660F771F881F99
:10084000991F4A95D1F708950895DC011496EC910B
:10085000E830E8F42E2F30E0E150E73030F5F0E0FA
:100860008827EA5CFB4F8F4F0C94970A57043D048E
:100870004F045104530459045B04E898220F331FBA
:10088000F901E050FE4F84E294E09183808310925E
:10089000DD021092DF0284E08093B0030895E998AE
:1008A000EDCFEA98EBCFEB98E9CFEC98E7CFED9856
:1008B000E5CFEE98E3CFEF98E1CFCF93DF93AC0194
:1008C0008091DE02811169C081E08093DD02809118
:1008D000B003843029F080912F02882309F45DC091
:1008E0002091D60230E0F901EC5DFD4F9491225247
:1008F0003E4FF90124912223C1F030E0220F331F33
:10090000F901E655FE4FC591D491F901E057FE4F2C
:10091000A591B4912FB7F8943881892F80958323BE
:100920008883EC919E2B9C932FBFEA011092A80321
:1009300081E08093B00310922F020E94FF03609326
:10094000AC037093AD038093AE039093AF03EC813F
:10095000E83018F5AE2FB0E0AA0FBB1FA050BE4F75
:1009600080EA95E011969C938E93E150E73080F5F4
:10097000F0E08827E154FB4F8F4F0C94970AF00466
:10098000C604D004D804E004F8040005809169008E
:100990008C7F816080936900E89ADF91CF91089500
:1009A00080916900837F846080936900E99AF5CF24
:1009B000809169008F7C806180936900EA9AEDCF15
:1009C000809169008F73806480936900EB9AE5CF12
:1009D00080916A008C7F816080936A00EC9ADDCF01
:1009E00080916A00837F846080936A00ED9AD5CFFE
:1009F00080916A008F7C806180936A00EE9ACDCFEF
:100A000080916A008F73806480936A00EF9AC5CFEB
:100A10008091DC02882339F08091A80380FF02C016
:100A20002F9A08952F9808958F929F92AF92BF9218
:100A30000F931F93CF93DF93CDB7DEB7A1970FB678
:100A4000F894DEBF0FBECDBF19A2423008F44AE0D1
:100A50008E010F5D1F4F842E912CB12CA12CA5016E
:100A600094010E94750AE62FB901CA01EA3044F5E3
:100A7000E05DD801EE938D01232B242B252B79F7F4
:100A800090E080E0109769F0FD0101900020E9F707
:100A90003197AF014A1B5B0BBD0189E392E00E94D5
:100AA0002502A1960FB6F894DEBF0FBECDBFDF9131
:100AB000CF911F910F91BF90AF909F908F9008950D
:100AC000E95CD7CF42E050E06AE272E089E392E06D
:100AD0000C942502CF93DF930E940803EC010E943F
:100AE00062058C0F9D1FDF91CF910895CF93C1E0D8
:100AF000C093DE0284E08093B0038091D702882304
:100B0000E9F08091DD028823C9F04091A80350E00C
:100B1000440F551F60EE72E08091A9039091AA03E3
:100B20000E949F0A8091A8038093AB031092DD027C
:100B3000C093DF021092A803C093B003CF91089531
:100B4000CF92DF92EF92FF92CF93DF9300D01F926C
:100B5000CDB7DEB70E94FF0369837A838B839C83C2
:100B6000C980DA80EB80FC808091AC039091AD036A
:100B7000A091AE03B091AF03C81AD90AEA0AFB0AE2
:100B80008091B003843049F1853091F1813049F48E
:100B90008091D6020E947403892BF9F485E080933A
:100BA000B003E091A803F0E0EE0FFF1FE052FD4F0D
:100BB000D182C08289819A81AB81BC818093AC0350
:100BC0009093AD03A093AE03B093AF038091A803BD
:100BD0008F5F8093A8038436E0F40F900F900F90FE
:100BE0000F90DF91CF91FF90EF90DF90CF9008951D
:100BF0000E9408058091A80380FDD3CF8091D80280
:100C00009091D902B0E0A0E08C159D05AE05BF051E
:100C100040F60F900F900F900F90DF91CF91FF90C3
:100C2000EF90DF90CF900C9476051F920F920FB645
:100C30000F9211240BB60F922F933F934F935F9314
:100C40006F937F938F939F93AF93BF93EF93FF9394
:100C500089E392E00E949902FF91EF91BF91AF91D9
:100C60009F918F917F916F915F914F913F912F91C4
:100C70000F900BBE0F900FBE0F901F9018951F92F4
:100C80000F920FB60F9211240BB60F922F938F93E2
:100C90009F93EF93FF93E0914902F0914A02808184
:100CA000E0914F02F091500282FD1DC09081809131
:100CB00052028F5F8F7320915302821741F0E091AF
:100CC0005202F0E0E75CFD4F958F80935202FF9156
:100CD000EF919F918F912F910F900BBE0F900FBEB0
:100CE0000F901F9018958081F2CF1F920F920FB630
:100CF0000F9211242F933F938F939F93AF93BF93A2
:100D00008091310290913202A0913302B09134026D
:100D10003091300223E0230F2D3758F50196A11DA5
:100D2000B11D209330028093310290933202A09340
:100D30003302B09334028091350290913602A09133
:100D40003702B09138020196A11DB11D8093350282
:100D500090933602A0933702B0933802BF91AF91BF
:100D60009F918F913F912F910F900FBE0F901F90E9
:100D7000189526E8230F0296A11DB11DD2CF1F9210
:100D80000F920FB60F9211240BB60F922F933F9331
:100D90004F935F936F937F938F939F93AF93BF9383
:100DA000EF93FF93E0910E02F0910F021995FF91DE
:100DB000EF91BF91AF919F918F917F916F915F91D3
:100DC0004F913F912F910F900BBE0F900FBE0F9040
:100DD0001F9018951F920F920FB60F9211240BB609
:100DE0000F922F933F934F935F936F937F938F93C4
:100DF0009F93AF93BF93EF93FF93E0910C02F09119
:100E00000D021995FF91EF91BF91AF919F918F9135
:100E10007F916F915F914F913F912F910F900BBEFA
:100E20000F900FBE0F901F9018951F920F920FB644
:100E30000F9211240BB60F922F933F934F935F9312
:100E40006F937F938F939F93AF93BF93EF93FF9392
:100E5000E0910202F09103021995FF91EF91BF9189
:100E6000AF919F918F917F916F915F914F913F9142
:100E70002F910F900BBE0F900FBE0F901F901895E3
:100E80001F920F920FB60F9211240BB60F922F9351
:100E90003F934F935F936F937F938F939F93AF9302
:100EA000BF93EF93FF93E0910002F0910102199537
:100EB000FF91EF91BF91AF919F918F917F916F9132
:100EC0005F914F913F912F910F900BBE0F900FBEEE
:100ED0000F901F9018951F920F920FB60F9211242A
:100EE0000BB60F922F933F934F935F936F937F9324
:100EF0008F939F93AF93BF93EF93FF93E0910A0279
:100F0000F0910B021995FF91EF91BF91AF919F91D5
:100F10008F917F916F915F914F913F912F910F90A2
:100F20000BBE0F900FBE0F901F9018951F920F923F
:100F30000FB60F9211240BB60F922F933F934F933E
:100F40005F936F937F938F939F93AF93BF93EF9331
:100F5000FF93E0910802F09109021995FF91EF913A
:100F6000BF91AF919F918F917F916F915F914F91C1
:100F70003F912F910F900BBE0F900FBE0F901F90BF
:100F800018951F920F920FB60F9211240BB60F9265
:100F90002F933F934F935F936F937F938F939F9381
:100FA000AF93BF93EF93FF93E0910602F091070296
:100FB0001995FF91EF91BF91AF919F918F917F9183
:100FC0006F915F914F913F912F910F900BBE0F90BA
:100FD0000FBE0F901F9018951F920F920FB60F9291
:100FE00011240BB60F922F933F934F935F936F9300
:100FF0007F938F939F93AF93BF93EF93FF93E09172
:101000000402F09105021995FF91EF91BF91AF9104
:101010009F918F917F916F915F914F913F912F9110
:101020000F900BBE0F900FBE0F901F9018957894E5
:101030001F920F920FB60F9211240BB60F922F939F
:101040003F934F935F936F937F938F939F93AF9350
:10105000BF93CF93EF93FF938091D6020E947403C6
:10106000C82F8091AC039091AD03A091AE03B091D5
:10107000AF030196A11DB11D8093AC039093AD0306
:10108000A093AE03B093AF038091A803843610F011
:101090000E9476058091B003823009F44CC0C0F400
:1010A000813031F10E940805FF91EF91CF91BF91FE
:1010B000AF919F918F917F916F915F914F913F91F0
:1010C0002F910F900BBE0F900FBE0F901F90189591
:1010D000833009F454C0843029F7C111E3CF109252
:1010E000AC031092AD031092AE031092AF03DACFAF
:1010F000C111D8CF1092A8038091AC039091AD0399
:10110000A091AE03B091AF03E091A80321E02E0FB0
:101110002093A803F0E0EE0FFF1FE052FD4F9183F4
:1011200080831092AC031092AD031092AE03109224
:10113000AF0382E021C0C13009F0B4CF8091AC038D
:101140009091AD03A091AE03B091AF03E091A803DD
:1011500021E02E0F2093A803F0E0EE0FFF1FE052D6
:10116000FD4F918380831092AC031092AD031092D7
:10117000AE031092AF0383E08093B00393CFCC23F0
:1011800009F4BACF4091AC035091AD036091AE0326
:101190007091AF038091DA029091DB02B0E0A0E0A1
:1011A00084179507A607B70708F07CCF0E9476053D
:1011B00079CFE9E3F2E01382128288EE93E0A0E0B7
:1011C000B0E084839583A683B78384E192E0918322
:1011D000808385EC90E09587848784EC90E0978706
:1011E000868780EC90E0918B808B81EC90E0938BF4
:1011F000828B82EC90E0958B848B86EC90E0978BD1
:10120000868B118E128E138E148EA1EBB3E086E2C4
:1012100092E011969C938E93E6EDF2E0178280EEB9
:1012200092E09093AA038093A903118288E79EE13C
:10123000938382838CE990E09583848382E390E0BA
:1012400013969C938E9312971086168284E0809357
:10125000B00314961C9282E080830895789484B53C
:10126000826084BD84B5816084BD85B5826085BDA2
:1012700085B5816085BD80916E00816080936E0030
:101280001092810080918100826080938100809122
:1012900081008160809381008091800081608093D3
:1012A00080008091B10084608093B1008091B00093
:1012B00081608093B0008091910082608093910062
:1012C0008091910081608093910080919000816075
:1012D000809390008091A10082608093A100809112
:1012E000A10081608093A1008091A0008160809323
:1012F000A0008091210182608093210180912101D1
:101300008160809321018091200181608093200180
:1013100080917A00846080937A0080917A00826064
:1013200080937A0080917A00816080937A00809126
:101330007A00806880937A001092C100E09149029F
:10134000F0914A0282E08083E0914502F0914602EA
:101350001082E0914702F09148028FEC8083109256
:101360005102E0914D02F0914E0286E08083E091BF
:101370004B02F0914C02808180618083E0914B02AE
:10138000F0914C02808188608083E0914B02F09163
:101390004C02808180688083E0914B02F0914C0286
:1013A00080818F7D80830E94FF034B015C0190ED63
:1013B000C92E97E0D92EE12CF12C0E94FF03681969
:1013C00079098A099B09683E734081059105A8F354
:1013D00021E0C21AD108E108F10888EE880E83E006
:1013E000981EA11CB11CC114D104E104F10429F719
:1013F00081EB93E00E945D0480EB92E00E946A051D
:101400008091DE028823E1F10E94E90186E393E006
:101410000E946A0583E193E00E946A058CEF92E0E6
:101420000E9408036091A80370E090E080E04AE029
:101430000E9414050E94620589ED92E00E94080353
:10144000C1E08091A803C81708F044C0EC2FF0E079
:10145000EE0FFF1FE052FD4F6081718190E080E050
:101460004AE00E94140586ED92E00E9408038C2F4A
:10147000877021F483ED92E00E940803CF5FE1CFF3
:101480008091B003853071F58091D6020E9474037B
:10149000892B41F1F894C090AC03D090AD03E0905B
:1014A000AE03F090AF0378940E94FF03AB01BC0140
:1014B0004C195D096E097F098091D8029091D9027B
:1014C000B0E0A0E084179507A607B70758F40E947C
:1014D00076059ACF8CEC92E00E946A0581EB93E04E
:1014E0000E945D040E9443038BCFA1E21A2EAA1B27
:1014F000BB1BFD010DC0AA1FBB1FEE1FFF1FA217C4
:10150000B307E407F50720F0A21BB30BE40BF50BC0
:10151000661F771F881F991F1A9469F76095709549
:10152000809590959B01AC01BD01CF010895EE0F10
:10153000FF1F881F8BBF0790F691E02D1994FB01C8
:10154000DC0102C001900D9241505040D8F708953F
:04155000F894FFCF3D
:101554002404240424042404240424042404240447
:1015640000000000BB022502520223038302610231
:0E1574007502000000005D0425040D0A000051
:00000001FF
